:020000040000FA
:0300000002009764
:1000430002022F00000080FBE49001017811790186
:100053008002F0A3D8FCD9FA7A117B019000C7780B
:100063003479018015E493A3AD82AE838A828B83B6
:10007300F0A3AA82AB838D828E83D8E9D9E77582F8
:100083005D75830274001200A9758246758300743E
:10009300001200A975D0007581BF750C01750D01A3
:1000A300759F0002004BC09FF59FE473D09F22D041
:1000B30083D082C09FE493C0E0740193C0E07402D4
:1000C30093F59F22546578617320496E737472753A
:1000D3006D656E747321200D0A000000000000009E
:1000E300000000000000000000000000000000000D
:1000F300000000000000011200B28903001200B2E8
:10010300B603001200B2CF0200CAC0E0E6F0A308B3
:10011300DAFAD0E0FA22700422600D18C6C333C69F
:1001230008C633C6D5E0F4182200C0D0250C10AFA2
:1001330008F50C500C050D8008F50C5002050DD286
:10014300AFD0D022250CF58210AF08F50C400C156A
:100153000D8008F50C4002150DD2AF850D832225C5
:100163000CF582E4350DF58322250CC582C0E0E54C
:100173000D34FFC583C0E0E50CC3958224F810AFAE
:100183000885830D85820C800885830D85820CD2BA
:10019300AFCEF0A3E520F0A37808E608F0A3DEFADB
:1001A300EFF0A3E58124FAF8E608F0A3E608F0A34C
:1001B300E608F0A30808E608F0A3E608F0A3158113
:1001C3001581D0E0FED0E0F8158115811581E8C0D6
:1001D300E0EEC0E022850D83850C82E0A3FEE0A360
:1001E300F5207808E0A3F608DFFAE0A3FFE0A3C058
:1001F300E0E0A3C0E0E0A3C0E0E0A3C0E0E0A3C070
:10020300E010AF0885820C85830D800885820C85FC
:10021300830DD2AFD083D0820200AF74028000C0BE
:10022300E0F404120147D0E012010C22C0E0C0D078
:10023300C082C083C2C0E5D1A2E0500C90014374D8
:1002430001F075D1FE43D601E5D1A2E1500375D18A
:10025300FDD083D082D0D0D0E03253C6B8E59EA281
:10026300E640FAE5F154FE4402F5F143FF4043F45E
:10027300C053F4FE53FEFE758F0075F70075FAD870
:10028300E5FC54E0440BF5FCD2FF53FBFE43FB02B9
:1002930053FBFB53FBF753FBEF53FBDF53FBBF5303
:1002A300FCDFA29040FC7AC87B0012010075083283
:1002B300750900780812021E7C117D0179017A0903
:1002C3007B01120106740212012C80D674F4120110
:1002D3006C89088C828D83A3AE82E5838A828B83AB
:1002E300F0EEA3F08A828B83A3A37470120380744D
:1002F300F9F0EA2404F8E43BF9740C120162E0FE1D
:10030300A3E0FFEE24FFEF34FF541FF50988828931
:1003130083E054E04509F0EE148A828B83A3A3A300
:10032300A3A3F088828983E0541F12037974111206
:100333000379A37448F0EAF8EBFAE50870078AD565
:10034300E8F5D480058AD3E8F5D2750A01750B0068
:10035300E508780A120119E50AF5D6000000000045
:1003630000000000D2AFD2B8C2C08C828D83E0F50A
:10037300F97F040201D8120380A3A3A322F08A8287
:100383008B83A3A3A322EBC313FBEA13FAEAF8EBD1
:10039300F9E824FFFAE934FFFBE8496013000000A1
:1003A300000000000000000000000000000080DDED
:1003B3000200AF74F712016CEAFEEBFFEEF8EFF9FF
:1003C300E824FFFEE934FFFFE84960097AE87B038C
:0A03D3001200FA80E77F010201D852
:040000050000009760
:00000001FF
