:020000040000FA
:10080000020CC8022275FFFFFFFFFFFFFFFFFFFF83
:10081000FFFFFFFFFFFFFFFFFFFFFFFFFFFFFFFFE8
:10082000FFFFFFFFFFFFFFFFFFFFFF0226ECFFFFC1
:10083000FFFFFFFFFFFFFFFFFFFFFFFFFFFFFFFFC8
:10084000FFFFFF022679FFFFFFFFFFFFFFFFFFFF14
:10085000FFFFFF0222EBFFFFFFFFFFFFFFFFFFFF96
:10086000FFFFFFFFFFFFFFFFFFFFFF0226C5FFFFA8
:10087000FFFFFF022706FFFFFFFFFF02269FFFFF8C
:10088000FFFFFF0220CBFFFFFFFFFFFFFFFFFFFF88
:100890002923FFFFFF0000B40000280028002830B3
:1008A00075A000A000A000A00000080008E001F072
:1008B0000010001000100010001000100050005038
:1008C00000500010001000D0070000000000000FD2
:1008D0000001000500307507001000010081FF00D5
:1008E000000000FFFFFF9829B6299E29DA29FF02A0
:1008F000020208025000A0000000E8030279820111
:10090000000061820275820100002317026D8201DE
:100910000000BE02027582010000241702718201EC
:100920000000D402027582010000251702818201B5
:100930000000D60202758201000026170289820893
:100940000000D7020275820100002717028D820184
:1009500000002817FF0100FF20027982010000A596
:10096000810275820100008C170283820000000062
:1009700000026F8203000005031700463046304630
:1009800030463046304630463046304630463046B7
:100990003046304630EC32FE32E6320202020202CB
:1009A00002020202010D0000001001027982010022
:1009B000006782027582010000CF1702A982010040
:1009C000003F07027582010000D01702A5820100D6
:1009D000005681027582010000D117029582010044
:1009E000002E81027582010000D21702938201005D
:1009F00000CD80027582010000D3170291820100B0
:100A0000009780027582010000D417028F820100D6
:100A100000A980027582010000D5170287820100BB
:100A200000BB80027582010000D61702858201009A
:100A3000002081027582010000D71702A382010005
:100A400000D81701E8030577100AFFFFFF00013007
:100A50007503020106000000000000000000000015
:100A60000000000000000000000000000000000086
:100A700000FFFF0600800CE8030909434F324E4E89
:100A8000454354051250002003020A0002010603E8
:100A900002F0FF0302E0FF434F324E4E4543543C09
:100AA000370000423749276D2073746172746564A2
:100AB00021212100000000000000000000000000D3
:100AC0000000000000000000000000000000000026
:100AD000000000000000000A4368617261637465F1
:100AE00072697374696320310002436861726163E3
:100AF00074657269737469632032000843686172B7
:100B000061637465726973746963203300104368AC
:100B10006172616374657269737469632034000281
:100B200043686172616374657269737469632035C7
:100B30000002798201000064820275820100000BCC
:100B400019029982030000BA160273820100000C98
:100B5000190275820100001D19029B82010000BB71
:100B6000160273820100001E190275820100002F17
:100B700019029D82020000BC16027382010000303F
:100B8000190275820100004119029F82000000BD18
:100B900016026F82030000BE16027382010000423B
:100BA00019027582010000531902A182040000C0DD
:100BB000160273820100005419104B65792050729F
:100BC00065737320537461746500027982010000BB
:100BD0006A82027582010000ED19028B820000001A
:100BE000C516026F82030000C61602738201000060
:100BF000EE193031323334353637383941424344D7
:100C0000454600286E756C6C20706F696E74657255
:100C10002900303132333435363738396162636414
:100C20006566003F3F3F000000807F0000803F007E
:100C3000000000F9021550B743BA510000204100EE
:100C4000E7DB2E0000A040E5C754F84401F5C77962
:100C5000012200000080FB120C47B90003020CB215
:100C6000E479217808B800028004F709D8FCE47917
:100C7000297802B800028004F709D8FCE4900280C9
:100C8000784979158002F0A3D8FCD9FA7AC87B1686
:100C900090089478B479048015E493A3AD82AE8370
:100CA0008A828B83F0A3AA82AB838D828E83D8E95C
:100CB000D9E77582FE7583CC7403120CDA75825203
:100CC00075830C7400120CDA75D00075813F7518AD
:100CD00080751902759F00020C57C09FF59FE47341
:100CE000D09F22D083D082C09FE493C0E074019350
:100CF000C0E0740293F59F22E066701008A3E066DE
:100D0000700A08A3E066700408A3E06622C008C366
:100D1000E096F50808A3E096420808A3E09642088A
:100D200008A3E0964208A2D265D033E5087001D34B
:100D3000D00822C3E7960809E7960809E79608094C
:100D4000E79622C3E09608A3E09608A3E09608A3DE
:100D5000E09622C008C3E096F50808A3E096420892
:100D600008A3E096420808A3E09645087001D3D096
:100D70000822080808E630E71112162C120D8A081E
:100D80000808C64480C618181822181818E9799E51
:100D9000C608CAC608CBC608CCC6C370207996CA96
:100DA000CBCC7019798ECBCC70137986CC700EF9C0
:100DB000802ACA33CACB33CBCC33CC331930E7F2D9
:100DC000CCCBCA3350147004EA30E00DE4CA3ACAFE
:100DD000CB3BCBCC3CCC500209C3E913C6CC182387
:100DE00013C6CB18C6CA18C6F922120E2A20F01450
:100DF00030E72B74FFFCFBFA747F8022E4FCFBFAE3
:100E00007480801AB48008BC00F2BB00EF800F50E1
:100E1000EBF9E4C39AFAE49BFBE49CFCE499C6CCAE
:100E200018C6CB18C6CA18C6F922E4C9C608CAC66D
:100E300008CBC6D3330308CCC63392F0C3947F40AB
:100E40002E94184019C9B90704CACBCC225025C327
:100E500009CA33CACB33CBCC33CC33D9F422F460B8
:100E60000DC9CCC313CB13CBCA13CAD9F6CC22E419
:100E7000FCFBFA2214FCFBFA22E626184618461858
:100E80004622E72719471947194722181818E60874
:100E900046087009E626087005E633F42208221990
:100EA0001919E70947097009E727097005E733F4BD
:100EB000220922E6084608C3134608336002E633D7
:100EC000F422E7094709C3134709336002E733F403
:100ED00022120EB36025120EC26020120E7970032A
:100EE000020E82080808E76670101819E766700A93
:100EF0001819E76670041819E76622F422120EB377
:100F0000601C120EC26017120E797007120E8270EA
:100F100001D322C0D0120E827006D0D0B322C322D9
:100F200033D0D0501430E0F6C3E7960809E79608AE
:100F300009E7960809E796B32220E0D5E697080965
:100F4000E6970809E6970809E697B322120EB36000
:100F50001B120EC26016120E797007120E82600C00
:100F6000B322C0D0120E827005D0D022C32233D05B
:100F7000D0501330E0EBC3E7960809E7960809E77D
:100F8000960809E7962220E0E4E6970809E6970824
:100F900009E6970809E6972200120EB3604F120E79
:100FA000C26012E7548066F6120E8B7011120E8228
:100FB000703B090909F4F618F618F618F622120E15
:100FC0009F7015120E7908080860EAE6447FF6184B
:100FD000768018E4F618F622120E796016120E8248
:100FE0007012E4F608F608F608E65480F6090909D6
:100FF00018181822EAC0E0EBC0E0ECC0E0EDC0E059
:10100000E687F0A4FBACF008E687F0A42CFCE435FE
:10101000F0FA1809E687F0A42C4B60027401CA3577
:10102000F0FCE433FB09E687F0D2F7A42CCB35F0D3
:10103000FC1908E687F0A42BCC35F0FBE433FD085F
:1010400019E687F0D2E7A42C4ACB35F0CD3400FC6A
:1010500009E687F0D2E7A42DCC35F0FDE433FA0998
:1010600018E687F0D2F7A42CCD35F0CA3400FC087E
:10107000E687F0D2E7D2F7A42ACC35F07A7E20E7D3
:101080000B0ACB33CBCD33CDCC33CC33CB33501455
:101090007004ED30E00ED2F1E4CD3DCDCC3CCC3B44
:1010A0005005DA05C2F1EB547FC63308E63392F0FF
:1010B000FBE73309E733C39A502D2B70190C0D4C05
:1010C0004D70151806E608C333700D20F10AA2F022
:1010D00013F6E418800B4024E4F630F00276801812
:1010E000F618F618F68024D33B14501074FFA2F0C3
:1010F00013F6187680E418F618F6800FA2F013F6AF
:1011000018E63303F618ECF618EDF6D0E0FDD0E063
:10111000FCD0E0FBD0E0FA22120EC26046120EB301
:10112000603DE9687008F618F618F618F622748023
:1011300067F712114C090909748067F722120EB380
:10114000601D120EC27005191919801A120E8B70CB
:101150001F120E9FC37003E6673319191940071851
:1011600018182208080874FFF618F618F618F62260
:10117000120E9F6017120E82702192F0120E79707B
:1011800019501720F014080808090909E7F618197A
:10119000E7F61819E7F61819E7F622120E7960E655
:1011A000E869701F0808E62480F608E436F618544B
:1011B0007FB47F0CE654806007F6E418F618F62238
:1011C000181822E9C6CC08C6CD08C6CE08C6CFC0BE
:1011D000E0E8C0E0EAC0E0EBC0E009E9F809E7FABE
:1011E00009E7FBE6F918E6F8C3EC98ED99EE9AEBFF
:1011F000C2E7F5F0EFC2E795F0500E600CEBCFFBC5
:10120000EACEFAE9CDF9E8CCF8EAA2E7D2E7FAEBC0
:1012100033FB13F5F0EEA2E7D2E7FEEF33FFC5F0A4
:1012200013A2E730E601B313C5F0C3C0E0C0F07FFE
:1012300000C39BFB605E9418600F401D14601AD0C1
:10124000E023F9D0E0F802131E8AF0E9486003D2E7
:10125000F0E4AFF0FAF9F8803BEB30E40D89F0EA06
:101260006003D2F0E4AFF0F9CAF8EB30E30D88F098
:10127000EF6002D2F0AFF0E4CAC9F8EB5407601493
:10128000FBC3EA13FAE913F9E813F8EF135002D29B
:10129000E0FFDBEDD0E0C0E030E739C3E49FFFF5CD
:1012A000F0EC98FC42F0ED99FD42F0EE9AFE42F02F
:1012B000D0E0F9D0E0F8E5F0607AE923F9EE20E734
:1012C00042D8028067C3EF33FFEC33FCED33FDEE11
:1012D00033FE80EAEC28FCED39FDEE3AFED0E02347
:1012E000F9D0E0F84002801BC3EE13FEED13FDECD5
:1012F00013FCEF135002D2E0FF08B800067F7F74A2
:10130000FF802EEF3350178CF020F00260100CBCE1
:10131000000C0DBD00080EBE000408E860DFE933D4
:10132000E813FFEE2313FE4F4D4C8008E95480FF75
:10133000E4FEFDFCEE33EF33F47004FCFD7E80D060
:10134000E0FBD0E0FAD0E0F8D0E0CFC618CEC61867
:10135000CDC618CCC6F922120EB370041818182284
:10136000120EC2700D74FFF61819F61819F6181936
:10137000F622E7548066F6120E79700F120E827014
:10138000F014F608F608F608F680D1120E82700CFA
:10139000F608F608768008E6447F80EC120EA2700C
:1013A0000C120E8E60BFE65480F6E480BB120E8EE7
:1013B000700519191980A5E869700C763F187680B8
:1013C00018F618F6E8F922E6CDC0E018ECC0E0E621
:1013D00033CD33CDD313F6E719FCE7191933CC33EA
:1013E000C3947F400ECD9D502408E65480F6E41847
:1013F000F6800FF4043D14501408E6447FF6187686
:1014000080E418F618F6D0E0FCD0E0FD22CCD3132F
:10141000CCFD18E4C6CBC0E018E4C6CAC0E008089A
:10142000ED08C633E613F618E433C675F003C3CAF5
:1014300097CA09CB97CB199C40047D08802EBD002C
:101440000302150016B6FF050606081618C3CA33B0
:10145000CACB33CB33CA27CA09CB37CB193CC37DA0
:1014600008803E187D0820E75CC633C6CA33CACB65
:1014700033CB33DDF1D5F0EB30E77BCA97CA09CB2C
:10148000974ACB199C406F4B7025E620E02180667F
:10149000187D08C3CA97CA09CB97CB199CD3C6330A
:1014A000C6CA33CACB33CB3350C9DDE7D5F0E1D35D
:1014B000E4C636C608C636C608C636C608C636C628
:1014C0001818188031C3CA97CA09CB97CB199CB397
:1014D0004097C633C6CA33CACB33CB33DD34D5F0DD
:1014E0002EC6A2E0C640C8CA27CA09CB37194A701F
:1014F000BECB3CB480B90808E63308E633601F1859
:101500001818D0E0FAD0E0FBD0E0FCD0E0FD2218C3
:101510007D08CA27CA09CB37CB193CD3808013F684
:1015200018E4B67F11F618B6FF0EF618C60470D28E
:101530000808768080CAF618F618F680C5080808EC
:10154000EAC0E0EBC0E086F0E7A4FA180986F0E70D
:10155000A42AFA180986F0E7A42AFA180986F0E7FF
:10156000A42AFA1986F0E7A4FBE5F02AFA190886FE
:10157000F0E7A42BFBE5F03AFA190886F0E7A42B74
:10158000FBE5F03AFA18180986F0E7A4C5F02BFB42
:10159000E43AFA1908E7C5F0C6A426F6E5F03BFBE5
:1015A000E43AFA1886F0E7A4F6E5F00826F6E43BFC
:1015B00008F6E43A08F6D0E0FBD0E0FA22E4CFC027
:1015C000E0E4CEC0E0E4CDC0E0E4CCC0E075F020C3
:1015D000E626F608E633F608E633F608E633F618AC
:1015E0001818EC33FCED33FDEE33FEEF33FFC3ECA4
:1015F0009709ED9709EE9709EF97191919400FFF11
:10160000EC97FC09ED97FD09EE97FE191906D5F048
:10161000BFECF709EDF709EEF709EFF7191919D043
:10162000E0FCD0E0FDD0E0FED0E0FF22181818E486
:10163000C396F608E496F608E496F608E496F622D1
:101640006016080808C6C313C618C613C618C61302
:10165000C618C613C6D5E0EA227009080808226039
:1016600016181818C6C333C608C633C608C633C60C
:1016700008C633C6D5E0EA22E627F60809E637F6BB
:101680000809E637F60809E637F622E026F608A349
:10169000E036F608A3E036F608A3E036F622E026A8
:1016A000F008A3E036F008A3E036F008A3E036F037
:1016B00022C3E697F60809E697F60809E697F608C2
:1016C00009E697F622C3E096F008A3E096F008A397
:1016D000E096F008A3E096F022E056F608A3E05664
:1016E000F608A3E056F608A3E056F622E056F00806
:1016F000A3E056F008A3E056F008A3E056F022E07D
:10170000F608A3E0F608A3E0F608A3E0F622E6F068
:1017100008A3E6F008A3E6F008A3E6F022E0FAA3A7
:10172000E0FBA3E0FCA3E0FD22E0F8A3E0F9A3E0E6
:10173000FAA3E0FB22E8F0A3E9F0A3EAF0A3EBF0C0
:1017400022CAC0E0E6F0A308DAFAD0E0FA22CAC062
:10175000E0E0A3C582CCC582C583CDC583F0A3C517
:1017600082CCC582C583CDC583DAE6D0E0CA22C368
:10177000E498F8E499F91217B08026C3E49AFAE4E1
:101780009BFBE920E7E91217B0E498F8E499F92205
:10179000C3E498F8E499F91217B0E498F8E499F9D9
:1017A000C3E49AFAE49BFB22EB20E7CFE920E7E0D1
:1017B000B90010BB0008E88AF084F8AAF022E4FB24
:1017C000C8FA22EB70227B10C833C8C933C9335022
:1017D00007C39AC3DBF280069A50012ADBEAC833BA
:1017E000F4C8C933F4C9FA2275F008E4C833C8C98B
:1017F00033C933C99AC99B5004C92AC93BD5F0ECF7
:10180000FBC833F4C8E4C9FA22600D08C6A2E71386
:10181000C618C613C6D5E0F322600C08C6C313C6AB
:1018200018C613C6D5E0F422700422600D18C6C392
:1018300033C608C633C6D5E0F41822251810AF0801
:10184000F518400C15198008F51840021519D2AF8B
:101850002200C0D0251810AF08F518500C051980CB
:1018600008F51850020519D2AFD0D0222518F582FC
:1018700010AF08F518400C15198008F5184002152E
:1018800019D2AF851983222518F582E43519F5831D
:10189000222518F8E43519F9222518FAE43519FB40
:1018A000222518FCE43519FD22E4732518C582C0F1
:1018B000E0E51934FFC583C0E0E518C3958224F83C
:1018C00010AF088583198582188008858319858261
:1018D00018D2AFCEF0A3E520F0A37808E608F0A375
:1018E000DEFAEFF0A3E58124FAF8E608F0A3E608B3
:1018F000F0A3E608F0A30808E608F0A3E608F0A3C2
:1019000015811581D0E0FED0E0F815811581158193
:10191000E8C0E0EEC0E0222518C582C0E0E5193439
:10192000FFC583C0E0E518C3958224F910AF088590
:1019300083198582188008858319858218D2AFCED5
:10194000F0A3E520F0A37808E608F0A3DEFAEFF0B4
:10195000A3E58124FBF8E608F0A3E608F0A3080855
:10196000E608F0A3E608F0A315811581D0E0FED0CB
:10197000E0F815811581E8C0E0EEC0E0228519830A
:10198000851882E0A3FEE0A3F5207808E0A3F6081E
:10199000DFFAE0A3FFE0A3C0E0E0A3C0E0E0A3C063
:1019A000E0E0A3C0E0E0A3C0E010AF0885821885A6
:1019B00083198008858218858319D2AFD083D0829D
:1019C000020CE0851983851882E0A3FEE0A3F520D0
:1019D0007808E0A3F608DFFAE0A3FFE0A3C0E0E0A8
:1019E000A3C0E0E0A3C0E0E0A3C0E010AF088582A0
:1019F000188583198008858218858319D2AFD08312
:101A0000D08222C0D02518C582C0E0E51934FFC5B8
:101A100083C0E0E518C3958224F310AF08858319CD
:101A20008582188008858319858218D2AFC8F0A3F3
:101A3000E9F0A3EAF0A3EBF0A37908E709F0A3D853
:101A4000FAECF0A3EDF0A3EEF0A3EFF0A3D0E0F0FA
:101A5000A3D0E0F0A3D0E0F0A3E520F0A3E5F0F000
:101A6000A322851983851882E0C0E0A3E0F9A3E0F2
:101A7000FAA3E0FBA37808E0F608A3DFFAE0FCA3F2
:101A8000E0FDA3E0FEA3E0FFA3E0C0E0A3E0C0E030
:101A9000A3E0F5D0A3E0F520A3E0A3F5F010AF0894
:101AA0008583198582188008858319858218D2AFAD
:101AB000D082D083D0E0F8D0E03274048006740283
:101AC00080027401C0E0F40412186CD0E0121741D7
:101AD000227404800474028000CCC0E0EDC0E0E514
:101AE00018C39CCCAD1950011D10AF068C188D1970
:101AF00080068C188D19D2AF12174ED0E0FDD0E0C1
:101B0000FC22D083D082E9C0E0E493A3C386F0C571
:101B1000F095F0F908E493A386F0C5F095F0700B0A
:101B2000E493A3C3994005E9048002A3E475F0029D
:101B3000A42582F582E5F03583F583D0E0F9E493BE
:101B4000A3C0E0E493C0E022D083D082ECC0E0EDFB
:101B5000C0E0E493A3FCE493A3FDED4C600D121BE5
:101B600094EC24FFFCED34FFFD80EFE493A3FCE450
:101B700093A3FDED4C600D121BD3EC24FFFCED3460
:101B8000FFFD80EFD0E0FDD0E0FCE493A3C0E0E4F3
:101B900093C0E022C0E0C3E49396087401939618C2
:101BA000400FE49366700808740193661870007023
:101BB00019A3A3C3E49396087401939618A3A340B2
:101BC0000DD0E0D0E0D0E0021B84A3A3A3A3A3A385
:101BD000D0E022C0E0C0F088F0E49366700808749A
:101BE000019366187000A8F0A3A3700BD0F0D0E0AA
:101BF000D0E0D0E0021B84A3A3D0F0D0E022FFFF0E
:101C000074F6121917EAFEEBFF8C088D09EE2434E6
:101C1000F8E43FF9E8FCE9FDEE2435121F13FAEE73
:101C20002437121F13F88508F0A4C885F00A850927
:101C3000F0A4250AF9EA28F8E439F97A257B00129C
:101C400017B0EA8C828D83F0FA131313541FF8EE49
:101C500028F8E43FF9E8245DF582E439F583E0C033
:101C6000E074075AF8D0E0B800028004C313D8FC2F
:101C7000A2E0EE50082434F582E43F8018243612A6
:101C80001F13F5F0EA84A8F0EE28F8E43FF9E82401
:101C900038F582E439F583E0F97F030219C374F75C
:101CA000121917EAFEEBFFEE2434121F13C0E0EE08
:101CB0002435F582E43FF583D0E0F08E828F83A354
:101CC000A3A3A3A3A3A3C082C0838E828F83A3A355
:101CD000A3A3A3E0F8A3E0F9D083D082E0C398F5F2
:101CE00008A3E099F509EE247F121F136401703EEA
:101CF000EE2480F582E43FF583C082C0838E828F1C
:101D000083A3A3A3A3A3E0240108A3E03400F9D094
:101D100083D082E0687003A3E06970127CB07D0418
:101D2000122F86EE247FF582E43FF583E4F0AC08C1
:101D3000AD09EEFAEFFB121C00E9F912266B7F02E7
:101D40000219C3C082C083851882851983E0F8A375
:101D5000E0F9C3EA9CEB9D5010C3EC98ED99401B51
:101D6000C3EA98EB995014800EC3EA98EB994007A8
:101D7000C3EC98ED994004790180027900D083D0BA
:101D80008222EAC39CFAEB9DFB2274EF1219179092
:101D90000375E064086005E06407702A9061C8E09C
:101DA00060249003A3E0F4601DE0F875F00BA4C874
:101DB000AAF02AF974A528FE740339FF8E828F8356
:101DC000A3A3A3E07003021E98906060E0C0E0EE61
:101DD0002468F582E43FF583D0E0F0750C20750DA2
:101DE00005750800750900E5D914F50AE5D954030D
:101DF000F50E60127403650E6043E50A600AEE2476
:101E000067121F137002807590051BE06401601F4C
:101E1000121F1060047A0480027A00E50AC39AFA5D
:101E200095E0FB122E308A088B09EA4509700512ED
:101E300031B48064121F1070048A0C8B0DE50A60A7
:101E400012850C82850D83F50BE5D9F0A3150BE502
:101E50000B70F6121F10604474FC250AF50A780C0A
:101E6000121ABEAC0AA90EEEFAEFFB123040740251
:101E7000121851E97026AA08AB091235F2793D8E85
:101E8000828F83A3A3A3A3E0FA7B00122C92EEFA25
:101E9000EFFB122FAA1230527900806F7403650E87
:101EA0006051850A107511007810121ABEAC0CAD85
:101EB0000DAA08AB091230047402121851EE2468FE
:101EC000121F1364807004747F8001E0F50C780C9D
:101ED000121AC2E50EF50C780C121AC2A90AAC0847
:101EE000AD099003A3E0FA7B00122C68740212186B
:101EF000518013900375E06408600BAC0CAD0DEEDF
:101F0000FAEFFB1230CA1231C079017F0A0219C3FD
:101F1000EE2483F582E43FF583E02274F212191770
:101F200074FC12183BEAFEEBFF8909A2AFE433F51B
:101F300008C2AF021FE5E0601B780C121ABEAC0BA2
:101F4000A90EEEFAEFFB12303A7402121851740423
:101F5000250BF50B7401250BF5D9850ED9E50B6022
:101F600018F50A850C82850D83E0F5D9A385820CCE
:101F700085830D150AE50A70EA75E195EE2463F88C
:101F8000E43FF97A007B00A2AFE433F50BC2AF88DF
:101F9000828983E0FCA3E0FDEC4D603A888289836E
:101FA000E0FAA3E0FB8A828B83E0FCA3E0FD888259
:101FB0008983ECF0A3EDF08A828B83E4F0A3F088B0
:101FC000828983E0FCA3E0FDEC4D700A888289835E
:101FD000A3A3E4F0A3F0E50BA2E092AF1235F290D8
:101FE00004B7E004F0EE2463121F13F8A3E0F9E84D
:101FF000496064EE2463121F132402F8A3E0340046
:10200000F988828983E5822402F50CE43583F50D95
:10201000E0F50BA3E0F50EEE2462121F13640170CD
:10202000369061D0E0F8121F1060047C0480027CBE
:10203000007480C398FA95E0FBE50B2CF8E43400BB
:10204000F9E82402F8500109C3EA98EB99A2D26595
:10205000D0334003021F369004B7E0604D9004B8BF
:10206000E0F89004B7E0C398500C74026509703A28
:102070009004B9E060348E828F83A3A3A3A3E0858C
:1020800018828519831220BA7402121887E8122068
:10209000BA9004B6E028F074021218A1AA18AB197D
:1020A0007901122CBC9004B7E4F0E508A2E092AFED
:1020B00074041218517F070219C3F0A3E4F09004CE
:1020C000B7E0F8228521878522C622C0E074EB1292
:1020D0001A03A2AFE433F508C2AF759B009061828A
:1020E000E0A2E05030E591A2E0502A7591FE740123
:1020F0006521702112225E12310C12224C121AD16B
:102100001224157404121851E96401700579011242
:102110003148121D8A906182E0A2E5505DE591A2EE
:10212000E550577591DF900375E064076005E06442
:1021300008702F12225E74016521703E12310C125C
:10214000224C121AD11224157404121851E9640198
:10215000700579011231487901EEFAEFFB121F1B6D
:102160008018E0640D7013900397E004F064287009
:1021700002E4F07A00E0F91231C6906182E0A2E652
:102180004003022221E591A2E6400302222175913B
:10219000BF900375E0640570081230F412310080BE
:1021A000031230FA752100123154E9900376F07968
:1021B00000123148122EF67A017B00900374E0F988
:1021C0001235C2907803E06442705690051FE01407
:1021D000F0704EC2AF1221D800782AD0E0F618D0A5
:1021E000E0F6E59F5407F87005750DFF8003750D47
:1021F0007FC4C0E07829E6F50A08E6550DF50B74B2
:102200000B780A121819D0E0250AF8906270E0A243
:10221000E740F8E8C333906272F0906270E0D2E079
:10222000F0906181E0A2E35009E5E9A2E350037573
:10223000E9F7A3E0A2E75009E591A2E75003759101
:102240007FE508A2E092AF7F08021A628E828F8338
:10225000E0F8A3E0C82416F582E438F58322900361
:10226000A3E0F875F00BA4C8AAF02AF974A528FE1B
:10227000740339FF22C0E0C0D0C082C08390618364
:10228000E0A2E05009E5BFA2E0500375BFFEE0A266
:10229000E15009E5BFA2E1500375BFFDE0A2E250A5
:1022A00009E5BFA2E2500375BFFBE0A2E35009E5D8
:1022B000BFA2E3500375BFF7E0A2E45009E5BFA257
:1022C000E4500375BFEFE0A2E55009E5BFA2E55079
:1022D0000375BFDFE0A2E65009E5BFA2E650037533
:1022E000BFBFD083D082D0D0D0E032C0E074F21231
:1022F0001A03E5A7A2E6500FE5A1A2E6500953A7ED
:10230000BF75A1BF12233FE5A7A2E5500CE5A1A22E
:10231000E5500653A7DF75A1DFE5A7A2E15009E567
:10232000A1A2E1500375A1FDE5A7A2E2500CE5A131
:10233000A2E2500653A7FB75A1FB7F01021A62744B
:10234000F7121917752101900375E06406701512D4
:1023500030768A828B83A3A3A3A3A3A3E0FAA3E08E
:10236000FB1230E2A2AFE433FED2AF90037BE06415
:102370000170187A207B00900374E0F91236D67A47
:10238000207B00900374E0F91235C8906182E0D29E
:10239000E6F090051CE0602185C622801690037A45
:1023A000E064017008E5C654F84405F5C653BEFC68
:1023B0001220C47401652160E4EEA2E092AF7F02B6
:1023C0000219C3FF8E238F248582288583278518D1
:1023D00082851983E0CEA3E0CF852882852783EB11
:1023E000C9EAC8EDCBECCA75F010C3E833C8E933CD
:1023F000C9EA33CAEB33CBC3EA9EF526EB9FF5253A
:10240000B35004AB25AA26EC33CCED33CDD5F0DAAE
:10241000AE23AF242274F11219178A088B098C0A93
:102420008D0B90820578081216D9740F12188778D0
:102430000C1216FF908205780C1216D97808790CC8
:10244000120D3390824550107808790C1216B1782D
:1024500008120D534014800E780C79081216B178CA
:102460000C120D5350047901800279007F08021983
:10247000C374ED1219178A088B098C0A8D0B908290
:102480000578081216D97413121887780C1216FFE3
:10249000908205780C1216D9780C7908120D334009
:1024A000117808790C1216B1AA08AB09AC0AAD0B69
:1024B00080227510007511007512007513017810D7
:1024C000790C1216B178107908121678AA10AB118F
:1024D000AC12AD137F0C0219C39082057808121656
:1024E000FF8A828B8378081216EC7F040219C3746A
:1024F000F51219178C828D8378081216FF8A828B49
:102500008378081216C5122547C3E09CF0A3E09D0E
:10251000122539402290824978081216FF8A828B50
:1025200083780812169E8A828B83A3A3A3A3E02438
:1025300020F0A3E0344EF080A0F088828983C3E0CD
:102540009420A3E0944E22EA2404F8E43BF98C8220
:102550008D83A3A3A3A3E0FCA3E0FD88828983224B
:1025600074F5121917E9FE9004D2E0FAA3E0FBEE2D
:1025700029F8E433F9741028F582748139F583E081
:102580002AF508A3E03BF5097808121ABE908235B7
:1025900012171D1223C474021218518A088B098C59
:1025A0000A8D0B74107808121640AA08AB097F0434
:1025B0000219C374F11219178A0C8B0D8C0E8D0F32
:1025C0007411121887121AD57411121887E0240199
:1025D000F508A3E03400F509E4F50AF50B780C7969
:1025E0000812153D90821578081216FF780C7908AC
:1025F00012153DAA0CAB0DAC0EAD0F1223C4740224
:102600001218518B09EA450960047A0180027A00A8
:10261000EC2AFCE43DFD7413121887E0F8A3E0F9FE
:10262000E8FEE9FFECF8EDF97A717B021217B08849
:10263000088909E4F50AF50B8E828F837808121752
:102640000EECF8EDF97A717B021217B08A088B094B
:10265000740578081218288E828F83A3A3A3A3E59C
:1026600008F0A3E509F07F080219C3C082C083E91E
:10267000906000F0D083D08222C0E074F2121A037E
:10268000A2AFE433FED2AFC2C0E5D1A2E4500675DA
:10269000D10F12353EEEA2E092AF7F01021A62C066
:1026A000E074F2121A03A2AFE433FED2AFE58AA2BD
:1026B000E050031234EA758A00C2EBEEA2E092AF5A
:1026C0007F01021A62C0E074F2121A03A2AFE4336F
:1026D000FED2AFE589A2E04006E589A2E1500312EF
:1026E00034EA758900758900C2C580CFC0E0C0D0CA
:1026F000E8C0E0A8A8D2AFC2C7E8A2E792AFD0E096
:10270000F8D0D0D0E032C0E0C0D0E8C0E0E9C0E00E
:10271000EAC0E0EBC0E0C082C083A2AFE433F9D2EC
:10272000AF9009CFE0F8A3E0687008539AF7A3745C
:10273000018022C2EA9009CFE0F8740128F0744FBA
:1027400028F582E43409F583E0F5F99009CFE0C378
:1027500094804002E4F0E9A2E092AFD083D082D02E
:10276000E0FBD0E0FAD0E0F9D0E0F8D0D0D0E03211
:10277000C2AF02000022120CE37DA603120CE3900C
:10278000A603120CE3C1A603120CE3FBA603120C72
:10279000E354A703120CE39BA703120CE3E3A70384
:1027A000120CE312A803120CE341A803120CE37805
:1027B000A803120CE3BFA803120CE3D8A803120C61
:1027C000E32DA903120CE346A903120CE394A90319
:1027D000120CE3CEA903120CE3F3CF02120CE3F6C2
:1027E000D002120CE32FD102120CE352D102120CD0
:1027F000E364D102120CE3A2D102120CE31ED20256
:10280000120CE3E6D202120CE308D302120CE39F8F
:10281000D302120CE3F1D302120CE322D402120C05
:10282000E32FD402120CE399D402120CE3F0D40289
:10283000120CE3F3D402120CE32CD502120CE32F9A
:10284000D502120CE339D502120CE38DD502120C1D
:10285000E3CED502120CE301D602120CE33ED602FF
:10286000120CE340D702120CE3E4D702120CE34D42
:10287000D802120CE38BD802120CE39C9E03120CBC
:10288000E3C49E03120CE3F19E03120CE3299F03A1
:10289000120CE3879F03120CE3D39F03120CE33A5D
:1028A000A003120CE37AA003120CE3B7A003120CEE
:1028B000E3E5A003120CE38FA103120CE399A1033B
:1028C000120CE3A6A103120CE3D9A103120CE3E559
:1028D000A103120CE3FDA103120CE307A203120CE7
:1028E000E331CC03120CE33FCC03120CE357CC03CF
:1028F000120CE36ECC03120CE3E2A801120CE38C81
:10290000A901120CE39FAA01120CE31BAB01120CEC
:10291000E339AC01120CE375AC01120CE310AD010C
:10292000120CE3F4AD01120CE3C0AE01120CE34E45
:10293000B001120CE3BFB001120CE379B101120C2B
:10294000E36BB201120CE3ABB201120CE35FB30113
:10295000120CE391B301120CE387B501120CE3C929
:10296000B501120CE3E7B501120CE34DB601120CF0
:10297000E31CB701120CE3E0B701120CE3FFB9014D
:10298000120CE3DEE002120CE3C8E102120CE37366
:10299000E202120CE3C4E202120CE374E302120C32
:1029A000E3E5E302120CE3CAE402120CE3FEE402E4
:1029B000120CE3F7E502120CE334E602120CE3100A
:1029C000E702120CE34FE702120CE36BE702120C72
:1029D000E323BE03120CE3A7BE03120CE3D2BE0333
:1029E000120CE3ECBF03120CE395A203120CE3AB51
:1029F000A203120CE3C9A203120CE3DAA303120C24
:102A0000E3E4A303120CE30FA503120CE306A603F1
:102A1000120CE373A603120CE3CCE702120CE302E0
:102A2000E902120CE339E902120CE390E902120CFC
:102A3000E3A5EB02120CE3686C00120CE3F46C00EB
:102A4000120CE3586E00120CE3646E00120CE39F4C
:102A50006E00120CE30E6F00120CE3177000120CE4
:102A6000E3207100120CE3E77100120CE3447300E1
:102A7000120CE3627300120CE37F7300120CE32C60
:102A80007400120CE3A97400120CE3D17400120C50
:102A9000E39B7700120CE3A07700120CE3B97900F6
:102AA000120CE3077A00120CE3777A00120CE3B5FC
:102AB0007A00120CE3917B00120CE3517C00120CA3
:102AC000E39D7C00120CE3A07C00120CE3E47C008C
:102AD000120CE32C7D00120CE36B7D00120CE38DD5
:102AE0007D00120CE3C17D00120CE3247E00120C69
:102AF000E357F802120CE365F802120CE3B8F8028F
:102B0000120CE3D7F802120CE31CF902120CE3607A
:102B1000FA02120CE3FBFA02120CE33FFB02120C66
:102B2000E369FB02120CE3D8FB02120CE31EFC0269
:102B3000120CE395FC02120CE346FD02120CE3B802
:102B40003700120CE3C83700120CE3693800120C8E
:102B5000E3C53800120CE3823900120CE39E3A0000
:102B6000120CE3D03A00120CE3FF3A00120CE3AC73
:102B70003C00120CE3233F00120CE3934100120CC3
:102B8000E3854200120CE37E4300120CE38545000E
:102B9000120CE3794800120CE3A84900120CE3ACD4
:102BA0004B00120CE3BC4C00120CE34B4E00120C19
:102BB000E33C4F00120CE38A4F00120CE3F94F0084
:102BC000120CE31D5000120CE36E5000120CE30FC8
:102BD0005500120CE3105600120CE3715600120C53
:102BE000E39C5600120CE3625700120CE35D96035F
:102BF000120CE3679603120CE3AC9603120CE3C0CD
:102C00009603120CE3509703120CE3899703120CFE
:102C1000E3C49703120CE3ED9703120CE34198030E
:102C2000120CE3569803120CE3789803120CE38D10
:102C30009803120CE3A19803120CE3B69803120C4C
:102C4000E3F09803120CE31C9903120CE36599035B
:102C5000120CE3D79903120CE31A9A03120CE34403
:102C60009A03120CE36F9A03120CE318CA03120CB6
:102C7000E357B202120CE33AB302120CE3B5B3020B
:102C8000120CE3F0B302120CE341B502120CE3CFD5
:102C9000B502120CE361B802120CE313B902120C74
:102CA000E31FBA02120CE392BB02120CE3EBBB026D
:102CB000120CE3CB8D03120CE30E8E03120CE39285
:102CC0008E03120CE3699103120CE3B5B903120CE5
:102CD000E367BA03120CE363BB03120CE3A2BB036A
:102CE000120CE3FCBB03120CE31BC003120CE37ECB
:102CF000C003120CE31BC103120CE350C103120CFE
:102D0000E380C103120CE3BBC103120CE3DBC1037C
:102D1000120CE3008003120CE38C8003120CE34BD3
:102D20008103120CE3638203120CE37D8403120C13
:102D3000E3C39B02120CE3E89B02120CE3B59C0276
:102D4000120CE3899D02120CE3F69D02120CE3368D
:102D50009E02120CE3D29E02120CE306A002120C99
:102D6000E3E1A002120CE340A102120CE3CCA102A9
:102D7000120CE33AA202120CE3C6A202120CE30CFC
:102D8000A302120CE37EA302120CE310A402120CA5
:102D9000E3B1A402120CE3D1A402120CE319A502C0
:102DA000120CE362A502120CE37EA502120CE3A44E
:102DB000A502120CE31EA602120CE32CA602120CB2
:102DC000E3BBA602120CE324A702120CE3B48403B3
:102DD000120CE3398503120CE37B8503120CE35FCD
:102DE0008603120CE3CC8603120CE3108703120C4B
:102DF000E3548703120CE3818703120CE3A98703D2
:102E0000120CE3E18703120CE31F8803120CE34664
:102E10008803120CE3C08803120CE30A8903120C26
:102E2000E30CBA01120CE3ABBB01120CE3E3BD01EE
:102E3000120CE337BE01120CE362BE01120CE33E3A
:102E4000BF01120CE36EBF01120CE39DBF01120C17
:102E5000E3B0BF01120CE3F1BF01120CE31EC0018D
:102E6000120CE36CC001120CE3A8C001120CE3EDDC
:102E7000C001120CE33AC101120CE3B4C101120CFF
:102E8000E3F5C301120CE3DFC501120CE31BC6011D
:102E9000120CE3AAC701120CE3EFC701120CE362A4
:102EA000C801120CE3B7C801120CE3BCC801120C34
:102EB000E346C901120CE365CA01120CE376CA01AC
:102EC000120CE354C602120CE3CDC602120CE387C7
:102ED000CC02120CE392CD02120CE33BCF02120C97
:102EE000E3C9CF02120CE3AD8201120CE32E830181
:102EF000120CE35B8301120CE3A48301120CE3A523
:102F00008401120CE3FE8401120CE37A8601120C98
:102F1000E3FC8601120CE3178701120CE38887019A
:102F2000120CE3458801120CE3088901120CE396A8
:102F30008901120CE34D8A01120CE3608A01120C24
:102F4000E3F98A01120CE3908B01120CE3B78B01B9
:102F5000120CE3208C01120CE36A8C01120CE3B812
:102F60008C01120CE35D8D01120CE3FB8D01120C40
:102F7000E3888E01120CE3F98E01120CE3408F01FD
:102F8000120CE3988F01120CE3CA8F01120CE38438
:102F90009001120CE38B9101120CE3D49101120CFD
:102FA000E3F19101120CE3109201120CE34393013F
:102FB000120CE3FA9301120CE31F9401120CE33498
:102FC0009401120CE3A49401120CE3E59401120C99
:102FD000E3099601120CE38A9601120CE394BC02F9
:102FE000120CE3DFBC02120CE3EBBC02120CE3BFD9
:102FF000BD02120CE3D6BD02120CE313BE02120C8A
:10300000E344BE02120CE37CBE02120CE3D2BE0209
:10301000120CE3E8BE02120CE324BF02120CE337E9
:10302000BF02120CE35EBF02120CE392BF02120C4D
:10303000E3B8C002120CE302C202120CE3FEC202A9
:10304000120CE31BC402120CE3F37F00120CE382A8
:10305000DA01120CE3BDDA01120CE30FDE01120CEF
:10306000E36BDF01120CE32AE001120CE391E301B0
:10307000120CE37BE401120CE3C7E401120CE3E160
:10308000E401120CE31EE501120CE329E501120C28
:10309000E368E501120CE371E501120CE31BE601A4
:1030A000120CE3F2E601120CE346E701120CE3A373
:1030B000E701120CE315E801120CE3C09601120CB3
:1030C000E31F9A01120CE3259A01120CE356A101A9
:1030D000120CE35DA501120CE305B103120CE3E24F
:1030E000B103120CE326B203120CE360B203120C1C
:1030F000E3F8B203120CE367B303120CE370B303FB
:10310000120CE37CB303120CE396B303120CE3C07E
:10311000B303120CE3F0B303120CE31B9203120C83
:10312000E3289203120CE3429203120CE37592031C
:10313000120CE3B39203120CE3189303120CE32D69
:103140009303120CE3389303120CE3459303120C20
:10315000E35C9303120CE36A9303120CE37593038D
:10316000120CE3819303120CE3909303120CE39B84
:103170009303120CE3BE9303120CE3629403120C4C
:10318000E3729403120CE38C9403120CE3A99403EE
:10319000120CE3C49403120CE3E99403120CE3F45D
:1031A0009403120CE3099503120CE31D9503120C12
:1031B000E37E9503120CE3849503120CE38A9503D6
:1031C000120CE3909503120CE3A89503120CE3DBB9
:1031D0009503120CE3408E02120CE3D78E02120C00
:1031E000E36F8F02120CE35F9002120CE3969002E1
:1031F000120CE3A99002120CE3179102120CE3B235
:103200009202120CE3D99202120CE37B9302120C8D
:10321000E3B09302120CE3C19302120CE33A94025E
:10322000120CE35B9402120CE3739402120CE3CBD6
:103230009502120CE3D49702120CE3249A02120CAA
:10324000E3279B02120CE3769B02120CE364E90174
:10325000120CE361EA01120CE34CEB01120CE35691
:10326000EB01120CE378EB01120CE384EB01120C7E
:10327000E3D6EC01120CE305ED01120CE335EE018F
:10328000120CE377EE01120CE3A3EF01120CE379C9
:10329000F001120CE3CBF001120CE32AF101120C45
:1032A000E361F101120CE39CF101120CE337F5012B
:1032B000120CE350F501120CE3D2F501120CE3E01D
:1032C000F501120CE335F601120CE343F601120C82
:1032D000E3B0F601120CE322F701120CE368F701E8
:1032E000120CE347A702120CE369A702120CE35386
:1032F000A902120CE3F8AC02120CE33BAE02120C72
:10330000E315AF02120CE3E9C103120CE30EC20392
:10331000120CE37FC203120CE3B1D802120CE3BA21
:10332000D802120CE3C3D802120CE3F4D902120C37
:10333000E313DC02120CE349DC02120CE383DC022F
:10334000120CE3B9DC02120CE3F3DC02120CE327EB
:10335000DD02120CE353DD02120CE39CDD02120CC1
:10336000E3D6DD02120CE31EDE02120CE374DE0271
:10337000120CE3A9DE02120CE304DF02120CE33E9E
:10338000DF02120CE38FDF02120CE3C5DF02120C26
:10339000E3FFDF02120CE32DE002120CE350E00227
:1033A000120CE3B3CD03120CE3DFCD03120CE33AAE
:1033B000CE03120CE344CE03120CE354CE03120CE2
:1033C000E31EB403120CE345B403120CE370B40320
:1033D000120CE35DD003120CE3CE5700120CE33461
:1033E0005A00120CE3EB5B00120CE3485C00120C79
:1033F000E34A5D00120CE3D25D00120CE3595E005B
:10340000120CE37E5E00120CE3736100120CE3E425
:103410006100120CE3D36200120CE30D6300120C86
:10342000E34D6300120CE3EE6400120CE34165000F
:10343000120CE38A6500120CE3F86500120CE32A13
:103440006600120CE3446600120CE35A6700120C8B
:10345000E36A6700120CE3F06800120CE3106900E5
:10346000120CE3466900120CE3C66A00120CE30575
:103470006B00120CE3436C00120CE34A8903120C3C
:10348000E3A28903120CE3EA8A03120CE3598B03CB
:10349000120CE3088C03120CE3278C03120CE37B61
:1034A0008C03120CE3B98C03120CE319D103120C38
:1034B000E3F4CE03120CE304CF03120CE316CF03A4
:1034C000120CE37ECF03120CE32CCB03120CE3B0FF
:1034D000CB03120CE318CC03120CE380C803120CCC
:1034E000E3C8C803120CE327C903120CE3D2C903D3
:1034F000120CE3CAAD03120CE3E2AD03120CE35B62
:10350000AE03120CE330AF03120CE3DBB003120C7A
:10351000E358FD02120CE3E8FD02120CE366FE0222
:10352000120CE3FEFE02120CE351FF02120CE35BED
:10353000FF02120CE373FF02120CE38AFF02120C6B
:10354000E3EBFF02120CE39FC303120CE350C4032E
:10355000120CE379C403120CE3A2C403120CE3BA05
:10356000C403120CE3FCC403120CE307F302120CB5
:10357000E311F302120CE351F302120CE39AF3028B
:10358000120CE3D4F302120CE32AF402120CE34906
:10359000F402120CE352F402120CE3A3F402120C34
:1035A000E3CCF402120CE3E1F402120CE351F50255
:1035B000120CE3DFF502120CE323F602120CE34CCB
:1035C000F602120CE3CBF602120CE308F702120C1F
:1035D000E33FF702120CE351F702120CE370F7021B
:1035E000120CE379F702120CE32BF802120CE3E25F
:1035F000C603120CE333C703120CE3BCC703120C5F
:10360000E322C803120CE3F4B603120CE31EB70363
:10361000120CE313B803120CE342B803120CE3C913
:10362000B803120CE3FC7E00120CE327BC03120C5F
:10363000E35DBC03120CE390BC03120CE3E9BD0391
:10364000120CE388CF03120CE39ECF03120CE3A805
:10365000CF03120CE3FECF03120CE3F1F701120CBF
:10366000E3AEF801120CE3E9F801120CE31AF901D8
:10367000120CE37CF901120CE3C8F901120CE333DC
:10368000FA01120CE3ADFA01120CE3ACFB01120CCF
:10369000E333FD01120CE3B6FD01120CE31CFE0145
:1036A000120CE32FFE01120CE32AFF01120CE37748
:1036B000FF01120CE3979A03120CE3AD9A03120C6C
:1036C000E3519B03120CE3909B03120CE3AD9B03AD
:1036D000120CE3DE9B03120CE32B9C03120CE35F42
:1036E0009C03120CE39A9C03120CE38F9E03120CB2
:1036F000E3008002120CE3B78302120CE349850257
:10370000120CE3A08502120CE3BF8502120CE33D0C
:103710008602120CE3CF8702120CE3B38802120C6C
:10372000E3C48C02120CE3988D02120CE374ED02D8
:10373000120CE3CBED02120CE3F6EF02120CE30BDA
:10374000F102120CE38CF202120CE336AA03120C03
:10375000E39EAA03120CE3BBAA03120CE386AB039D
:10376000120CE3D9AB03120CE3BCAC03120CE34123
:10377000C503120CE39AC503120CE302C603120C34
:10378000E380C603120CE399CA01120CE3A8CF012F
:10379000120CE3A7D003120CE3EDD003120CE35E8E
:1037A000CE03120CE388CE03120CE3D5FF01FFFF1A
:1037B000FFFFFFFFFFFFFFFFC082C083E990178B71
:1037C000F0D083D082020CE074F61218ABE99002BC
:1037D000E7F0900347E0F5087509007402780812D5
:1037E0001828AA08AB091236349002E812417B90DF
:1037F00002E8124568606F900347E075F003A4FA91
:10380000ABF012363490030512417B90030512454C
:1038100068700B9002E812453912363A80489003DE
:10382000051254CD7AFF7BFF1234787A0080198A12
:103830000875090074027808121828124F7574FF71
:1038400012397BE4F0A3F00A900347E0F8EAC3984A
:1038500040DD7905122B549002E7E0F9122A407AF4
:10386000DE7B2B122DD002501874F41218AB8A088C
:103870008B09EB548060479002E7E0F91235AA8A81
:103880000A8B0BAE0AAF0BEE4F602A8E828F83E05D
:1038900064B0701A122B66E960148E828F83A3A322
:1038A000A3A3E0F9EE2405FAE43FFB122B36EEFA6F
:1038B000EFFB123598AA08E5096480FB80047A00C2
:1038C0007B00023ACB74F21218AB74FB12183BEA7D
:1038D000FEEBFFEE4F60457403121887EEF0A3EF86
:1038E000F0851882851983ECF0A3EDF074021218AC
:1038F00087E9F0AA18AB19122A3AE9F5087075742D
:1039000013121887E0F50AA3E0F50BE50A450B60F2
:10391000638E828F83123F04EE4F7005750802801C
:10392000537A067B001236348A0C8B0DA80CA90D35
:10393000E8497005750813803B88828983E4123951
:103940007BEEF0A3EF123A97E50AF0A3E50BF090B7
:1039500002EB123A909002EB6017E0FCA3E08003C8
:10396000EAFCEBFD8C828D83123A9070F38C828D91
:1039700083124B90A908740502574DF0A31254AF5F
:10398000A32274F21218AB8908890C750D00740318
:10399000780C121828850C0A850D0B9002EAF0901D
:1039A00002E812499B123A8E602E12363A79008054
:1039B0001D890C750D007402780C1218289002E80D
:1039C000124E348882F583A3A3E4F0A3F009900398
:1039D00047E0F8E9C39840D9900347E0FA850AF038
:1039E000A4CAA8F0850BF0A428FB1236348A0C8BED
:1039F0000DAE0CAF0DEE4F7003023A84900347E01A
:103A0000FC850AF0A4CCA8F0850BF0A428FD790071
:103A10001235867C0080318D0C750D007403780C96
:103A20001218288A828B83123A8988828983E4F06B
:103A3000123A96A3A3F0A3F00DEDC3950840D8EE7B
:103A4000250AFEEF350BFF0C900347E0F8ECC39816
:103A500050288C0C750D007402780C1218289002F6
:103A6000E8123A89E82402500109FAE9FB8A828BBC
:103A700083EEF0A3EFF07D0080BFE5089002EAF04E
:103A8000790080027913025750124E38F922A3A30D
:103A900012453DEA4B22A31254AFA3A3A32274F410
:103AA0001218AB7900EAA2E0501F7508C2750981AF
:103AB0007808121ABE79107C047D007A8D7B17126B
:103AC0002B4E7402121851E9F980007F0402197D0F
:103AD000C082C0839002EB124568601C8882898393
:103AE000A3A3E06A7003A3E06B8882898370E8A3D4
:103AF000A3A3A312453980047A007B000237C17466
:103B0000F21218AB74FD12183BEAFEEBFF85188227
:103B1000851983E4F0A3F074021218877401F0127F
:103B200045657014122D0A1236349002EE12417B54
:103B30001245657003023C9112427BEE2404F50AA3
:103B4000E43FF50B850A82F583E024FE603C24FC0B
:103B5000607424FE607E24FE7003023BE124FE704C
:103B600003023BEE24FE7003023BFB24FE700302C3
:103B70003C0824FE7003023C1524FC7003023C3612
:103B800024FE7003023C4E023C8A122D0A9002F081
:103B9000EAF0A3EB123C9D122782E96003023C8A03
:103BA0009002F0121AD58E828F83A3A3A3A3A3122F
:103BB00054CD850882850983124539122B1E740263
:103BC000121851023C8AAC18AD19EEFAEFFB122B19
:103BD0006C023C59AC18AD19EEFAEFFB122B728057
:103BE00078AC18AD19EEFAEFFB122B78806BAC189D
:103BF000AD19EEFAEFFB122B7E805EAC18AD19EE1C
:103C0000FAEFFB122B848051AC18AD19EEFAEFFBE2
:103C1000122B8A80447402121891880C890D780C3A
:103C2000121ABE74021218A1EEFAEFFB122B907456
:103C3000021218518023AC18AD19EEFAEFFB122BCB
:103C400096E9F870167402121887E4F0803CAC18FC
:103C5000AD19EEFAEFFB122B9CE9F8E8602C8E828E
:103C60008F83A3E064146022850A82850B83E09031
:103C700002F0F08518828519831245399002F112FD
:103C8000417BE8A3123C9D12277CEEFAEFFB122A3F
:103C9000F47402121887E0F9740302574DF07CF0B7
:103CA0007D0285088285098312453D2274E8121839
:103CB000AB74FA12183B7404121887ECF0A3EDF001
:103CC0008A128B13EA2405F50EE43513F50FEA2466
:103CD00002F510E43513F511851082F5831245398C
:103CE0001228728A0A8B0B7508007C037D0079000C
:103CF0007AF07B02123586E50E2402F516E4350FC4
:103D0000F5177402121891880C890D780C121ABEDE
:103D1000850E82850F83A3A3A3A3E0F50C750D0088
:103D2000780C121ABEE50E2405F50CE4350FF50DDE
:103D3000780C121ABE851682851783124840122A03
:103D40005874061218518A0C8B0DE50C450D700342
:103D5000023ECD8020851882851983E08882898380
:103D6000F00508851882851983A3E0C0E0123F0E94
:103D7000D0E0F00508E50A24FBFAE50B34FFFBC3AD
:103D8000E5089AE49B4003023ECD7E007F00851249
:103D900082851383A3A3A3A3E0F5097809121AC2AD
:103DA000E4F514F5157814121ABE7514ED751502A4
:103DB0007814121ABE9002EE121AD57409121887DE
:103DC000121AD5E50A24F9F9AC0CAD0D85108285DF
:103DD0001183124539122BC67409121851E9600378
:103DE000023E6E850E82850F83A3A3A3A3A3A3A384
:103DF000E0F89002EDE0687075E0F5148E15781427
:103E0000121ABE1254CA850E82850F83A3A3A3A3E0
:103E1000A3A3A3A31245391235807402121851E9E5
:103E2000604C9002F1124568703BE4F5147814126E
:103E30001ABE7CFF7DFF79078510828511831245AC
:103E400039122B30740212185112456E7017850EFC
:103E500082850F831256677404121887124F281236
:103E60004871023F01850C82850D83123F04A8181A
:103E7000A919881489157814121ABE7404121887A7
:103E8000121AD5851682851783124171122A64741D
:103E9000041218518A0C8B0DEE4F7003023D4A122A
:103EA0003F0EEE123F19124827EF123F19F8A3E018
:103EB0003400F9E50C450D6003023D558882898385
:103EC00074FFF00508123F0E74FFF00508E5086066
:103ED0001A1313543F12418112278EE96009900290
:103EE000F11245391235F279008016850E82850F60
:103EF000831256677404121887124F28124B907958
:103F00000A0247FAA3A3A3A3E0FEA3E0FF22A808A6
:103F10009002F1E02812482722F00508089002F1EB
:103F2000E0282274E81218AB74FA12183B740212DB
:103F3000188712417B7404121887ECF0A3EDF0741B
:103F400002121887E02405124810E0F50CA3E0F5F2
:103F50000D7402121887E02402F510A3E03400F576
:103F600011851082F5831245391228727508007583
:103F70000900EA24FCFEEB34FFFF8008050CE50C89
:103F80007002050DA808C3EE98EF9400500302419B
:103F90002DA818A919880E890F780E121ABE85143B
:103FA00082851583A3A3A3A31254D1121ABEE514CC
:103FB0002405F50EE43515F50F780E121ABE85149A
:103FC0008285158312416F122A5874061218518A7D
:103FD0000E8B0FEA450F700302412DEA2404F516FB
:103FE000E4350FF517851682F583E0F50CA3E0F5AF
:103FF0000D8518828519831254CD8A828B83A3A3E1
:10400000A3E0F9851082851183124539122A46E909
:10401000F509600302412D7402121887124837F522
:10402000097809121AC2E4F512F5137812121ABEB1
:104030007512ED7513027812121ABE9002EE121A62
:10404000D57407121887121AD5EEF9AC0EAD0F858C
:104050001082851183124539122BC674091218512A
:10406000E9F509600302412DE508703FE4F50EF51E
:104070000F780E121ABE7CFF7DFF790985108285AC
:104080001183124539122B30740212185112485DF7
:10409000700D740412188712416479110241619005
:1040A00002EDE024029002F1F080149002F1E0FAB7
:1040B0009002EDE0790024025001096A497072A86B
:1040C000089002EDE0FAE82AFAE43400FBEE9AEFF9
:1040D0009B405A851682851783E0C0E09002F21259
:1040E0003F13D0E0F00508851682851783A3E0C052
:1040F000E0089002F2123F13D0E0F005089002EDC4
:104100001254D1121ABE1254CAA808124804123509
:104110006E74021218519002EDE02508F50874FF44
:10412000650C700474FF650D6003023F7CE5086058
:104130001F9002F1E0F5F0E5088412418112279406
:10414000E960099002F21245391235F279008011C6
:10415000E509700375090A7404121887124164A9ED
:10416000090247FA12499FE50CF0A3E50DF022A3DE
:10417000A312575CAA0CAB0D22A3A3EAF0A3EBF0A9
:10418000229002F0F07CF07D02851082851183126E
:10419000453D2274EC1218AB74FC12183B124CA073
:1041A00074021218A1124533122A5E8A0C8B0DEA92
:1041B000450D700302426B12427BA818A9198810A2
:1041C00089117810121ABE7CFF7DFF790B85088259
:1041D000850983124539122B30740212185112438B
:1041E00071700C850A82850B8312486E0242788EAC
:1041F000828F83A3A3A3A3E0F5127812121AC2E45C
:10420000F512F5137812121ABE7512F075130278B2
:1042100012121ABE7810121ABE7409121887121AD6
:10422000D57409121887E0F9AC0CAD0D85088285AC
:104230000983124539122BC67409121851E9FE7010
:10424000157CF07D02850882850983124539122785
:104250009AE97009802074166E70027E009002F157
:104260001245391235F2EE7004800B7E01850A8208
:10427000850B83124B8DEEF9024BA2EE2402F5085A
:10428000E43FF5092274EC1218AB74FC12183BEAF7
:10429000FEEBFF8C0E8D0FEE2405F508E43FF509CB
:1042A00074021218A1850882850983124539122AE1
:1042B0005E8A0C8B0DEA450D7003024361EE240209
:1042C000F50AE43FF50BA818A91988108911781090
:1042D000121ABE7CFF7DFF790D124533122B30740C
:1042E00002121851124371700B85088285098312DE
:1042F000486E807A8E828F83A3A3A3A3E0F5127801
:1043000012121AC2850882850983A3A3121AD575D1
:1043100012F07513027812121ABE7810121ABE74B7
:1043200009121887121AD57409121887E0F9124574
:104330002F122BC67409121851E9FE700F7CF07D04
:10434000021245331227A0E97009802074166E709E
:10435000027E009002F11245391235F2EE700480AF
:104360000B7E01850882850983124B8DEEF9024B85
:10437000A2124578F510A3E0F511EA45112274E880
:104380001218AB74FE12183B8A168B178C148D15FD
:10439000EA2405F50CE43517F50DEA2402F50EE4E0
:1043A0003517F50F850E82F5831245391228728A6A
:1043B000088B09750B007C037D0079007AF07B0285
:1043C000123586750A00E50814F5100424FFF50877
:1043D000E50934FFF50980549002F0E0FA9002ED0F
:1043E000E0F8EA28F8E43400F9E50898E50999507E
:1043F0000D9002F0E0F8E510C3989002EDF0E0F5C2
:10440000127513007812121ABE1254CA9002F1E00B
:104410002AFAA3E03400FB12356E74021218519090
:1044200002EDE0F89002F0E028F0050A850C8285A4
:104430000D83A3A3124E4440030245149002F0E002
:10444000C39508E495094003024514AE0AEE2EFE1A
:10445000E433FF124553AC18AD191254E5E439FBAF
:10446000122A5E8A128B13AC12AD13EC4D701B75C1
:104470000B01124543124B919002F1123A906003E6
:104480001235F2A90B74020247FC85168285178348
:10449000A3A3A3A3E0F50B780B121AC2E4F512F55F
:1044A000137812121ABE7512ED7513027812121AD1
:1044B000BE9002EE121AD57407121887121AD5A9E7
:1044C00010850E82850F83124539122BC67409128E
:1044D0001851E9F50B709B9002F1124568600302D8
:1044E00043D8E4F512F5137812121ABE7CFF7DFF53
:1044F000790F850E82850F83124539122B30740295
:1045000012185112456E60030243D81245431248F7
:10451000720244857CF07D02850E82850F831245F0
:10452000391227A6E960030244787900024485AC79
:104530000CAD0D850A82850B8312453D22E0FAA35E
:10454000E0FB22124553E0FAA3E0F9EA85148285E4
:10455000158322850C82850D83E02EF8A3E03FF9B8
:1045600088828983229002EE12566BE84922124516
:1045700078F8A3E0F9E849229002F1EAF0A3EBF021
:104580009002F1E02274E81218AB74FA12183B742E
:104590000412188712417B8C168D17740412188729
:1045A000E02405F50EA3E03400F50F74041218871B
:1045B000E024021248101245391228728A0A8B0B25
:1045C0007F007E00A818A919880889097808121A9E
:1045D000BE850E82850F83A3A3A3A3E0F5088E09F1
:1045E0007808121ABEE50E2405F508E4350FF50922
:1045F0007808121ABE850E82850F83A3A312484045
:10460000122A5874061218518A0C8B0D80291248F0
:1046100031F00F124831F00F9002ED124B7C121A5C
:10462000BE1254CAEFF812480412356E7402121802
:10463000519002EDE02FFFE50C450D70030246C0DE
:10464000851882851983124CB2A3A3A3E0F98514BF
:1046500082851583124539122A46E9FEE50C2404A9
:10466000F510E4350DF511EE705074041218871230
:104670004837F5087808121AC2E4F508F5097808F1
:10468000121ABE7508ED7509027808121ABE90025A
:10469000EE121AD57407121887121AD5E50A24FAF1
:1046A000F9AC0CAD0D851482851583124539122B9A
:1046B000C67409121851E9FE603912484D124B9028
:1046C000EF70030247E79002F1E0F5F0EF8490020B
:1046D000F0F07CF07D028514828515831245391235
:1046E00027ACE960099002F21245391235F27900DF
:1046F0000247FA8F08EF703BE4F512F513781212B7
:104700001ABE7CFF7DFF79118514828515831245C1
:1047100039122B30740212185112485D7009124878
:104720004D1248710247FA9002EDE024049002F124
:10473000F080359002EDE0F89002F1E0FAE8240410
:10474000FCE43400FDEC6A4D60030246C6E50A2431
:10475000FAFAE50B34FFFBE50828F8E43400F9EA3F
:1047600098EB9950030246C6851082851183E0C0FC
:10477000E09002F2E02FF8A3E034008882F583D0C5
:10478000E0F00F851082851183A3E0C0E012481E7F
:10479000D0E0F00F74021218918808890978081285
:1047A0001ABE7402121887121AD5850E82850F83DD
:1047B00012416F122A6474041218518A0C8B0DEA8C
:1047C000450D700302460E7402121887E0C0E01215
:1047D000481ED0E0F00F7402121887A3E0C0E01268
:1047E000481ED0E0024616EE70027E0A850E8285D3
:1047F0000F83124853124B90EEF974061218517F32
:104800001002197D9002F2E028FAA3E03400FB22A6
:10481000F514A3E03400F515851482F583221248BF
:1048200022229002F2E02FFAA3E034008A82F5837C
:104830002212482274FF2212499FA3A3A3A3E022BD
:1048400012575C850E82850F8312453D22851082AA
:1048500085118312566B851682851783229002F28A
:10486000EAF0A3EBF09002F212566BE84922124BE9
:1048700096E8F0A3E9F079112274EA1218AB74FEFD
:1048800012183B8A088B098C128D13EA2405FEE46A
:104890003509FFAC18AD198E828F83124539122A63
:1048A0005E8A0C8B0DEE2406F50EE43FF50FEA450B
:1048B0000D7003024971E5082402F50AE43509F593
:1048C0000B8A828B83A3A3A3E0A2E55028851882DC
:1048D000851983124539122BBA8A108B11EA4511BA
:1048E0006020791212452F8510828511831218A934
:1048F000E9F50C707F850E82850F83E0600979529F
:104900008011750C0E806D850882850983A3A3A391
:10491000A3E0F9E4F508F5097808121ABE8E828F33
:1049200083A3A3E0F5087808121ABE8E828F83A3B2
:10493000A3A3121AD58E828F831254CD124533123F
:104940002BCC7406121851E9F50C7011850E828576
:104950000F83E0702D1245331227B280257416653F
:104960000C7011750C00741812188712499BE480A2
:1049700010750C01125663851282851383E8F0A32B
:10498000E9F0850E82850F83E0600479008002A93A
:104990000C74021218517F0E02197D12499F22E0F9
:1049A000F8A3E0F58388822274EC1218AB74F71236
:1049B000183B8A0A8B0B8C108D11EA2405FEE43516
:1049C0000BFF750C00AC18AD198E828F8312453920
:1049D000122A5E8A088B09EA45097003024B67E5D3
:1049E0000A2402F50A5002050B8A828B83A3A3A333
:1049F000E0A2E5502F851882851983124539122BC4
:104A0000BA8A0C8B0DEA450D604F7912AC08AD09DE
:104A1000124533850C82850D831218A9E9F50C60C7
:104A200003024B6A850A82850B83E0F508A3E0F553
:104A300009AA08FB122BAEEA4B70197AFF7BFF1212
:104A40002BAEEA4B7003024B5D8A828B83E508F044
:104A5000A3E509F07508008008750C0E024B6A0585
:104A6000089002EAE0F8E508C3984003024B5D8530
:104A7000080E750F007403780E1218288A828B8333
:104A8000A3A3E0250EF8A3E0350F124F3170D08EAE
:104A9000828F83124B8512417B8E828F83A3A31258
:104AA0004B85124179EE2404F508E43FF5098508A9
:104AB00082F583E088828983A3A3A3A3F0A3E4F013
:104AC000EE2405F50EE43FF50F850E82F583124BBB
:104AD00085A3A3A3A3124179751207751300781259
:104AE000121ABEEEFCEFFD740412189912356E74A2
:104AF00002121851E4F5127812121ABE8508828546
:104B00000983E0FC7D007917124533122B307402C3
:104B1000121851740712188712417B7407121887F4
:104B2000E0FA4B603D850882850983124B7C121A9E
:104B3000BE850E82850F831254CD12356E7402121B
:104B4000185174021218A11245331227B8E96026D1
:104B500074071218871245391235F28019750C093D
:104B60008008750C118003750C0112566385108244
:104B7000851183124B90A90C74098028E0F5087503
:104B8000090078082212453D8882898322124B96BB
:104B9000E8F0A3E9F022E0F8A3E0F9850E82850FA2
:104BA000832274041218517F0C02197D74EC1218C0
:104BB000AB124CA0751000EE2402F50CE43FF50D8D
:104BC000850C82F583124539122BAE8A088B09EACF
:104BD00045097003024C84850A82850B83E06401D9
:104BE0006003024C79AC08AD09AA0AAB0B122BA2E8
:104BF000E9606E850882850983123F06EE2406F57A
:104C00000AE43FF50B8E828F83A3A3121AD58E82FE
:104C10008F83A3A3A3A3121AD5850A82850B8312BF
:104C20001AD579188E828F83124CB2124539122B05
:104C3000CC7406121851E9F8741668700B850A8254
:104C4000850B83E4F0A38014E860128E828F8312B8
:104C50004539850E82850F83EAF0A3EBF08810803A
:104C600018780E121ABEAC08AD09EEFAEFFB122B43
:104C7000A87402121851E9F510AA08AB09122BB456
:104C8000E510700E850C82850D831245391227BE02
:104C90008009741665107003751000A910024BA7E7
:104CA000EAFEEBFF8C0E8D0FEE2405F50AE43FF5CE
:104CB0000B2212575C850C82850D832274EA121830
:104CC000AB7508007509007E007F00750A00EC24B2
:104CD00002F510E43DF5118035EC65087003ED65D3
:104CE000096003024D7188828983A3A3E06A70037F
:104CF000A3E06B707C88828983A3A3A3A312566769
:104D0000EE28FEEF39FFEA28FAEB39FB050A124ECE
:104D100041503A850A0C750D007403780C1218285E
:104D2000851082851183124E34124F31601FE508C1
:104D3000450970A58C088D0988828983123F0488F3
:104D4000828983A3A3E02EFAA3E03F80BEE50AC3D5
:104D500094025003024E2F750800750900EE4F6053
:104D600010EEFAEFFB1235EC8A0E8B0FEA450F704E
:104D7000057900024E31750B00024E04850B0C754F
:104D80000D007403780C121828851082851183E0B9
:104D9000250CF50CA3E0350DF50DE50C2406F514F6
:104DA000E4350DF515851482F583124F366042E522
:104DB0000C2404F512E4350DF513851282F58312E7
:104DC0001AD5E50E2508FAE50F3509FB12356E7484
:104DD00002121851851282851383E02508F508A375
:104DE000E03509F509851482851583124539123598
:104DF000F2E50B600D7C087D007900AA0CAB0D126A
:104E00003586050BE50BC3950A5003024D7C8510D2
:104E10008285118312566788828983A3A3A3A3A3E3
:104E2000A3E50EF0A3E50F123A97EEF0A3EFF079A9
:104E300001024996124E3822E0250CF8A3E0350D08
:104E4000229002EAE0F8E50AC3982274F01218AB47
:104E50008A0E8B0F8C0A8D0B750D00750C0080501F
:104E60007916EE2406F508E43FF5098E828F83A3B8
:104E7000A3121AD58E828F83A3A3A3A3121AD5855A
:104E80000882850983121AD5850E82850F83A3A314
:104E9000124539122BCC7406121851E9F50D74160F
:104EA000650D706C850882850983E4F0A3F0050C1C
:104EB0009002EAE0F8E50CC3985066AA0C8A0875DF
:104EC000090074037808121828850A82850B83A3C9
:104ED000A3124F80E8FEE9FF8E828F83124F366067
:104EE00040EA2401F508E43400F5099002EAE0659F
:104EF000087002E509601488828983A3A3A3A3A391
:104F0000A3A3A31245686003024E607918024E62A3
:104F1000E9609B1256637410121887124F28124BC7
:104F200090A90D7F0802197DE0FAA3E0F5838A823B
:104F300022F98882898312575CEC4D2274F612188C
:104F4000AB7C0080010C900347E0F8ECC398501E46
:104F50008C0875090074027808121828124F75E041
:104F60006A7003A3E06B70DDE8FAE9FB80047A0065
:104F70007B000250189002E8124F808882898322B9
:104F8000E02508F8A3E03509F92274F21218AB8A7B
:104F9000088B09750A0080278E828F83A3A3A3A3A1
:104FA000123A8E60031235F27C087D007900EEFA29
:104FB000EFFB1235868E828F83E4F0A3F0050A1290
:104FC0004E415027850A0C750D007403780C121899
:104FD00028850882850983A3A3E0250CFEA3E0357C
:104FE0000DFF8E828F8312456870AD85088285091A
:104FF0008374FFF0A3F002575074F61218AB122B13
:10500000608A828B83E582458370067A007B00800C
:1050100007A3A3A3A31245397F0202197D74F412DA
:1050200018AB89088C828D83E06402703C125606AE
:10503000FEA3E0F9EEF87402687003742969702920
:10504000750A02750B00780A121ABE7410121887BE
:10505000121AD57410121887121AD5A90812348A98
:105060007406121851E9F980027901023ACB74E80A
:105070001218AB74FB12183BE9851882851983F06E
:105080008A168B17ECFEEDFF7510008E828F83A3BE
:10509000A3A3E0A2E4502D741D1218871245391203
:1050A0002BBA8A828B83E582458370030254A579EB
:1050B0000AEEFCEFFDAA16AB171218A9E9F510606D
:1050C000030254A8741F121887E0F508A3E0F5093D
:1050D0007421121887E0F50AA3E0F50B7423121867
:1050E00087E0F50EA3E0F50F8E828F83E064026007
:1050F00003025446A3125667850882850983A38557
:105100008212858313EE2406F50CE43FF50D8882A8
:1051100089831254E5F514E439F5157814121B4807
:105120000100002801284851070002280D520328D9
:105130007B5100293C530129675302290853032955
:105140003C530429E0534654E50E450F60030254D6
:1051500041850C82850D83125667E8FAE9FB8A8245
:105160008B83E0850A82850B831254F0121ABE8A63
:10517000828B83A3E0FCA3E00253CAE50E450F60D7
:1051800003025441850A82850B837401F01254DABC
:10519000850882850983F07C007D008E828F83A341
:1051A000A3A3A3E02401FAA3E03400FB122A5EEAE1
:1051B0004B60408A828B83E02402F8850A82850B4B
:1051C00083E028F0EA2404F8E43BF988828983E04C
:1051D0008512828513831254FE1254F0121ABE8A6D
:1051E000828B83A31254CDE5082403FAE43509FB2E
:1051F0000253CF850A82850B83E02404F07C047D72
:10520000007900AA12AB131235860254A8E50E45A8
:105210000F60030254411254DAFEA3E0FF850A82B4
:10522000850B837404F0EE850882850983F0EF8591
:105230001282851383F074031218A1EEFAEFFB12A9
:105240002A5E8A0C8B0DEA450D70030252EB8A82AE
:105250008B83A3A3123F047401121891880E890F47
:10526000780E121ABE7405121887121AD57CFF7DAB
:10527000FF122A6474041218518B0FEA450F703321
:10528000850C82850D831254D1121ABE850C82853D
:105290000D83A3121AD57C027D007A777B821228B7
:1052A000607404121851E9700A740112188774FFAF
:1052B000F0A3F08E828F83E064027039750C027562
:1052C0000D00780C121ABE8E828F83A31254CDE586
:1052D000082404FAE43509FB12356E7402121851E1
:1052E000850A82850B83E0240280097401121887E5
:1052F000EEF0A3EFF074011218871254BF7401127C
:1053000018871254B602543BE50E450F6003025451
:1053100041850C82850D83125755AA16AB1712349E
:1053200090850A82850B837402F085088285098343
:10533000EAF0851282851383EB02543EE50E450F99
:1053400060030254411254DAF8A3E0F9850A828519
:105350000B837402F0E8850882850983F0E98512E1
:105360008285138302543E850C82850D8312453954
:10537000123568EAFAF8C3950EE4950F405CE865CB
:105380000E450F70047A008021851882851983E00C
:10539000FCE50E2CFCE4350FFDC3EC98ED940050B9
:1053A00003E08005E50ECAC39AFAEA850A82850BF6
:1053B00083F08A0A750B00780A121ABE850C828562
:1053C0000D83E0250EFCA3E0350FFDAA08AB091202
:1053D000356E74021218510254A87510070254A8B1
:1053E000E50E450F705B850C82850D83125667852F
:1053F0000A82850B837407F0888289831254B7125E
:1054000054AFE0851282851383F0E82402FAE43970
:10541000FB8A828B831254BF8A828B831254B6A379
:10542000A3123A961254C4F0E82405F850010988F2
:105430008289831254C4A31254FEA3A3A3A3F080B1
:105440006775100B8062741D121887124539122B74
:10545000608A828B83E5824583604A125667880C96
:10546000890DE8450D603E7425121887E0F5107827
:1054700010121AC2780E121ABE780A121ABE7808D2
:10548000121ABE7407121887E0F9EEFCEFFDAA1697
:10549000AB17850C82850D831218A9740712185159
:1054A000E9F510800375100EA91074050247FCF091
:1054B00088828983A322A3E085088285098322123A
:1054C0005505F022125505A3A3229002EE12575C57
:1054D00022E0F50E750F00780E22850C82850D8373
:1054E00012499FE022E0FAA3E0F8E4C8F9EA282292
:1054F000F08A828B83E0F50A750B00780A22125439
:10550000AF12550522E0850882850983A3A3227482
:10551000EE1218AB74FE12183B8A088B09ECFEEDF4
:10552000FF890AAC18AD19EEFAEFFB122A5E8A0C5D
:105530008B0DEA450D70030255F785188285198396
:10554000124539122B608A828B83E5824583700372
:105550000255F2A3A3125667880E890FE8450F7013
:10556000030255F27414121887E0F510A3E0F51148
:10557000E50AF50B780B121AC27419121887121A61
:10558000D57810121ABE741B121887E0F9AC0CAD56
:105590000DAA08AB09850E82850F831218A9740520
:1055A000121851E9F50B705274FE650A604C850CB7
:1055B00082850D83E064027041125606FAA3E0F979
:1055C000EAF87402687003742969702E8510828568
:1055D00011831254E5F50CE439F50D780C121ABE5E
:1055E000EEFCEFFDAA08AB09122BE474021218516D
:1055F0008008750B0E8003750B01A90B740212183D
:10560000517F0A02197DA312566B88828983E0229A
:1056100074F61218AB74FE12183B740C1218871231
:105620005667E8851882851983F07401121887E996
:10563000F0E4F508F5097808121ABE750802780832
:10564000121ABE7404121891880889097808121A6F
:10565000BE79FE122BCC7406121851740212185126
:105660000250188E828F8312566B22E0F8A3E0F965
:105670002274F71218ABEAFEEBFF890890030512BB
:1056800054CD123490EA5402600BA908EEFAEFFBF5
:10569000122A52800279017F0102197D74F21218D8
:1056A000AB74FE12183BEAFEEBFF890A7401650A2F
:1056B00060147402650A600302574B7901122DEEE3
:1056C000E9600302574BEEFAEFFB122BAEEA4B6098
:1056D00003122BB4A818A919880889097808121A86
:1056E000BE7508027509007808121ABE75086F7534
:1056F00009827808121ABE7CFF7DFF7A017B0012B6
:105700002A5874061218518038850882850983A3A7
:10571000A3A3A3A3A3125755EEFAEFFB123478E428
:10572000F50CF50D780C121ABE7402121887121AB5
:10573000D57CFF7DFFAA08AB09122A6474041218F5
:10574000518A088B09E508450970BE740212185188
:105750007F0602197D12499F12575C22E0FCA3E0EC
:10576000FD2274F41218AB8A088B09ECFEEDFF9051
:10577000178BE0F4604B7A097B00123592EA4B609C
:10578000408A828B8374B1F0A3E41257C4F08A82FA
:105790008B83A3A3E508F0A3E5091257C4A3EEF099
:1057A000A3EFF0740C1218871256678A828B83A3BA
:1057B000A3A3A3A3A3A3124B9090178BE0F91235D8
:1057C0009E023ACBF08A828B83A3A3A3A32274F018
:1057D0001218AB74FA12183B8909ECFEEDFF75083C
:1057E000008A0A8B0B780A121B02000410F459116C
:1057F000582F58495861587F589758BA58D258E688
:105800005810598B599C59B359CE59F459F459260B
:10581000597401650960030259EF8E828F83E0F8A5
:10582000C3940340030259EFE89018770259CB74F0
:1058300002650960030259EF8E828F8312616390C3
:105840001878E8F0A3E90259CB74016509600302F6
:1058500059EF125A1C40030259EFE89007480259C9
:10586000CB7401650960030259EF8E828F83E0F8E3
:10587000C3940540030259EFE89007490259CB74DD
:1058800001650960030259EF125A1C40030259EFE7
:10589000E890074A0259CB7410650960030259EF7A
:1058A000750A10750B00780A121ABE7A4B7B071224
:1058B000356E7402121851025A157401650960039D
:1058C0000259EF125A1C40030259EFE890075B029D
:1058D00059CB7401650960030259EF8E828F83E012
:1058E00090187B0259CB7404650960030259EF8E4E
:1058F000828F83780C1216FF908235780C120D532C
:1059000050030259EF90075D780C12170E025A15DA
:10591000E960030259EF1229F8E9700512343C805E
:10592000559007F080617407650960030259EF75AF
:105930000A06750B00780A121ABE8E828F83A3ACFA
:1059400082AD8374021218991235747402121851C0
:105950007C007D00AA18AB198E828F83E0F9123388
:10596000E8E9FEC3940A4003025A121229F8E970CA
:105970000CEEF912344279501236AC806D74F12E6F
:10598000F582E43407F58374018040740165097081
:105990005E125A1C5059E890075C802F740165090B
:1059A000704D8E828F83E0F8C3940A5042E89018BD
:1059B0007A80187401650970368E828F83E0F874DE
:1059C000F928C3940A5028E890187CF080477401A5
:1059D0006509701B9007EFE0F88E828F83E09007D7
:1059E000EFF0E87030E06401702B123430802675DF
:1059F00008188021C3EA9427EB94005015740265BF
:105A000009700F8E828F83126C32122878E9F508A4
:105A10008003750802A9087406025D428E828F8396
:105A2000E0F8C3940222A9088005740E1218517F71
:105A30000402197D74F01218AB74B112183B8C0A71
:105A40008D0B9081C874201218A1740612174E7421
:105A5000201218A11233E8E9FF745F121887E0F5ED
:105A600009EFC3940A4003025BB675F006EFA4F594
:105A70000874411218A17A0E74202508F91236A66E
:105A8000E97009744D121887E0FE80027E009018BC
:105A900077E064027005750E018003750E007408CE
:105AA000650970047422800274212508F50D7C1BA1
:105AB0007D00790074261218991235867426121802
:105AC000A17A1BA90D1236A6E9702D744012188711
:105AD000E024F9C3940A5020E50EF50D780D121A52
:105AE000C274271218A1EEA2E0E433F9AA0AAB0BA4
:105AF00012291A74011218517C147D007900740C5B
:105B0000121899123586740C1218A17A1074242573
:105B100008F91236A6E970347C1079FF740C12185B
:105B2000991235E6E97025741C121887AC82AD8392
:105B30007A0474252508F91236A6740C1218A1EE01
:105B4000A2E0E433F9AA0AAB0B122902AC18AD1992
:105B50007A0C74702FF91236A6E97049AA18AB199D
:105B60001234187F00EF75F003A4F8A9F0851882AD
:105B7000851983E58228F8E5831263061264E860DC
:105B80001D88828983A3A3E0F50E750F00780E129D
:105B90001ABEAA0AAB0B122BD274021218510FEFC5
:105BA000C3940440C0EEA2E1500C900747E0F9AA6C
:105BB0000AAB0B122BD8740465097028901877E093
:105BC000640270207A0090075BE060027A0190071F
:105BD00048E06004780480027800E84AF9AA0AAB39
:105BE0000B1229CE7900744F025D4274F71218AB84
:105BF0001229F8E9704F9007F0E064017015123433
:105C00003C9007F0E4F07C0AFDF97AF17B0712354D
:105C100086802A750800A80874F128FEE43407FF7E
:105C20008E828F83E06401700BA9081234428E8249
:105C30008F83E4F00508E508C3940A40D97950122F
:105C400036AC12343002662574F01218AB74F012C0
:105C5000183BEAFEEBFF8C088D09750A0AE9600C17
:105C600014600914603B14607D025D3E12342AE921
:105C7000F50AC3940A4003025D3EE5084509700336
:105C8000025D3E750C06750D00780C121ABEEEFC16
:105C9000EFFDAA08AB0912356E7402121851025DAD
:105CA0003E750C00750E06750F00780E121ABEEECA
:105CB000FCEFFDE50C75F00EA4F8A9F0746928FA64
:105CC000740739FB1235807402121851E9700B0504
:105CD0000CE50CC3940A506680CA850C0AE50AC319
:105CE000940A505A8049750C00AC18AD197A107599
:105CF000F006E50CA42423F91236A6E9701C7C10EA
:105D000079FFAA18AB191235E6E9700EEEFCEFFD2B
:105D1000AA18AB191228DEE9600B050CE50CC39438
:105D20000A501B80C4850C0AE50AC3940A500FE58B
:105D30000845096009AA08AB09A90A123424A90A6E
:105D400074101218517F0802197D74F41218AB896F
:105D50000975081574FF6A700374FF6B70277E0065
:105D6000AC097A027B00EEF9123406E9600375088B
:105D7000000EEEC3940A40E8E50960537A547B3480
:105D8000122E12804A122DE28A0A8B0BAE0AAF0B3A
:105D9000EE4F60387C007D00EE2405FAE43FFB8E78
:105DA000828F83A3A3A3A3E0F91233E8E9F9C39494
:105DB0000A500CAC097A027B00123406750800E523
:105DC00009600CEEFAEFFB123454800375081402DC
:105DD0005A2674F21218ABECFEEDFF750815740E1E
:105DE000121887E0F50AA3E0F50B74FF6A700374DC
:105DF000FF6B7021750900AC0AAD0BEEFAEFFBA941
:105E00000912340CE960037508000509E509C3941B
:105E10000A503F80E2122DE28A828B83E58245831D
:105E2000602D7C007D00E5822405FAE43583FBA328
:105E3000A3A3A3E0F91233E8E9F9C3940A5013AC21
:105E40000AAD0BEEFAEFFB12340C750800800375F7
:105E50000814A9087F0602197DC082C083900761DB
:105E6000EAF0A3EBF0900747E0FC7D007A267B0088
:105E7000122878900747E0F9122B3C02693F74EE34
:105E80001218AB74EC12183B8A088B09EA240CF543
:105E900010E43509F5118A828B83A385820C8583F2
:105EA0000DEA2405F50EE43509F50FEA2409F50A93
:105EB000E43509F50BEA2403FEE43509FF8A828BF9
:105EC00083A3A3E024FA700302614224FD7003025D
:105ED0006062147003025F5C14601024FD700302A2
:105EE000604514700302609A026148126C38604485
:105EF000E0F5838882126163880C890DE8450D60A6
:105F000033851082851183E0F50E780E121AC2EAED
:105F1000240BF582E43509F583E0F9126C2C0A0AAA
:105F20000AEFFB850C82850D831218A974011218E3
:105F300051026148850A82850B83121AD590075D4C
:105F400012171D1229147402121851E9700302610C
:105F5000487901850A82850B83026112750A0085E2
:105F60000C82850D83E06003026012850E82850F2E
:105F700083E0A2E040030260129007FB126C3B60DA
:105F8000030260127C0E7D007900AA18AB1912354D
:105F90008685108285118312690AEA4B6010750AA2
:105FA00006750B00780A121ABEEA2410801B1269CB
:105FB00006122DE2EA4B7003026148750A06750B62
:105FC00000780A121ABEEA2405FCE43BFD740212B2
:105FD000189912356E7402121851850E82850F833E
:105FE000E0A2E25004D2F08002C2F0A2F0E433F862
:105FF000740C121887126ABA12341EE970117A02F0
:106000007B00900747E0F91235C2790002614A75BA
:106010000A15126C3870030261481261697003023C
:106020006148850C82850D83E0FC79011261541270
:1060300018A9E50A7003026148FC79031269061287
:1060400068C102613D126C387003026148126169D7
:106050007003026148850C82850D83E0FC790202A1
:10606000613A7C007D00EA2404FAE43509FB8E8263
:106070008F83E0F91233E8E9F8C3940A4003026120
:1060800048E508240AFCE43509FD7A0475F006E8C1
:10609000A42425F91236A002614812690690075C13
:1060A000E0600790187AE0F9806B901877E0700450
:1060B00079058061122DE28A0C8B0DA80CA90DE8E0
:1060C000497003026148E82404F50CE439F50D85B4
:1060D0000882850983A3A3A3A3A3A3A3E0A2E050FE
:1060E00039850C82850D83E0F508602E850A82854E
:1060F0000B83A3E054027022740E1218A1E8240549
:10610000FAE439FBA9081233E8E9700E79038E82AC
:106110008F8312690A12290E802EAC0EAD0F850CEA
:1061200082850D83E0F9126906123460126C3860C2
:106130001712616960127C0079001261541218A96B
:1061400080061269061233E2790174141218517F25
:106150000A02197D8E828F83E0FAA3E0FB88828594
:10616000098322E0F8A3E0F9221268CFF98909E84F
:1061700045092274F41218AB74F212183BEAFE8C33
:106180000B75F006E9A42420F508AC18AD197A0EB9
:10619000F91236A6E970487C0679FFAA18AB1912E5
:1061A00035E6E9703A740C121887126163E8F50954
:1061B000E50B6005EE42098004EEF45209AA09E8F5
:1061C0006A7001E96015740C121887EAF0A3E4F014
:1061D000AC18AD197A0EA9081236A079018002799F
:1061E00000025A2A74F21218AB74E612183B890A9C
:1061F0008A088B09ECFEEDFF740C1218A17A0E755B
:10620000F006E9A42420F91236A6E960030262C967
:106210007C0679FF740C1218991235E6E9600302C6
:1062200062C97470250AF50BAC18AD197A0CF91215
:1062300036A6E960030262C5AA18AB19123418E544
:10624000084509701D7C0C7900AA18AB191235E6B7
:10625000E970727C0C7D007900AA18AB19123586A2
:106260008051AC18AD19AA08AB091234128A0C8BF4
:106270000DA80CA90DE8497022EE4F604CAC18AD8A
:10628000197A007B00123412EAF8EBF9EA4B603914
:1062900088828983E508F0A3E509F0126342FAEEEB
:1062A0006A7001EF601FEEF04F700888828983E406
:1062B000F0A3F0AA18AB19123418AC18AD197A0C67
:1062C000A90B1236A0790180027900741A121851B4
:1062D000025E5474F71218AB7E00EE75F003A4F85A
