:020000040000FA
:060000000201070228BD09
:03002B00022CE7BD
:03003B00022D0192
:03004300022CC1CB
:030053000229334C
:10008300022713E5C754F84401F5C779012200009C
:100093000080FB120086B900030200F1E4792178A5
:1000A30008B800028004F709D8FCE479297802B87B
:1000B30000028004F709D8FCE49002817820791AC1
:1000C3008002F0A3D8FCD9FA7AA07B1B9001377881
:1000D3003179028015E493A3AD82AE838A828B8348
:1000E300F0A3AA82AB838D828E83D8E9D9E7758288
:1000F300A87583DB740412011975829175830074EA
:100103000012011975D00075813F751881751902A8
:10011300759F00020096C09FF59FE473D09F22D085
:1001230083D082C09FE493C0E0740193C0E0740263
:1001330093F59F22590465049B049504FF0000B4C2
:10014300000028002800283075A000A000A000A00F
:100153000000080008E001F000100010001000107B
:10016300001000100050005000500010001000D08C
:10017300070000000000000F0001000500307507B4
:10018300001000010081FF00000000FFFFFFF705E2
:100193001506FD055706FF02020208025000A000E3
:1001A3000000E803021B830100000C830215830196
:1001B3000000031C020F83010000C8020215830123
:1001C3000000041C021183010000DE0202158301FA
:1001D3000000051C021383010000E00202158301E5
:1001E3000000061C022383080000E10202158301BC
:1001F3000000071C021783010000081CFFFF010019
:10020300FF20021B830100005D82021583010000B1
:100213006D1C0219830000000000026E82030000BF
:1002230011031700191119111911191119111911A4
:100233001911191119111911191119111911591329
:10024300771353139D14AF149714544920424C450C
:1002530020416C6C00000000000000000000001151
:1002630000FFFF0012012214BC0412012227BC0468
:1002730012012281BC04120122A2BC041201220D2C
:10028300BD041201224EBD041201226FBD041201EE
:100293002290BD04120122E0BD0412012221BE04FA
:1002A300120122B9BE0412012201BF041201222C41
:1002B300BF0412012226FC0112012239FC011201A2
:1002C300226AFC01120122A4FC01120122FDFC019D
:1002D30012012244FD011201228CFD01120122BBF5
:1002E300FD01120122EAFD0112012221FE01120188
:1002F3002268FE0112012281FE01120122D6FE01B3
:10030300120122EFFE011201223DFF0112012277A9
:10031300FF01120122F5F302120122F8F402120185
:100323002225F5021201226AF50212012276F50254
:1003330012012299F5021201229BF502120122D029
:10034300F502120122D3F50212012211F602120163
:100353002247F602120122DEF6021201224AF702B6
:1003630012012212F8021201222EF8021201226552
:10037300F8021201229FF80212012236F902120139
:100383002288F902120122B9F902120122BCF902F0
:10039300120122EDF902120122FAF90212012212CC
:1003A300FA021201227CFA021201227FFA021201DE
:1003B300228CFA021201228FFA02120122E6FA02B9
:1003C300120122E9FA021201220CFB021201221F7E
:1003D300FB0212012258FB021201225BFB021201F3
:1003E3002270FB0212012273FB02120122D5FB02CF
:1003F300120122D8FB021201222CFC021201222F2D
:10040300FC02120122C2FC02120122D2FC021201DE
:100413002205FD0212012212FD0212012215FD0224
:100423001201227DFD021201228AFD021201228C99
:10043300FE0212012230FF0212012299FF02120171
:1004430022D7FF0212012238D80312012230D90326
:1004530012012264D903120122FAD903120122459F
:10046300DA03120122A9DA0312012233DB03120198
:1004730022ECDB031201220EDF031201228BE003C5
:10048300120122AEE00312012275AC041201221AFA
:10049300AE041201223AAE041201225BAF04120130
:1004A30022AEAF04120122A08504120122C88504E2
:1004B300120122F585041201222D86041201228BDA
:1004C3008604120122E987041201223588041201ED
:1004D300229C8804120122DC880412012219890457
:1004E300120122478904120122F18904120122FB1D
:1004F3008904120122088A041201223B8A04120190
:1005030022478A041201225F8A04120122698A04A3
:10051300120122C6D804120122D4D804120122ECFB
:10052300D80412012204D9041201221BD904120196
:1005330022ECE90112012296EA01120122A9EB0140
:1005430012012225EC0112012243ED011201227F47
:10055300ED0112012214EE01120122AFEE0112018C
:100563002293EF0112012256F001120122CEF00173
:100573001201225CF201120122CDF2011201228743
:10058300F30112012279F401120122B9F4011201DB
:10059300226DF5011201229FF50112012295F70147
:1005A300120122DCF701120122FAF7011201226083
:1005B300F8011201222FF901120122F3F9011201AC
:1005C3002212FC011201221CFC01120122C2AF0300
:1005D300120122ACB00312012257B103120122A16E
:1005E300B1031201223EB20312012257B2031201D8
:1005F3002271B20312012221B30312012292B30327
:1006030012012277B403120122ABB403120122A414
:10061300B503120122E1B503120122A2B6031201AE
:100623002206B70312012270B703120122A2B703F5
:100633001201220AB80312012294B903120122D330
:10064300B903120122EFB903120122B1CF0412013F
:100653002235D00412012260D0041201227AD1047F
:10066300120122C0B404120122D6B404120122F4EE
:10067300B40412012205B6041201220FB6041201BA
:10068300223AB70412012231B8041201229EB8049F
:10069300120122A8B804120122008004120122369A
:1006A30081041201226D8104120122C4810412010A
:1006B30022D9830412012237CE01120122E8CE018E
:1006C300120122F8CE0112012254CF01120122EAB3
:1006D300CF01120122ABD001120122E0D00112019D
:1006E3002215D1011201222CD101120122A5D1011F
:1006F300120122AFD101120122C1D101120122F54F
:10070300D10112012252D201120122A5D2011201FA
:1007130022FAD20112012205D30112012210D301C0
:100723001201222BD4011201222ED40112012231F3
:10073300D40112012234D40112012237D40112014F
:10074300220DD501120122EAD50112012247D60159
:10075300120122A4D6011201221FD7011201222D58
:10076300D801120122E4D801120122F2DB011201A5
:1007730022E1DD0112012293DE011201225CDF017D
:10078300120122A1E2011201224BE30112012274A0
:10079300E40112012230E601120122D0E601120126
:1007A3002223E70112012262E70112012235E80147
:1007B30012012269E801120122F6E801120122481E
:1007C300AA02120122D4AA0212012238AC02120197
:1007D3002244AC021201227FAC02120122F6AC02C7
:1007E300120122FFAD02120122C6AE021201222320
:1007F300B00212012241B0021201225EB0021201C4
:10080300220BB10212012288B102120122B0B102FD
:100813001201227AB4021201227FB4021201229839
:10082300B602120122E6B60212012256B7021201E3
:100833002294B70212012270B80212012230B902C7
:100843001201227CB9021201227FB902120122C3D2
:10085300B9021201220BBA021201224ABA02120190
:10086300226CBA02120122A0BA0212012203BB02B5
:100873001201224795041201225095041201225EAF
:100883009504120122B19504120122D0950412019C
:1008930022159604120122599704120122F4970497
:1008A300120122389804120122629804120122D103
:1008B30098041201221799041201228E990412013D
:1008C300223F9A041201225A60001201226A600038
:1008D3001201220B6100120122676100120122241E
:1008E30062001201224063001201227263001201AE
:1008F30022A163001201224E6500120122C5670086
:10090300120122356A00120122276B0012012220F4
:100913006C00120122276E001201221B71001201CA
:10092300224A72001201224E74001201225E7500E7
:10093300120122ED7600120122DE77001201222C31
:1009430078001201229B7800120122BF7800120165
:1009530022107900120122B17D00120122C07E0013
:10096300120122867F00120122DBBB02120122E563
:10097300BB021201222ABC021201223EBC02120156
:100983002276BC02120122BFBC0212012200BD0268
:1009930012012243BD021201226DBD02120122F691
:1009A300BD02120122A1BE02120122D0BE02120117
:1009B3002209BF0212012244BF0212012279BF029F
:1009C300120122A3BF02120122CCBF021201221A7A
:1009D300C0021201222FC00212012244C0021201DE
:1009E3002259C00212012281C002120122C4C00294
:1009F300120122D9C00212012244C102120122585B
:100A0300C10212012277C1021201228BC10212011B
:100A130022A0C102120122B5C102120122C9C102E0
:100A23001201220DC20212012263C2021201229D8F
:100A3300C202120122C1C202120122EDC20212013C
:100A4300221BC30212012245C3021201225AC3020E
:100A53001201226FC3021201229FC302120122E973
:100A6300C3021201224BC40212012286C4021201E4
:100A730022B1C402120122DCC40212012247C502C0
:100A830012012284C502120122AFC502120122DF24
:100A9300C50212012216C60212012240C602120129
:100AA3002278C602120122A2C602120122DFC60266
:100AB30012012209C70212012239C702120122635D
:100AC300C7021201228DC702120122B8C702120106
:100AD30022E1C70212012232C80212012278C8029F
:100AE300120122A3C80212012203C9021201222EFB
:100AF300C9021201225EC902120122A1C902120116
:100B030022CBC902120122F0C90212012277CA02C2
:100B130012012259DC041201229AFE03120122005F
:100B23008003120122E380031201225E810312017A
:100B330022998103120122EA8203120122738303A1
:100B43001201228B85031201221D8803120122CF79
:100B53008803120122DB89031201224E8B03120147
:100B630022A78B03120122508C031201222490042A
:100B7300120122679004120122EB9004120122BE9B
:100B83009104120122959404120122B7A3041201C5
:100B93002264A40412012298A404120122AEA40424
:100BA300120122A1A504120122F3A5041201222A93
:100BB300A60412012269A604120122C3A60412018B
:100BC30022F0A6041201222CA7041201227EA704FC
:100BD300120122BFA704120122F0A70412012298D6
:100BE300CB04120122FBCB0412012298CC04120184
:100BF30022B9CC04120122FBCC041201222BCD0416
:100C03001201224CCD0412012287CD04120122A726
:100C1300CD04120122519A04120122DD9A04120119
:100C2300229C9B04120122B49C04120122CE9E0436
:100C3300120122888C03120122AD8C031201227A45
:100C43008D031201224E8E03120122BB8E03120169
:100C530022118F03120122AD8F03120122E19003AF
:100C6300120122BC91031201221B9203120122A73B
:100C73009203120122159303120122A1930312017D
:100C830022A49303120122C09303120122C39303EC
:100C9300120122E59303120122849403120122F626
:100CA300940312012288950312012229960312014B
:100CB30022499603120122919603120122DA960326
:100CC300120122F696031201221C970312012296A7
:100CD3009703120122A497031201223398031201EE
:100CE300229C980312012229A804120122AEA8040F
:100CF300120122F0A804120122D4A90412012241F4
:100D0300AA0412012285AA04120122C9AA0412010B
:100D130022F6AA041201221EAB0412012256AB04CE
:100D230012012294AB04120122BBAB04120122353F
:100D3300AC04120122288301120122218501120130
:100D4300220E88011201226288011201228D88017C
:100D5300120122668901120122A18901120122D105
:100D63008901120122E48901120122258A0112015B
:100D730022678A01120122768A01120122A38A01C3
:100D8300120122F18A01120122208B011201229009
:100D93008B01120122BE8B01120122F08B01120181
:100DA30022138C01120122B28C01120122E98C015F
:100DB3001201226C8D01120122CB8D0112012250EE
:100DC3008E01120122E790011201221D92011201EC
:100DD300228A9201120122029301120122EA940152
:100DE300120122269501120122A49601120122C5A5
:100DF30096011201220A970112012213980112018E
:100E030022FD9901120122809A01120122EF9A0117
:100E13001201222BA00112012283A00112012259E7
:100E2300A20112012256A3011201221BA5011201E4
:100E33002259A5011201225BA5011201225DA50120
:100E430012012262A50112012264A5011201220FDF
:100E5300A601120122DDA60112012205A70112013A
:100E63002230A7011201225BA70112012288A701E8
:100E7300120122ADA701120122CCA701120122F90E
:100E8300A7011201226FA801120122E9A801120190
:100E93002231A90112012253A9011201225EAA01E2
:100EA30012012224AB0112012255AB01120122B41B
:100EB300AB01120122D4AB01120122E1AC011201F8
:100EC300220AAD01120122B0AD011201223AAE0194
:100ED30012012265AE01120122ABAE01120122E41E
:100EE300AE0112012206AF0112012233AF0112013A
:100EF3002281B00112012292B00112012227C904FA
:100F030012012212CA0412012255CA04120122A498
:100F1300CA04120122F5CA0412012246CB041201AB
:100F23002299CE0312012212CF03120122CCD40341
:100F3300120122D7D50312012280D7031201220EF8
:100F4300D803120122B5B00112012236B1011201F8
:100F53002263B101120122A8B101120122BAB10127
:100F6300120122BBB20112012200B3011201222C91
:100F7300B3011201225DB301120122D9B40112019E
:100F8300225BB501120122AAB50112012215B60195
:100F9300120122C9B60112012266B701120122E130
:100FA300B7011201226BB801120122BEB80112016E
:100FB3002206BA0112012285BB0112012250BC0193
:100FC3001201225DBC01120122ADBC01120122BD3E
:100FD300BC01120122E1BC01120122E4BC01120195
:100FE30022CDBD01120122AFBE0112012251BF0168
:100FF300120122ECBF0112012213C001120122705F
:10100300C001120122C7C00112012215C101120140
:101013002263C101120122CCC1011201226CC2015F
:1010230012012208C30112012295C3011201220AEF
:10103300C4011201225AC401120122B9C4011201CE
:1010430022E0C4011201229AC501120122DDC50169
:10105300120122CEC70112012217C801120122492F
:10106300C801120122C0C8011201224ACA01120199
:1010730022FECA0112012223CB0112012262CB01FB
:1010830012012277CB01120122BACB011201222ACB
:10109300CC011201226BCC0112012280CD0112017D
:1010A3002201CE01120122A8C403120122F3C403B8
:1010B300120122FFC403120122D3C503120122EA43
:1010C300C50312012227C60312012258C6031201C7
:1010D3002289C603120122C1C60312012217C703C4
:1010E3001201222DC70312012269C7031201227CB8
:1010F300C703120122A3C703120122D7C703120198
:1011030022FDC80312012247CA0312012243CB0363
:1011130012012260CC03120122F27F00120122F796
:101123008A04120122A58E04120122D98F0412010E
:1011330022BF9803120122829B03120122889B0380
:10114300120122459E031201229FA00312012205D0
:101153009F041201229C9F041201225AA00412012F
:101163002284A004120122BAA204120122008002E6
:101173001201223B8002120122808C02120122EC16
:101183008D02120122E98E021201226E92021201D5
:1011930022589302120122A49302120122BE930247
:1011A300120122FB93021201220694021201220F62
:1011B3009402120122BF94021201228F950212019E
:1011C30022D695021201223C9602120122AE960209
:1011D300120122219802120122699B021201226F3D
:1011E3009B02120122C2A202120122CFA602120105
:1011F300220EC604120122EBC6041201222FC704D9
:1012030012012269C70412012201C80412012270CB
:10121300C80412012279C80412012285C8041201EC
:10122300229FC804120122C9C804120122F9C8046A
:1012330012012284F10312012291F103120122AB64
:10124300F103120122DEF1031201221CF203120147
:101253002281F20312012296F203120122A1F20368
:10126300120122AEF203120122C5F203120122D3AC
:10127300F203120122E2F203120122F7F203120136
:10128300220CF30312012217F30312012223F303A7
:1012930012012230F3031201223FF3031201224A07
:1012A300F3031201226FF30312012274F3031201F9
:1012B300220BF40312012273F40312012283F403B9
:1012C30012012298F403120122ADF403120122C782
:1012D300F403120122E4F40312012201F5031201C3
:1012E300220CF503120122B8F50312012299F60329
:1012F300120122B5F603120122CCF603120122D702
:10130300F603120122ECF60312012200F703120185
:101313002261F70312012267F7031201226DF7031B
:1013230012012273F70312012287F703120122AE7F
:10133300F703120122E9F70312012202F803120153
:101343002244F80312012277F80312012250BA0350
:1013530012012272BA031201223ABB03120122F4D0
:10136300BD031201220ABF031201222BC003120183
:101373002205C103120122B4C1031201223BD90287
:10138300120122D2D9021201226ADA021201225A6E
:10139300DB0212012291DB02120122A4DB02120101
:1013A3002212DC02120122ADDD02120122D4DD027F
:1013B30012012276DE02120122ABDE02120122BCEE
:1013C300DE0212012235DF0212012256DF02120170
:1013D300226EDF02120122C6E002120122CFE202D4
:1013E3001201221FE50212012222E60212012271DA
:1013F300E6021201229FCA021201229CCB021201B1
:101403002287CC0212012291CC021201229BCC0230
:10141300120122BDCC02120122C9CC021201221BED
:10142300CE021201224ACE021201227ACF02120107
:1014330022BCCF02120122E8D002120122BED10245
:1014430012012210D2021201226FD202120122A62D
:10145300D202120122E1D2021201227CD60212012F
:101463002295D60212012217D70212012225D70292
:101473001201227AD70212012288D702120122F521
:10148300D70212012267D802120122ADD80212013B
:1014930022B2A403120122D4A403120122BEA60382
:1014A30012012263AA03120122A6AB0312012280B6
:1014B300AC0312012276D3041201229BD30412013E
:1014C300220CD404120122D1E103120122DAE10336
:1014D300120122E3E10312012214E3031201223376
:1014E300E50312012269E503120122A3E5031201B8
:1014F30022D9E50312012213E60312012247E60370
:1015030012012273E603120122BCE603120122F642
:10151300E6031201223EE70312012294E7031201BC
:1015230022C9E70312012224E8031201225EE80321
:10153300120122AFE803120122E5E8031201221F80
:10154300E9031201224DE90312012270E90312019A
:1015530022BEE602120122F1E60212012234E70260
:101563001201223FE7021201224AE7021201225529
:10157300E70212012260E702120122CAEA02120103
:1015830022A9EB0212012222EC0212012299EC029F
:10159300120122A6EC02120122B3EC02120122BDB7
:1015A300EC02120122C7EC02120122D1EC02120159
:1015B30022DEEC02120122EEEC0212012234ED02D1
:1015C30012012258ED0212012265ED021201227569
:1015D300ED021201227FED0212012289ED021201B6
:1015E3002293ED02120122A0ED02120122AAED02C2
:1015F300120122B4ED02120122BEED02120122C831
:10160300ED0212012210EE021201222DEE0212014E
:10161300224AEE021201225AEE0212012264EE0263
:10162300120122BFEE02120122CCEE021201228E1F
:10163300EF0212012298EF02120122A2EF0212011D
:1016430022ACEF02120122C9EF02120122E6EF02DD
:101653001201225DF00212012267F00212012274CC
:10166300F00212012281F002120122A2F002120101
:1016730022ABF002120122F0F002120122FEF0026C
:1016830012012220F10212012229F1021201223851
:10169300F10212012250F10212012259F102120148
:1016A30022E7F102120122FFF1021201220FF202DC
:1016B3001201221FF20212012229F202120122391F
:1016C300F20212012249F20212012268F20212010D
:1016D3002275F20212012282F20212012292F20216
:1016E3001201229FF202120122BCF202120122CC49
:1016F300F202120122DCF202120122ECF2021201C6
:10170300221DF30212012227F30212012237F302F0
:1017130012012247F30212012254F3021201227929
:10172300F30212012286F30212012296F30212013E
:1017330022A0F302120122ADF302120122B7F30237
:10174300120122C7F302120122D1F302120122DB9A
:10175300F302120122EBF30212012243DA04120113
:1017630022A9D1041201220DD204120122BCD204F7
:10177300120122DBD2041201222FD3041201221AF6
:10178300DD04120122AEFF03120122EDFF03120159
:101793002205DD04120122BBDA04120122CBDA0492
:1017A300120122E0DA0412012229DB04120122CA07
:1017B300D6041201224ED704120122B6D704120115
:1017C30022712D00120122B2B804120122CAB804F8
:1017D30012012243B90412012218BA04120122EAA7
:1017E300BB04120122D0C20412012260C3041201FD
:1017F30022DEC3041201226FC40412012201C504B4
:1018030012012254C5041201225EC5041201226D85
:10181300C50412012283C50412012296C5041201D4
:1018230022F7C5041201220BC6041201227C2D00EB
:10183300120122F72D00120122B22E00120122D230
:101843002E001201220E3000120122553100120126
:1018530022FA31001201220E3C00120122F8430049
:10186300120122A74C00120122114E001201226024
:101873005900120122FF5900120122765B00120166
:1018830022EC5E00120122BE5F00120122F75F000C
:1018930012012213600012012201DC04120122ABA7
:1018A300D90412012216DA0412012221DA041201E8
:1018B3002231DA041201223CDA04120122ADDC04E3
:1018C300120122D6DC04120122F9F80312012203C9
:1018D300F90312012243F9031201228CF9031201C5
:1018E30022C6F9031201221CFA0312012240FA0351
:1018F30012012249FA031201229AFA03120122C3A6
:10190300FA03120122D8FA03120122E1FA031201A7
:101913002251FB03120122DFFB0312012223FC03EA
:101923001201224CFC03120122CBFC0312012208F8
:10193300FD031201223FFD031201225EFD0312018A
:101943002267FD0312012219FE031201226EFE0318
:101953001201222CD5041201227DD5041201220684
:10196300D6041201226CD60412012275BF0412019F
:10197300229FBF0412012294C004120122B9C004A1
:101983001201225DC104120122E4C104120122CF1B
:10199300D70412012204DC04120122B5CD04120182
:1019A30022EBCD041201221ECE0412012277CF04B2
:1019B30012012232DB0412012248DB0412012252FB
:1019C300DB04120122FEE903120122BBEA03120126
:1019D30022F6EA0312012227EB0312012289EB0309
:1019E300120122D5EB0312012240EC03120122BAA9
:1019F300EC03120122B9ED0312012240EF0312019D
:101A030022C3EF0312012229F0031201223CF00347
:101A130012012237F103120122BBB004120122D1B9
:101A2300B00412012275B104120122B4B1041201EF
:101A330022D1B10412012202B2041201224FB204D4
:101A430012012283B204120122BEB204120122B394
:101A5300B404120122D9DC04120122DFFF01E06683
:101A6300701008A3E066700A08A3E066700408A378
:101A7300E06622C3E7960809E7960809E79608098E
:101A8300E79622C3E09608A3E09608A3E09608A38E
:101A9300E09622C008C3E096F50808A3E096420842
:101AA30008A3E096420808A3E09645087001D3D046
:101AB3000822080808EAC0E0EBC0E086F0E7A4FAD1
:101AC300180986F0E7A42AFA180986F0E7A42AFA87
:101AD300180986F0E7A42AFA1986F0E7A4FBE5F0D3
:101AE3002AFA190886F0E7A42BFBE5F03AFA19085D
:101AF30086F0E7A42BFBE5F03AFA18180986F0E71D
:101B0300A4C5F02BFBE43AFA1908E7C5F0C6A426EE
:101B1300F6E5F03BFBE43AFA1886F0E7A4F6E5F0C5
:101B23000826F6E43B08F6E43A08F6D0E0FBD0E0FA
:101B3300FA22E4CFC0E0E4CEC0E0E4CDC0E0E4CCE0
:101B4300C0E075F020E626F608E633F608E633F63D
:101B530008E633F6181818EC33FCED33FDEE33FECC
:101B6300EF33FFC3EC9709ED9709EE9709EF971948
:101B73001919400FFFEC97FC09ED97FD09EE97FE4D
:101B8300191906D5F0BFECF709EDF709EEF709EFE0
:101B9300F7191919D0E0FCD0E0FDD0E0FED0E0FF4A
:101BA300226016080808C6C313C618C613C618C68B
:101BB30013C618C613C6D5E0EA227009080808221E
:101BC3006016181818C6C333C608C633C608C6330A
:101BD300C608C633C6D5E0EA22E627F60809E63783
:101BE300F60809E637F60809E637F622E026F6088E
:101BF300A3E036F608A3E036F608A3E036F622E0C3
:101C030026F008A3E036F008A3E036F008A3E03698
:101C1300F022C3E697F60809E697F60809E697F671
:101C23000809E697F622C3E096F008A3E096F008C9
:101C3300A3E096F008A3E096F022E657F60809E63B
:101C430057F60809E657F60809E657F622E056F66E
:101C530008A3E056F608A3E056F608A3E056F622DA
:101C6300E056F008A3E056F008A3E056F008A3E01E
:101C730056F022E046F608A3E046F608A3E046F64F
:101C830008A3E046F622E066F608A3E066F608A39A
:101C9300E066F608A3E066F622E0F608A3E0F6089D
:101CA300A3E0F608A3E0F622E6F008A3E6F008A313
:101CB300E6F008A3E6F022E0FAA3E0FBA3E0FCA32E
:101CC300E0FD22EAF0A3EBF0A3ECF0A3EDF022E0B9
:101CD300F8A3E0F9A3E0FAA3E0FB22E8F0A3E9F01C
:101CE300A3EAF0A3EBF022CAC0E0E6F0A308DAFA15
:101CF300D0E0FA22CAC0E0E0A3C582CCC582C58386
:101D0300CDC583F0A3C582CCC582C583CDC583DA97
:101D1300E6D0E0CA22C3E498F8E499F9121D598089
:101D230026C3E49AFAE49BFBE920E7E9121D59E490
:101D330098F8E499F922C3E498F8E499F9121D5943
:101D4300E498F8E499F9C3E49AFAE49BFB22EB20C4
:101D5300E7CFE920E7E0B90010BB0008E88AF08488
:101D6300F8AAF022E4FBC8FA22EB70227B10C833F6
:101D7300C8C933C9335007C39AC3DBF280069A50EC
:101D8300012ADBEAC833F4C8C933F4C9FA2275F06F
:101D930008E4C833C8C933C933C99AC99B5004C9B5
:101DA3002AC93BD5F0ECFBC833F4C8E4C9FA226076
:101DB3000D08C6A2E713C618C613C6D5E0F3226002
:101DC3000C08C6C313C618C613C6D5E0F4227004A4
:101DD30022600D18C6C333C608C633C6D5E0F4184F
:101DE30022251810AF08F518400C15198008F518AE
:101DF30040021519D2AF2200C0D0251810AF08F544
:101E030018500C05198008F51850020519D2AFD0E7
:101E1300D0222518F58210AF08F518400C1519804B
:101E230008F51840021519D2AF851983222518F534
:101E330082E43519F583222518F8E43519F92225AA
:101E430018FAE43519FB222518FCE43519FD22E4C0
:101E5300732518C582C0E0E51934FFC583C0E0E5EA
:101E630018C3958224F810AF0885831985821880DA
:101E730008858319858218D2AFCEF0A3E520F0A39D
:101E83007808E608F0A3DEFAEFF0A3E58124FAF878
:101E9300E608F0A3E608F0A3E608F0A30808E608BE
:101EA300F0A3E608F0A315811581D0E0FED0E0F899
:101EB300158115811581E8C0E0EEC0E0222518C523
:101EC30082C0E0E51934FFC583C0E0E518C39582FD
:101ED30024F910AF08858319858218800885831932
:101EE300858218D2AFCEF0A3E520F0A37808E608E8
:101EF300F0A3DEFAEFF0A3E58124FBF8E608F0A3F4
:101F0300E608F0A30808E608F0A3E608F0A31581A5
:101F13001581D0E0FED0E0F815811581E8C0E0EE30
:101F2300C0E022851983851882E0A3FEE0A3F52093
:101F33007808E0A3F608DFFAE0A3FFE0A3C0E0E03F
:101F4300A3C0E0E0A3C0E0E0A3C0E0E0A3C0E010D2
:101F5300AF088582188583198008858218858319BF
:101F6300D2AFD083D08202011F851983851882E006
:101F7300A3FEE0A3F5207808E0A3F608DFFAE0A3C8
:101F8300FFE0A3C0E0E0A3C0E0E0A3C0E0E0A3C0A3
:101F9300E010AF088582188583198008858218852B
:101FA3008319D2AFD083D08222C0D02518C582C076
:101FB300E0E51934FFC583C0E0E518C3958224F337
:101FC30010AF088583198582188008858319858257
:101FD30018D2AFC8F0A3E9F0A3EAF0A3EBF0A3791A
:101FE30008E709F0A3D8FAECF0A3EDF0A3EEF0A311
:101FF300EFF0A3D0E0F0A3D0E0F0A3D0E0F0A3E5AE
:1020030020F0A3E5F0F0A322851983851882E0C0B0
:10201300E0A3E0F9A3E0FAA3E0FBA37808E0F60865
:10202300A3DFFAE0FCA3E0FDA3E0FEA3E0FFA3E04F
:10203300C0E0A3E0C0E0A3E0F5D0A3E0F520A3E077
:10204300A3F5F010AF08858319858218800885836E
:1020530019858218D2AFD082D083D0E0F8D0E03295
:1020630074048006740280027401C0E0F404121E3A
:1020730015D0E0121CEA227404800474028000CCA0
:10208300C0E0EDC0E0E518C39CCCAD1950011D10B4
:10209300AF068C188D1980068C188D19D2AF121CBF
:1020A300F7D0E0FDD0E0FC22D083D082C5F0E493EA
:1020B300A3C5F0C395F0F5F0E493A3C395F04005F1
:1020C300E5F0048001E475F002A42582F582E5F0D1
:1020D3003583F583E493A3C0E0E493C0E022D08387
:1020E300D082E9C0E0E493A3C386F0C5F095F0F98C
:1020F30008E493A386F0C5F095F0700BE493A3C3B3
:10210300994005E9048002A3E475F002A42582F551
:1021130082E5F03583F583D0E0F9E493A3C0E0E4EE
:1021230093C0E022D083D082CCC0E0E493A36006C6
:102133001221511470FAE493A360061221701470F3
:10214300FAD0E0FCE493A3C0E0E493C0E022C0E053
:10215300E493A3D39C5010E493A3C39C400AD0E020
:10216300D0E0D0E0022144A3A3A3D0E022C0E0E466
:1021730093A36C7009D0E0D0E0D0E0022144A3A384
:10218300D0E022D083D082ECC0E0EDC0E0E493A3A2
:10219300FCE493A3FDED4C600D1221D2EC24FFFC73
:1021A300ED34FFFD80EFE493A3FCE493A3FDED4C3A
:1021B300600D122211EC24FFFCED34FFFD80EFD003
:1021C300E0FDD0E0FCE493A3C0E0E493C0E022C0D0
:1021D300E0C3E49396087401939618400FE4936662
:1021E300700808740193661870007019A3A3C3E400
:1021F3009396087401939618A3A3400DD0E0D0E002
:10220300D0E00221C2A3A3A3A3A3A3D0E022C0E0F2
:10221300C0F088F0E4936670080874019366187040
:1022230000A8F0A3A3700BD0F0D0E0D0E0D0E00280
:1022330021C2A3A3D0F0D0E02274F6121EC0EAFE9E
:10224300EBFF8C088D09EE2434F8E43FF9E8FCE950
:10225300FDEE2435122558FAEE2437122558F88559
:1022630008F0A4C885F00A8509F0A4250AF9EA282C
:10227300F8E439F97A257B00121D59EA8C828D83A3
:10228300F0FA131313541FF8EE28F8E43FF9E82487
:102293005DF582E439F583E0C0E074075AF8D0E0D5
:1022A300B800028004C313D8FCA2E0EE5008243423
:1022B300F582E43F80182436122558F5F0EA84A805
:1022C300F0EE28F8E43FF9E82438F582E439F583A1
:1022D300E0F97F03021F6C74F7121EC0EAFEEBFFE6
:1022E300EE2434122558C0E0EE2435F582E43FF5A0
:1022F30083D0E0F08E828F83A3A3A3A3A3A3A3C061
:1023030082C0838E828F83A3A3A3A3A3E0F8A3E059
:10231300F9D083D082E0C398F508A3E099F509EEDC
:10232300247F1225586401703EEE2480F582E43F39
:10233300F583C082C0838E828F83A3A3A3A3A3E06C
:10234300240108A3E03400F9D083D082E06870034D
:10235300A3E06970127CD87D06121041EE247FF54C
:1023630082E43FF583E4F0AC08AD09EEFAEFFB122B
:10237300223CE9F9122CB37F02021F6CC082C08396
:10238300851882851983E0F8A3E0F9C3EA9CEB9DE5
:102393005010C3EC98ED99401BC3EA98EB99501485
:1023A300800EC3EA98EB994007C3EC98ED9940047B
:1023B300790180027900D083D08222EAC39CFAEBB0
:1023C3009DFB2274EF121EC0900381E06408600538
:1023D300E06407702A9061C8E060249003AFE0F4E2
:1023E300601DE0F875F00DA4C8AAF02AF974B128AD
:1023F300FE740339FF8E828F83A3A3A3E0700302CD
:1024030024D4906060E0C0E0EE2468F582E43FF5F8
:1024130083D0E0F0750C72750D077508007509001F
:10242300E5D914F50AE5D95403F50E601274036572
:102433000E6043E50A600AEE246712255870028095
:102443007590076DE06401601F12255560047A04DE
:1024530080027A00E50AC39AFA95E0FB120D478AD7
:10246300088B09EA45097005121317806412255574
:1024730070048A0C8B0DE50A6012850C82850D832E
:10248300F50BE5D9F0A3150BE50B70F61225556096
:102493004474FC250AF50A780C122067AC0AA90ECD
:1024A300EEFAEFFB1211137402121DFAE97026AA59
:1024B30008AB09121959793D8E828F83A3A3A3A375
:1024C300E0FA7B00120B49EEFAEFFB12106B1211CC
:1024D30073790080787403650E6051850A10751155
:1024E300007810122067AC0CAD0DAA08AB091210CE
:1024F300D77402121DFAEE24681225586480700402
:10250300747F8001E0F50C780C12206BE50EF50C5E
:10251300780C12206BA90AAC08AD099003AFE0FA5E
:102523007B00120B197402121DFA801C900381E0C8
:102533006408AC0CAD0D7009EEFAEFFB1211438089
:1025430007EEFAEFFB1211E512132379017F0A025A
:102553001F6CEE2483F582E43FF583E02274F212CC
:102563001EC074FC121DE4EAFEEBFF8909A2AFE46E
:1025730033F508C2AF02262AE0601B780C122067ED
:10258300AC0BA90EEEFAEFFB12110D7402121DFA39
:102593007404250BF50B7401250BF5D9850ED9E5CC
:1025A3000B6018F50A850C82850D83E0F5D9A385A8
:1025B300820C85830D150AE50A70EA75E195EE2410
:1025C30063F8E43FF97A007B00A2AFE433F50BC272
:1025D300AF88828983E0FCA3E0FDEC4D603A8882FA
:1025E3008983E0FAA3E0FB8A828B83E0FCA3E0FD0E
:1025F30088828983ECF0A3EDF08A828B83E4F0A3D5
:10260300F088828983E0FCA3E0FDEC4D700A8882A8
:102613008983A3A3E4F0A3F0E50BA2E092AF121920
:10262300599006DFE004F0EE2463122558F8A3E086
:10263300F9E8496064EE24631225582402F8A3E004
:102643003400F988828983E5822402F50CE435831A
:10265300F50DE0F50BA3E0F50EEE246212255864A8
:102663000170369061D0E0F812255560047C048037
:10267300027C007480C398FA95E0FBE50B2CF8E428
:102683003400F9E82402F8500109C3EA98EB99A24F
:10269300D265D033400302257B9006DFE0604D9086
:1026A30006E0E0F89006DFE0C398500C7402650979
:1026B300703A9006E1E060348E828F83A3A3A3A3D4
:1026C300E08518828519831226FF7402121E30E8F2
:1026D3001226FF9006DEE028F07402121E4AAA18A2
:1026E300AB197901120B7F9006DFE4F0E508A2E055
:1026F30092AF7404121DFA7F07021F6CF0A3E4F07B
:102703009006DFE0F8220000008521878522C6229B
:10271300C0E074EB121FACA2AFE433F508C2AF758F
:102723009B00906182E0A2E05030E591A2E0502A44
:102733007591FE7401652170211228A612122712C9
:10274300289412207A122A5D7404121DFAE9640196
:10275300700579011212631223C6906182E0A2E52B
:10276300505DE591A2E550577591DF900381E064D8
:10277300076005E06408702F1228A67401652170B4
:102783003E12122712289412207A122A5D74041220
:102793001DFAE96401700579011212637901EEFAF9
:1027A300EFFB1225608018E0640D70139003A3E023
:1027B30004F064287002E4F07A00E0F91213419007
:1027C3006182E0A2E64003022869E591A2E64003A4
:1027D3000228697591BF900381E0640570081212A5
:1027E3000F12121B8003121215752100121281E9B8
:1027F300900382F07900121263120F5D7A017B005D
:10280300900380E0F9121929907803E0644270562E
:10281300900771E014F0704EC2AF12282000782A9E
:10282300D0E0F618D0E0F6E59F5407F87005750D73
:10283300FF8003750D7FC4C0E07829E6F50A08E63A
:10284300550DF50B740B780A121DC2D0E0250AF85A
:10285300906270E0A2E740F8E8C333906272F090B0
:102863006270E0D2E0F0906181E0A2E35009E5E913
:10287300A2E3500375E9F7A3E0A2E75009E591A2AB
:10288300E7500375917FE508A2E092AF7F0802202D
:102893000B8E828F83E0F8A3E0C82416F582E43818
:1028A300F583229003AFE0F875F00DA4C8AAF02ACF
:1028B300F974B128FE740339FF22C0E0C0D0C0828E
:1028C300C083906183E0A2E05009E5BFA2E050031A
:1028D30075BFFEE0A2E15009E5BFA2E1500375BF59
:1028E300FDE0A2E25009E5BFA2E2500375BFFBE0A1
:1028F300A2E35009E5BFA2E3500375BFF7E0A2E4EA
:102903005009E5BFA2E4500375BFEFE0A2E550090B
:10291300E5BFA2E5500375BFDFE0A2E65009E5BFBE
:10292300A2E6500375BFBFD083D082D0D0D0E032AF
:10293300C0E074F2121FACE5A7A2E6500FE5A1A216
:10294300E6500953A7BF75A1BF122987E5A7A2E5E2
:10295300500CE5A1A2E5500653A7DF75A1DFE5A75B
:10296300A2E15009E5A1A2E1500375A1FDE5A7A2EB
:10297300E2500CE5A1A2E2500653A7FB75A1FB7F31
:102983000102200B74F7121EC0752101900381E030
:10299300640670151211978A828B83A3A3A3A3A342
:1029A300A3E0FAA3E0FB1211FDA2AFE433FED2AF22
:1029B300900387E0640170187A207B00900380E025
:1029C300F9121A3D7A207B00900380E0F912192F47
:1029D300906182E0D2E6F090076EE0602185C62226
:1029E3008016900386E064017008E5C654F8440538
:1029F300F5C653BEFC12270C7401652160E4EEA2F8
:102A0300E092AF7F02021F6C008E238F2485822801
:102A1300858327851882851983E0CEA3E0CF852897
:102A230082852783EBC9EAC8EDCBECCA75F010C3E6
:102A3300E833C8E933C9EA33CAEB33CBC3EA9EF5BB
:102A430026EB9FF525B35004AB25AA26EC33CCED3A
:102A530033CDD5F0DAAE23AF242274F1121EC08A2F
:102A6300088B098C0A8D0B9082AC7808121C507469
:102A73000F121E30780C121C9C9082AC780C121C26
:102A8300507808790C121A769082DC501078087905
:102A93000C121C157808121A964014800E780C79C3
:102AA30008121C15780C121A9650047901800279C9
:102AB300007F08021F6C74ED121EC08A088B098CFC
:102AC3000A8D0B9082AC7808121C507413121E30BE
:102AD300780C121C9C9082AC780C121C50780C79E8
:102AE30008121A7640117808790C121C15AA08AB43
:102AF30009AC0AAD0B802275100075110075120028
:102B03007513017810790C121C1578107908121BB3
:102B1300DCAA10AB11AC12AD137F0C021F6C9082B8
:102B2300AC7808121C9C8A828B837808121C637F02
:102B330004021F6C74F5121EC08C828D83780812F8
:102B43001C9C8A828B837808121C29122B8FC3E06A
:102B53009CF0A3E09D122B8140229082C078081242
:102B63001C9C8A828B837808121C028A828B83A323
:102B7300A3A3A3E02420F0A3E0344EF080A0F088C8
:102B8300828983C3E09420A3E0944E22EA2404F8CC
:102B9300E43BF98C828D83A3A3A3A3E0FCA3E0FD14
:102BA300888289832274F5121EC0E9FE9006FAE03A
:102BB300FAA3E0FBEE29F8E433F9741B28F58274D9
:102BC3008239F583E02AF508A3E03BF5097808127A
:102BD30020679082F8121CBA122A0C7402121DFA92
:102BE3008A088B098C0A8D0B74107808121BA4AA0F
:102BF30008AB097F04021F6C74F1121EC08A0C8B90
:102C03000D8C0E8D0F7411121E3012207E74111252
:102C13001E30E02401F508A3E03400F509E4F50AC9
:102C2300F50B780C7908121AB59082E87808121C13
:102C33009C780C7908121AB5AA0CAB0DAC0EAD0F2B
:102C4300122A0C7402121DFA8B09EA450960047AF0
:102C53000180027A00EC2AFCE43DFD7413121E305D
:102C6300E0F8A3E0F9E8FEE9FFECF8EDF97A717B0F
:102C730002121D5988088909E4F50AF50B8E828F23
:102C8300837808121CABECF8EDF97A717B02121D04
:102C9300598A088B0974057808121DD18E828F8397
:102CA300A3A3A3A3E508F0A3E509F07F08021F6C23
:102CB300C082C083E9906000F0D083D08222C0E05C
:102CC30074F2121FACA2AFE433FED2AFC2C0E5D19F
:102CD300A2E4500675D10F121827EEA2E092AF7F3F
:102CE3000102200BC0E0C0D0E8C0E0A8A8D2AFC268
:102CF300C7E8A2E792AFD0E0F8D0D0D0E032C0E08E
:102D0300C0D0E8C0E0E9C0E0EAC0E0EBC0E0C082C8
:102D1300C083A2AFE433F9D2AF900EF7E0F8A3E09B
:102D2300687008539AFBA374018022C2E9900EF7DE
:102D3300E0F8740128F0747728F582E4340EF58303
:102D4300E0F5C1900EF7E0C394804002E4F0E9A2FD
:102D5300E092AFD083D082D0E0FBD0E0FAD0E0F9AC
:102D6300D0E0F8D0D0D0E032C2AF0200002202019E
:102D73001FFFFFFFFFFFFFFFFF74F6121E54E990D2
:102D83000EFCF012156F900EFCE0F91206631206AA
:102D9300B7900EFCE0F91206BD900EFCE0F91208A4
:102DA300C79082C0121CBA12069F9082C0121CBA2E
:102DB3001208E57AB67B1C1218C97CB67D1C790013
:102DC3001206997CCB7D1C7A0279011206997C65E7
:102DD3007D0F7A107902121A137C757D0F7A1079A0
:102DE30003121A137CFD7D0E7A047904121A137FE1
:102DF30002021F2674F4121E548A088B09EB5480B6
:102E03007003022E92900EFCE0F91219118A0A8BBC
:102E13000BAE0AAF0BEE4F606E8E828F83E0246F92
:102E2300600924FE705412183F8052A3E0F8740E18
:102E33006870208E828F83A3A3A3A3A312207EEEA8
:102E430024FDF582EF34FFF583E024F9125B537917
:102E53000E801D74FF6870288E828F83A3A3A3A3A3
:102E6300A312207E8E828F83A3A3E0125B5379FF8C
:102E7300120B317402121DFA8006121863E96007FF
:102E8300EEFAEFFB1218F9AA08E50964808016EB45
:102E9300544060147CFD7D0E7A047904121A0DAA45
:102EA30008E5096440FB80047A007B00024E0CE9CC
:102EB300790024FE6008146005146009800C741006
:102EC3006A7007800774046A6002790202011F7442
:102ED300F4121E5474F9121DE4EAFEEBFF85188206
:102EE300851983E4124C851231F0C0E07401121E7F
:102EF30030D0E0125B6FA882A983E0FCA3E0FBEC77
:102F0300FA7402121E30EAF0A3EB125B6FA3E0C067
:102F1300E07404121E30D0E0F0E82403F8500109F5
:102F23007405121E301230087402121E30E0F508C8
:102F3300A3E085080AF50B7407780A121DC2780A04
:102F43001220E1010004B32F552F682F772F8A2F0A
:102F53009D2FAC18AD197401121E42E508547FF978
:102F630012184B80467401121E42E508547FF91271
:102F730018518037AC18AD197401121E42E508547C
:102F83007FF91218578024AC18AD197401121E4230
:102F9300E508547FF912185D8011AC18AD1974015E
:102FA300121E42E508547FF9121845E9F50880031B
:102FB300750801EEFAEFFB1218F9900F2D747FF0EC
:102FC300A37406F0E508A3F07402121E301243DF67
:102FD300900F30F0E944FCA3125797900F32F07C26
:102FE3002D7D0F851882851983E02406FA79FF1257
:102FF3000B3779007407024E09F8A3E03400F98512
:103003001882851983E8F0A3E9F02274EB121E54A9
:103013008A828B83ECFEEDFFA31231398E828F837C
:10302300E4F0850A82850B83A3858208858309E9F9
:1030330014600C14604F147003023129023130857F
:103043000A82850B83E0F50A850882850983E0F50A
:103053000BC39432400302312CAA0BA90A1218396C
:10306300E9600302312C7C337D0FAA0BA90A121AE3
:1030730013E9FA6003023132850882850983125706
:1030830055F0023132850A82850B83E0F50C850801
:1030930082850983E0F508FAA90C121839E960035F
:1030A30002312CE50A2402FEE4350BFFEEFCEFFDB2
:1030B300AA08A90C121A0DE9FA7404650C70708E33
:1030C300828F83124BF7850A82850B83A3A3A312F6
:1030D300314EF512F51374087810121BBD780C7974
:1030E30010121BDC850A82850B83A3A312314412C1
:1030F3001BBD780C7910121BDC850A82850B83A318
:10310300A3A3A3A3E0F508E4F509F50AF50B7418E6
:103113007808121BBD780C7908121BDC900EFD7821
:103123000C121CAB80091218C37A0280027A01EADE
:10313300F97F0D021F26A3A3A3E0F50AA3E0F50B75
:1031430022A3A312314E7410781022E0F510E4F597
:10315300112274F4121E5474EA121DE489088A823F
:103163008B831231EEFEA3E0FCE4CCFDEE2CE43DB8
:10317300FFE82402FCE439FDE50824F6602324F883
:1031830070401231DA1220677402121E42120C755B
:103193007402121DFAE9F9702B1231CC120BF7806D
:1031A3001D1231DA1220677402121E42120C8D7442
:1031B30002121DFAE9F9700C1231CC120BF1E9F984
:1031C300800279017416024E09900EFCE0F9AC18E6
:1031D300AD19EEFAEFFB228A828B83A3A3A3E0242B
:1031E300FEF50AE434FFF50B780A22A3A31256BABC
:1031F300F988828983E02274EC121E5474EB121D49
:10320300E4890BEAF8EBF97E007F00750A40E824B5
:1032130003F50EE439F50F850E82F583E0FAC394C6
:103223000250057940023628888289831231EEF5EF
:1032330008A3E0FDE5082EE43DF50975121B75139F
:1032430083E82403F510E439F511E82402F50CE4CE
:1032530039F50DE50B1220AB011DA23B9B32C732A2
:10326300F93225336933AA334734883450359935D5
:10327300C83532366336BC3609375D37E9372A3805
:10328300B238A23BA23BDA388D39E3398A3AA23B02
:10329300B23AA23B063B7A3BA818A919880E890FBC
:1032A300780E122067123BC51203217402121DFA15
:1032B300E96003023623AC18AD19AA08AB09120260
:1032C300BB02365EA818A919880E890F780E122042
:1032D30067123BBE122067AC0CAD0D7A0079001269
:1032E300032D7404121DFAE96003023623123C0015
:1032F3001206C302365EA818A919880E890F780E24
:10330300122067123BC51203397402121DFAE960D9
:1033130003023623AC18AD19AA08AB091202C10285
:10332300365EA818A919880E890F780E1220671225
:103333003BBE122067AC0CAD0D7A00790012034539
:103343007404121DFAE960030236237402121E305C
:1033530012207E900EFCE0F97402121E301243C854
:103363001206E702353F123BC51218938A0C8B0DE8
:10337300AE0CAF0DEE4F7003023623A818A91988BF
:103383000C890D780C122067123BED120351740265
:10339300121DFAE9600302361CAC18AD19AA08AB7A
:1033A300091202C702358EA818A919880E890F7849
:1033B3000E122067123BBE122067AC0CAD0D7A00D3
:1033C300790012035D7404121DFAE96003023623C7
:1033D3007404121E30123BE51220677407121E306C
:1033E30085820C85830D780C1220677C027D00AAF0
:1033F30012AB1312042F7404121DFAE97003023A7C
:1034030084851882851983E064017002A3E0600358
:10341300023A847402121E30E0F47003A3E0F460F5
:1034230003023A841243B712206B7408121E30E071
:10343300F97409121E301243C81206CF7401121D0B
:10344300FA02365E123BC51218938A0C8B0DAE0C32
:10345300AF0DEE4F7003023623A818A919880C8903
:103463000D780C122067123BED1203697402121DD2
:10347300FAE9600302361CAC18AD19AA08AB0912AD
:1034830002CD02358EA818A919880E890F780E125D
:103493002067123BBE122067AC0CAD0D7A00790099
:1034A3001203757404121DFAE960030236237404CF
:1034B300121E30123BE51220677407121E308582FC
:1034C3000C85830D780C1220677C027D007A217BAA
:1034D3008312042F7404121DFAE9601A7402121E77
:1034E3003012207E900EFCE0F97402121E3012435B
:1034F300C81206D580467404121E30123BE5122012
:10350300677407121E3085820C85830D780C122098
:10351300677C027D007A157B8312042F7404121DCD
:10352300FAE960207402121E3012207E900EFCE035
:10353300F97402121E301243C81206DB7402121D04
:10354300FA02365E123C001206F302365E123BC5E7
:103553001218938A0C8B0DAE0CAF0DEE4F70030255
:103563003623A818A919880C890D780C1220671224
:103573003BED1203817402121DFAE9600302361C4B
:10358300AC18AD19AA08AB091202D3E9F50A600316
:1035930002361C023623A818A919880E890F780E43
:1035A300122067123BBE122067AC0CAD0D7A007976
:1035B3000012038D7404121DFAE97064123C0012A8
:1035C30006ED02365EEAC39403400E123BC51218A1
:1035D300938A0C8B0DAE0CAF0D850E82850F83E0A5
:1035E300FA74026A6004EE4F6036A818A919880CB1
:1035F300890D780C122067123BB5120399740212DD
:103603001DFAE97010AC18AD19AA08AB091202D95A
:10361300E9F50A600BEE4F6007EEFAEFFB1219595A
:10362300A90A12188D7415121DFA7F0C021F26A801
:1036330018A919880E890F780E122067123BBE1243
:103643002067AC0CAD0D7A0079001203B774041235
:103653001DFAE970CB123C001206F9E9F50A80C0A5
:10366300EAC39403400E123BC51218938A0C8B0DC8
:10367300AE0CAF0D850E82850F83E0FA74026A608B
:1036830004EE4F609BA818A919880C890D780C12B9
:103693002067123BB51203C37402121DFAE96003DB
:1036A300023618AC18AD19AA08AB091202DFE9F506
:1036B3000A6003023618023623123BC51218938A96
:1036C3000C8B0DAE0CAF0DEE4F7003023623A81812
:1036D300A919880C890D780C122067850E82850F35
:1036E300831243EB122067EEFCEFFD7A00790012A0
:1036F30003CF7404121DFAE9600302361C123C0066
:103703001206FF02358EEAC39403400E123BC51224
:1037130018938A0C8B0DAE0CAF0D850E82850F832B
:10372300E0FA74026A6007EE4F7003023623A818AA
:10373300A919880C890D780C122067123BB5120366
:10374300DB7402121DFAE96003023618AC18AD19D6
:10375300AA08AB091202E50236B1A818A919880E06
:10376300890F780E122067123BBE122067AC0CAD96
:103773000D7A0079001203757404121DFAE96003CF
:103783000236237404121E30123BE51220677407BD
:10379300121E3085820C85830D780C1220677C0203
:1037A3007D00AA12AB1312042F7404121DFAE970E0
:1037B30003023A84851882851983E064017002A3A9
:1037C300E06003023A847402121E30E0F47003A333
:1037D300E0F46003023A84900EFCE0F9AA08AB0916
:1037E3001206C902365E123BC51218938A0C8B0D62
:1037F300AE0CAF0DEE4F7003023623A818A919883B
:103803000C890D780C122067123BED1203E774024A
:10381300121DFAE9600302361CAC18AD19AA08ABF5
:10382300091202EB02358EEA24FCFCE434FFFDE8C6
:103833002404FAE439FB1218938A128B13AE12AFE5
:1038430013EE4F7003023623A818A919881289139F
:103853007812122067850E82850F83E024FC123BC9
:10386300DB122067EEFCEFFD851082851183124B7E
:10387300E112039F7404121DFAE9600302361C74FB
:1038830006121E30E07008123C00120711801874F3
:1038930005121E30E0AC18AD19AA08AB0970051269
:1038A3000705800312070BE9F50AE50A023AFFA8A8
:1038B30018A919880E890F780E122067123BC512BA
:1038C30003AB7402121DFAE96003023623AA08ABA4
:1038D300091202F102365E123BC51218938A088B55
:1038E30009AE08AF09EE4F7003023623A818A919D1
:1038F300880889097808122067850E82850F83E07E
:1039030024FEF508E434FFF5097808122067EEFC7D
:10391300EFFD7A0079001203F37404121DFAE960D3
:103923000302361C900F861243DA700F7A237B0052
:103933001219A7900F86EAF0A3EBF0900F861243BB
:10394300DA6041900F85E0C394054003023A841284
:1039530043C329F0750807750900780812206774B6
:1039630002121E4AE975F007A4F8A9F0900F86E049
:1039730028FAA3E039FB1218CF7402121DFA750A54
:1039830000023623750A1302361C123BC512189324
:103993008A0C8B0DAE0CAF0DEE4F7003023623A8CD
:1039A30018A919880C890D780C122067123BED12A7
:1039B30003FF7402121DFAE9600302361CAC18AD52
:1039C30019AA08AB091202F7E9F50A600302361CCB
:1039D3007405121E301243DA700302361C023623BA
:1039E300A818A919880E890F780E122067123BBEFA
:1039F300122067AC0CAD0D7A00790012040B74042D
:103A0300121DFAE96003023623900F861243DA602F
:103A1300701243B712206B7401121E301243BA1294
:103A2300206B900F85E0F9900F861243C812071D93
:103A33007402121DFAE9F50A60397E008022EE75E0
:103A4300F007A4F8A9F0900F86E028FAA3E0398ADA
:103A530082F583A3A3125B58EA4B60031219590E34
:103A6300900F85E0F8EEC39840D4900F86125B5B0D
:103A73001219AD900F86E4F0A3F0900F85F0023693
:103A830023750A02023618A818A919880E890F7817
:103A93000E122067123BC51204117402121DFAE9BB
:103AA3006003023623AA08AB091202FD02365E1236
:103AB3003BA81218938A108B11AE10AF11EE4F7002
:103AC30003023623A818A919881089117810122027
:103AD30067123BCE122067EEFCEFFD7A00790012ED
:103AE300041D7404121DFAE9600302361C850C825E
:103AF300850D83123C03120801E9F50A60030236BF
:103B03001C8064123BA81218938A108B11AE10AF5D
:103B130011EE4F7003023623A818A91988108911D2
:103B23007810122067123BCE122067EEFCEFFD7A6D
:103B330000790012041D7404121DFAE960030236B1
:103B43001C1243B712206B850C82850D831243C36D
:103B5300121E4AAA08AB091207FB7401121DFAE9E7
:103B6300F50A600302361C7403121E301243DA7026
:103B730003023618023623A818A919880E890F786C
:103B83000E122067123BC51204237402121DFAE9B8
:103B93006003023623AA08AB091202AF02365E7530
:103BA3000A01023623EA24FDFCE434FFFDAA10AB2C
:103BB3001122EA123BF8EEFAEFFB22EA24FE123B53
:103BC300DB22EA123BF8AA0CAB0D22850E82850F8D
:103BD30083E024FD123BDB22F50EE434FFF50F787E
:103BE3000E22E0F50C8E0D780C22850E82850F8354
:103BF300E0123BF82224FEFCE434FFFD22900EFC8D
:103C0300E0F9AC18AD19AA08AB092274E8121E54E6
:103C130074EA121DE4E9851882851983F0750E0094
:103C2300750F00750A40EA2403F510E43BF511858E
:103C33001082F583E0F9C39402500579400241F9FB
:103C43008A828B83A3A3A3A3E0FEA3E0FF8E828FCC
:103C530083E0FCA3E0FAE4CAFBEC2AF508E43BF5B5
:103C630009EE2402F50CE43FF50DEE2403F512E40E
:103C73003FF513851882851983E012212700160268
:103C8300C63C04D43D060E3D08993D0A1F3E0C95E3
:103C93003E0ED03E10013D12BD3F160A401BC542E9
:103CA3001D1E4330273D32273D345A3E36253F38CB
:103CB300713F3A8B403C08423E4242407942420ABD
:103CC3004091437401121E428A0E8B0F780E12200C
:103CD30067E9123BBF122067AC0CAD0D7A00790087
:103CE30012032D7404121DFAE960030241F4124316
:103CF300C0121E4AAA08AB091206C302423D900E27
:103D0300FCE0F9AA081206C902423D1243B7122089
:103D13006B1919AC0CAD0DAA081206CF7401121D54
:103D2300FA02423DE924FEF8E434FFF974046849D9
:103D330060030241F4850C82850D83E0FA851282CB
:103D4300851383E0F8E4C8F9EA28FCE439FD8E82A0
:103D53008F83A3A3A3A3E0FA8E828F83A3A3A3A33A
:103D6300A3E0F9EAF50AE439F50B8518828519838E
:103D7300E06430780A7010122067900EFCE0F9AA14
:103D8300081206D5023E17122067900EFCE0F9AA2E
:103D9300081206DB807E7401121E428A0E8B0F7896
:103DA3000E122067E9123BBF122067AC0CAD0D7AEF
:103DB3000079001203757404121DFAE960030241CD
:103DC300F41243C0121E4AAA08AB091206E10242CA
:103DD3003D7401121E428A0E8B0F780E122067E982
:103DE300123BBF122067AC0CAD0D7A0079001203B1
:103DF300457404121DFAE960030241F47403121EB0
:103E03003012207E900EFCE0F97403121E30124330
:103E1300C81206E77402121DFA02423D7401121E13
:103E2300428A0E8B0F780E122067E9123BBF1220D5
:103E330067AC0CAD0D7A00790012038D7404121D6A
:103E4300FAE960030241F41243C0121E4AAA08AB06
:103E5300091206ED02423D7401121E428A0E8B0FB7
:103E6300780E122067E9123BBF122067AC0CAD0D30
:103E73007A0079001203757404121DFAE9600302D3
:103E830041F41243C0121E4AAA08AB091206F302F8
:103E9300423D7401121E428A0E8B0F780E12206768
:103EA300E9123BBF122067AC0CAD0D7A007900120A
:103EB30003B77404121DFAE960030241F41243C00C
:103EC300121E4AAA08AB091206F902423DE9123B47
:103ED300C61218938A0E8B0FEA450F70030241F442
:103EE3007401121E3A880C890D780C122067124354
:103EF300E5122067AC0EAD0F7A0079001203CF7480
:103F030004121DFAE960030241ED1243C0121E4A76
:103F1300AA08AB091206FFE9F50A60030241ED02A4
:103F230041F4E9123BC61218938A0E8B0FEA450F30
:103F330070030241F47401121E3A880C890D780C47
:103F43001220671243E5122067AC0EAD0F7A017998
:103F53000012039F7404121DFAE960030241ED7419
:103F630001121E4AAA08AB09120705024314E912FB
:103F73003BC61218938A0E8B0FEA450F700302415A
:103F8300F47401121E3A880C890D780C1220671202
:103F930043E5122067AC0EAD0F7A01790112039F3E
:103FA3007404121DFAE960030241ED7401121E4A02
:103FB300AA08AB0912070B024314E9123BC61218F5
:103FC300938A0E8B0FEA450F70030241F4740112BA
:103FD3001E3A880C890D780C1220671243E51220D3
:103FE30067AC0EAD0F7A00790012039F7404121DA3
:103FF300FAE960030241ED1243C0121E4AAA08AB5C
:1040030009120711024314E9123BC61218938A0ED0
:104013008B0FEA450F70030241F47401121E3A88B4
:104023000C890D780C1220671243E5122067AC0E41
:10403300AD0F7A0079001203F37404121DFAE960DC
:10404300030241ED851882851983E06416900EFC06
:10405300700F1243C3121E4AAA08AB091207178036
:104063000D1243C3121E4AAA08AB09120735E9F51C
:104073000AE50A60030241ED7406121E301243DAA8
:1040830070030241ED0241F4E924FEF8E434FFF940
:10409300C3E89401E99400A2D265D03350030241EE
:1040A300F4850C82850D83E0F5107003024203C38F
:1040B30094064003024203E51075F007A4FEAFF037
:1040C300FAEFFB1219A78A148B15EA451570030240
:1040D30041FEEEFCEFFD79001218E7AE12AF137547
:1040E3000B008034E8FEE9FF85160C85170D780C6C
:1040F300122067750C04750D00780C122067EEFC16
:10410300EFFD7A0079001203F37404121DFAA8116B
:10411300EE28FEE43FFF050BE50BC39510506675D3
:104123001104E50B75F007A4F8A9F0E51428F516BA
:10413300E51539F5178E828F83A3A882A9838E8212
:104143008F83E0FA609E74042AF511E8FEE9FFE527
:1041530011F50C750D00FCAD0DEEFAEFFB12189383
:104163008A0E8B0FEA450F7005750A138042851678
:10417300128517137812122067780C122067AC0E81
:10418300AD0F024105E510650B70251243B71220F0
:104193006B750A01780A12206BA910AC14AD15AA2D
:1041A30008AB0912071D7402121DFAE9F50A6034FF
:1041B300750B008021E50B75F007A4F8A9F0E51451
:1041C30028F582E51539F583A3A3125B58EA4B6002
:1041D30003121959050BE50BC3951040D8AA14AB6C
:1041E300151219ADE50E450F6007AA0EAB0F121994
:1041F30059A90A12188D7416025EE4750A1380F128
:10420300750A0280EC7401121E428A0E8B0F780E1F
:10421300122067E9123BBF122067AC0CAD0D7A0088
:10422300790012038D7404121DFAE970C41243C09D
:10423300121E4AAA08AB09120723E9F50A80B274D1
:1042430001121E428A0E8B0F780E122067E9123B71
:10425300BF122067AC0CAD0D7A0079001203B7745E
:1042630004121DFAE9708A1243C0121E4AAA08AB4F
:104273000912072980C4E9123BC61218938A0E8BD0
:104283000FEA450F70030241F47401121E3A880CC1
:10429300890D780C1220671243E5122067AC0EAD2E
:1042A3000F7A00790012039F7404121DFAE9600368
:1042B3000241ED1243C0121E4AAA08AB0912072F8E
:1042C300804F1243971218938A0E8B0FEA450F7093
:1042D300030241F47401121E3A88128913781212F0
:1042E30020671243A4122067AC0EAD0F7A00790049
:1042F30012041D7404121DFAE960030241ED850CDA
:1043030082850D831243C3121E4AAA08AB09120801
:1043130001E9F50A60030241ED8063124397121825
:10432300938A0E8B0FEA450F70030241F474011256
:104333001E3A8812891378121220671243A412209E
:1043430067AC0EAD0F7A00790012041D7404121DC0
:10435300FAE960030241ED1243B712206B850C8228
:10436300850D83E0F97402121E4AAA08AB091207ED
:10437300FB7401121DFAE9F50A60030241ED7404AE
:10438300121E301243DA70030241E70241F4750A48
:10439300010241F4E924FDFCE434FFFDAA12AB134E
:1043A30022851082851183E024FDF510E434FFF5A6
:1043B30011781022900EFCE0F50A780A22900EFC88
:1043C300E0F9740122E0FCA3E0FDAA08AB0922A3F3
:1043D300A3A3A3A3A3A3A31243DF49221256BCF9A9
:1043E300E822851082851183E024FEF50CE434FF76
:1043F300F50D780C2274EA121E5474A5121DE48C78
:104403000E8D0F8A828B83A3A3A3A3E0FEA3E0FFF9
:10441300751200EE2404F510E43FF511EE2403F5C4
:104423000CE43FF50DEE2402F508E43FF5098E8216
:104433008F83A385820A85830BE970030244D72403
:10444300FD70030245DD1470030246261470030257
:1044530046641470030246C914700302473D147086
:104463000302475414700302466F14700302475F3C
:104473001470030247CE147003024A35147003020A
:104483004AD71470030249B31470030249351470F8
:104493000302492C14700302477824E17003024A93
:1044A30057147003024A8C147003024A46147003B3
:1044B300024ADF147003024B43147003024B55147A
:1044C3007003024B68147003024B5D147003024BBC
:1044D30068024B6D8E828F83E0F5147C107900AAFD
:1044E30008AB0912194DE9701B750C10750D007896
:1044F3000C122067AC08AD097A657B0F1218CF74D4
:1045030002121DFAEE2412F508E43FF5097C107936
:1045130000AA08FB12194DE9701B750C10750D00EC
:10452300780C122067AC08AD097A757B0F1218CF8F
:104533007402121DFAEE2422F582E43FF583124B36
:10454300F7EE2423F582E43FF583124C1B121BBDC7
:10455300780C7910121BDCEE2424F582E43FF583FA
:10456300123146121BBD780C7910121BDCEE242588
:10457300F582E43FF583124BEC121BBD780C7910E6
:10458300121BDCE50C450D450E450F6008900EFD32
:10459300780C121CAB7508FD75090E78081220679C
:1045A30075087575090F78081220677C657D0F857E
:1045B3000A82850B83E0FBAA14900EFCE0F9121724
:1045C3005B7404121DFAE9F512900EFCE0FC7D0009
:1045D3007A267B001204A7024B7075080075090048
:1045E300908286740A121E4A7406121CF7750C0612
:1045F300F50D780C122067740C121E4AAA0AAB0B35
:104603001218E17402121DFAE964016006850A08B2
:10461300850B09AA08AB098E828F83E0F91204BFC8
:10462300024B58900EFCE0C0E07410121E30D0E034
:10463300124C85E0C0E07411121E30D0E0124C948D
:10464300C0E07412121E30D0E0124C8BC0E0741321
:10465300121E30D0E0F07410121E42120447024BB7
:1046630058900EFCE0F912044D024B58900EFCE0FA
:10467300851882851983124C85E0C0E07401121EEF
:1046830030D0E0124C94C0E07402121E30D0E0121D
:104693004C8BC0E07403121E30D0E0F07508067531
:1046A30009007808122067AC0CAD0D7406121E3099
:1046B300AA82AB831218CF7402121DFAAA18AB197F
:1046C300120489024B588E828F83E08518828519E4
:1046D30083124C94C0E07401121E30D0E0F00E0E31
:1046E300AF097508067509007808122067EEFCEF1C
:1046F300FD7404121E30AA82AB831218CF74021207
:104703001DFA8E828F83A3A3A3A3A3A3E0C0E074A7
:1047130008121E30D0E0124C85A3A3A3A3A3A3A326
:10472300E0C0E07409121E30D0E0F0AA18AB199073
:104733000EFCE0F91205CD024B58AC08AD09E0FBC5
:104743008E828F83E0FA900EFCE0F91205D3024BC0
:1047530058900EFCE0F91205D9024B588508828562
:104763000983E0FC124C31E439FB900EFCE0F912B2
:104773000531024B58124C02851882851983123079
:10478300090E0EAF098E828F83124BE1EAF8740291
:10479300121E301230080E0EAF11124C2574041283
:1047A3001E30124C9D50010F124C257406121E3000
:1047B300124C9D50010F124C257408121E301230FA
:1047C30008AA18AB19120537024B58750E00750F5E
:1047D300007C187D0079007414121E421218E7122F
:1047E3004C02F87414121E30E8F0A3E9124C8BC08B
:1047F300E07416121E30D0E0125B61C0E074171231
:104803001E30D0E0F0AE10AF1175081075090078B6
:1048130008122067EEFCEFFD741A121E30AA82AB59
:10482300831218CF7402121DFAEE2410124BC9C062
:10483300E07428121E30D0E0F0EE2411124BC9C0F0
:10484300E0742B121E30D0E0F0EE2412124C08EA72
:10485300A2E35004D2F08002C2F0124BD1121DD158
:10486300124B7C121DD1124BB3121DD1124BA0124D
:104873001DD1124B8D121DD1ECF8ED4509F97429A8
:10488300121E30123008EE2413124BC97003024972
:104893001DEE2414124BC9C0E0740A121E30D0E07E
:1048A300F0EE2415124BC9C0E0740B121E30D0E099
:1048B300F0EE2416124BC9C0E0740C121E30D0E087
:1048C300F0EE2417124BC9C0E0740D121E30D0E075
:1048D300F0EE2418124C08750900EAA2E35004D242
:1048E300F08002C2F0124BD1121DD1124B7C121D6B
:1048F300D1124BB3121DD1124BA0121DD1124B8DED
:10490300121DD1ECF8ED4509F9740E121E30123068
:1049130008740A121E3A880E890FAC0EAD0F741478
:10492300121E42120543024B58124C4D1205490206
:104933004B58124C66122067EEFCEFFD7442121EB8
:10494300421218CF7402121DFAEE2410FE50010F0A
:10495300124C257450121E30124C9D50010F750CD1
:1049630008780C122067EEFCEFFD7454121E30AA77
:1049730082AB831218CF7402121DFA8E828F83A327
:10498300A3A3A3A3A3A3A3E0C0E0745A121E30D031
:10499300E0F0750901780912206B7441121E4AA9CF
:1049A30008AA0AAB0B12055B7401121DFA024B58DD
:1049B300124C66122067EEFCEFFD742E121E42129B
:1049C30018CF7402121DFAEE2410FE50010F8E82CE
:1049D3008F83E0F50CE4F50EF50FA3124C1B121BAD
:1049E300BD780C7910121BDC8E828F831231441236
:1049F3001BBD780C7910121BDC8E828F83A3A3A3BB
:104A0300124BEC121BBD780C7910121BDC743C1298
:104A13001E30E50CF0A3E50DF0A3E50EF0A3E50FC2
:104A2300F0742C121E4AA908AA0AAB0B12053D0208
:104A33004B58124C31FCE439FDAA08AB0912054F5F
:104A4300024B58EE2410FCE43FFDEEFAEFFB120597
:104A530013024B588E828F83E0FA7B00850A82858E
:104A63000B83E0FC850882850983E0F9EC2BE439AC
:104A7300FDEA64267003024B68EA942795E040033D
:104A8300024B681204A7024B5878FF79FF8E828F7E
:104A930083E0FA7B00C394FF95E05022EA6426602A
:104AA3001DC3EA942795E050151204AD8A088B09BB
:104AB300A808A90974FF68700374FF69700375126D
:104AC30002850E82850F837402F0E8900F33F0E9BC
:104AD300A3024B65124C4D12064B8079E0F50EF59F
:104AE3000C750D002404FAE43400FB1219A78A0A9A
:104AF3008B0BEA450B60448E828F831258A4F0A37C
:104B0300E50EF0EA2404FAE4350BFB850A82850BF3
:104B130083A3A3EAF0A3EBF0780C122067AC08ADF3
:104B2300091218CF7402121DFAAA0AAB0B1205DF81
:104B3300E9F5126038AA0AAB0B8012751213802DA7
:104B43008E828F83E0F91205E5EA4B60181219ADE6
:104B5300801B1205EBE9F51280137512028C828D0E
:104B630083E4F080087512028003751201A91274A0
:104B73005B121DFA7F0E021F26EC45085407FCA2A8
:104B8300F0E433F5087403780822ED4509FDEAA241
:104B9300E7E433F508750900740B780822ED45093D
:104BA300FDEAA2E6E433F508750900740A780822E1
:104BB300EC4508FCEAA2E4E433FDEAA2E5E433F5BC
:104BC300087409780822F582E43FF583E02254FD56
:104BD300FCE828F8EC4854FBFC7402780822E0FA5D
:104BE300850C82850D83E0F922E0F510E4F512745B
:104BF30018781022E0F50CE4F50DF50EF50F2212EE
:104C03004C3FF9EA22F582E43FF583E0FAC313F857
:104C1300EA1313543FF5082212314EF51374087842
:104C230010228E828F83E0FAA3E0F9EAF822124C75
:104C33003522124C3FF8E4C8F9EA28228E828F838A
:104C4300E0FA850A82850B83E02285088285098341
:104C5300E0F98E828F83E0FC850A82850B83E0FB7B
:104C6300ECFA22124C35F50AE439F50B85088285F6
:104C73000983E0F5080E0E0EAF0D750C10880D7844
:104C83000C22F08E828F8322F0850882850983E0CF
:104C930022F0850A82850B83E022E8F0A3E9F0EE97
:104CA3002402FE2274F4121E5474FD121DE4EAFE63
:104CB300EBFF851882851983E4F0F508F5090412E2
:104CC3001E30E4F07402121E307401F07C2C7D005F
:104CD30079007A017B0F1218E78E828F83E02460BC
:104CE300606F24FE605124F27003024D7D14700343
:104CF300024DAB24E16003024DCC7402121E3A88CC
:104D030008890978081220677403121E3A880889F3
:104D13000978081220677404121E3A8808890978F2
:104D2300081220677C017D0FEEFAEFFB12186974FD
:104D330006121DFA024DC8A818A91988088909780E
:104D4300081220677C017D0FEEFAEFFB12186F80CB
:104D53006F7401121E3A8808890978081220677453
:104D630002121E3A8808890978081220677C017D9F
:104D73000FEEFAEFFB12187580277401121E3A88A2
:104D830008890978081220677402121E3A88088974
:104D93000978081220677C017D0FEEFAEFFB1218E9
:104DA3007B7404121DFA801DA818A91988088909A3
:104DB30078081220677C017D0FEEFAEFFB12188151
:104DC3007402121DFA8A088B097402121E30E06005
:104DD30007EEFAEFFB1218F9851882851983E06054
:104DE3000AAC08AD09FA79FF120B37E508450960EB
:104DF300117401121E30E064017007AA08AB091296
:104E030019AD79007403121DFA7F04021F2674E89A
:104E1300121E5474FC121DE48A088B09ECFEEDFF8C
:104E2300751000750A00750B007420121E30125E97
:104E3300D02406F8E43FF9EE2405FAE43FFBEE2420
:104E430002F516E43FF5178E828F83A385821285C0
:104E53008313E5082403F50CE43509F50D85088271
:104E6300850983A385820E85830F8508828509833F
:104E7300A3A3E0605D147003024F68147003025033
:104E83008914700302509B1470030250A31470031F
:104E93000250B614700302516B1470030251811453
:104EA30070030251DE1470030251F81470030252AE
:104EB300AA14700302526E1470030255C4147003D3
:104EC3000256001470030254E414700302550B02DB
:104ED30056A38E828F83E4125862122067AC0CAD06
:104EE3000DEE2403FAE43FFB1218CF7402121DFAED
:104EF3001258C4C0E0125707D0E0F07508107509C6
:104F03000078081220677C657D0FEE240CFAE43FDD
:104F1300FB1218CF7402121DFA78081220677C75F1
:104F23007D0FEE241CFAE43FFB1218CF7402121D0E
:104F3300FA850E82850F83E070217C657D0F7A10E0
:104F43007902121A0D7C757D0F7A107903121A0DEE
:104F53007CFD7D0E7A047904121A0D8E0A8F0B756F
:104F6300102C0256A3850E82850F83E06003025046
:104F730061850C82850D83E07003025076333333F1
:104F830054F82404F510FA7B001219A78A0A8B0B34
:104F9300EA450B70030250588A828B8374011258BE
:104FA3008AEA2404F8E4350B123001850882850966
:104FB300831256B8F97402121E30123008751100AC
:104FC30080787402121E30125B47E0C0E0125B412E
:104FD300D0E0F07402121E30125B47A3E0C0E0126F
:104FE3005B41A3D0E01257972402122FFC750806E9
:104FF30075090078081220677404121E30E0240239
:10500300FCA3E03400FD7402121E30125B5B121825
:10501300CF7402121DFA851882851983E0240612C3
:105023002FFC05117402121E30E02408F8A3E034AB
:1050330000F97402121E30123008850C82850D832C
:10504300E0F8E511C3985003024FC5741E121E30D9
:105053001257598008850E82850F837413F0850ECD
:1050630082850F83E0700C850C82850D83E06003DD
:105073000256A38E828F83740112583E8E828F83D1
:10508300A3A3A3E480098E828F8374021258AA1209
:1050930057BA7510040256A38E828F837403800659
:1050A3008E828F83740412583E8E0A8F0B75100301
:1050B3000256A38E828F8374051257A00412594996
:1050C3001220671257421218CF7402121DFA850874
:1050D30082850983A3A3A3A3A3A3A3A3A3A3125F6B
:1050E30093125810C0E0125707D0E0125884C0E062
:1050F3001256FDD0E01257ADE0C0E01256CBD0E01F
:105103001257ADA3E0C0E0EE240EF582E43FF58331
:10511300D0E0F0E508240F1256D5C0E0EE240FF5D9
:1051230082E43FF583D0E0125B6AC0E012572BD0D4
:10513300E0F0E50824111256D5C0E0125721D0E063
:10514300125B6AC0E0EE2412F582E43FF583D0E0FF
:10515300F0E50824131256F4C0E0125711D0E01200
:1051630057BA7510140256A38E828F837406125792
:10517300A01259248E0A8F0B7510060256A38E8235
:105183008F8374071257A01412584185088285092A
:1051930083A3A3A312581F850882850983A3A3129F
:1051A30058A01257CA888289831258531257DE8E29
:1051B300828F83A3A3A3A3A3A3A3A31257CF12579F
:1051C300551258108E828F83A3A3A3A3A3A3A3A3D3
:1051D300A3A31257BA75100B0256A38E828F837442
:1051E300081259461220671257421218CF7402123E
:1051F3001DFA0255BA8E828F837409125946122002
:10520300671257421218CF7402121DFA850882855D
:105213000983A3A3A3A3A3A3A3A3A3A3780C121CEF
:105223009C8E828F83A3A3A3A3A3A3A3A3A3A3124D
:105233005808121C9CE50DF50C125707125808125A
:105243001C9C7410780C121BA41256FDE50C12570B
:10525300CF7808121C9C74187808121BA41256CB22
:10526300E5081257BA75100E0256A38E828F837407
:105273000B125862122067AC0CAD0DEE2403FAE456
:105283003FFB1218CF7402121DFA1258C4C0E01269
:105293005707D0E0125884C0E01256FDD0E01257F1
:1052A300BA75100D0256A375106A7A6A7B0012193B
:1052B300A78A0A8B0BEA450B70030254D1741E12A2
:1052C3001E30125759F07C6A7D0079001218E78569
:1052D3000A82850B83740AF0A3AE82AF831256C190
:1052E300125F931257C0125B2C12581FEE24211227
:1052F30057351243D460788E828F83A3A3A3A3A3CD
:105303007401125800125F8BA3A3A3A3A3F0EE248E
:1053130007FE50010F750E10750F00780E122067EF
:105323008508828509831257871218CF7402121DCC
:10533300FA850882850983125777C0E012572BD06C
:10534300E012580012571BC0E0125721D0E0F0EED4
:105353002412FE50010F750E08780E12206785087F
:10536300828509831257631218CF7402121DFAAE95
:105373000CAF0DEE241C125735A3A31243D2607851
:105383008E828F837401125836125F8BF0EE2402E3
:10539300FE50010F750E10750F00780E12206785F1
:1053A3000882850983A3A31257851218CF740212AA
:1053B3001DFA850882850983A3A3A3A3125777C087
:1053C300E012572BD0E012583612571BC0E0125789
:1053D30021D0E0F0EE2412FE50010F750E08780E76
:1053E300122067850882850983A3A3A3A3125763A9
:1053F3001218CF7402121DFAAE0CAF0DEE2417F57E
:105403000CE43FF50D1256E01243DA60438E828FAF
:10541300837401F0A30EAF83750E10750F00780E21
:105423001220671256E012578D1218CF7402121D04
:10543300FAEE2410FE50010F750E06780E12206747
:105443001256F0241012576C1218CF7402121DFA60
:10545300AE0CAF0D8508828509831243D270030217
:1054630056A38E828F837401F0A30EAF83750C1045
:10547300750D00780C122067850882850983125701
:10548300851218CF7402121DFA850882850983A339
:10549300A312577C780C121C9CEE24101258FC1299
:1054A3001C9CE50DF50CEE24111258FC121C9C7487
:1054B30010780C121BA4EE24121258FC121C9C74BC
:1054C30018780C121BA4125711E50C0256A28E82F7
:1054D3008F83740A1257A8851682851783741380E5
:1054E300168E828F83740E1257A8850E82850F83C2
:1054F300E08516828517831257C0A31257F78E0AC9
:105503008F0B7510050256A38E828F83740F12576B
:10551300A07406125924850882850983A3A3A3A333
:10552300A3A3E0888289831257CA8E828F83A3A3A1
:10553300A3A3A3A3A3125853A31257DEF8A3E0F91E
:10554300E8A2E0E433F508E8540260047A0280023A
:105553007A00EA4208E8540460047A0480027A007C
:10556300EA4208E8540860047A0880027A00EA42B2
:1055730008E9540160047A1080027A00EA4208E9DB
:10558300540260047A2080027A00EA4208E9540453
:1055930060047A4080027A00EA4208E95408600411
:1055A300788080027800E845088E828F83A3A3A3C6
:1055B300A3A3A3A3A3A3F08E0A8F0B75100A02560D
:1055C300A38E828F83740C1258AA1257F7750A069A
:1055D300780A122067E5082405FCE43509FD121852
:1055E300CF7402121DFAE508240B1256F4C0E01220
:1055F3005707D0E01257BA75100C0256A31256F093
:10560300240DF510FA7B001219A78A0A8B0BEA45C1
:105613000B700302569A8A828B83740D12588A8503
:1056230008828509831258A0A3A3A3A3F0EA240543
:10563300FEE4350BFF750C06750D00780C12206720
:10564300E5082405FCE43509FDEEFAEFFB1218CF5B
:105653007402121DFAE508240BF582E4350912578A
:105663005312587E8E828F83A312587EF50C780CCA
:10567300122067E508240D1256F4FCA3E0FDEE2486
:1056830008FAE43FFB1218CF7402121DFA741E12BB
:105693001E301257598008850E82850F837413F0CC
:1056A300741C121E30125B47E510F0AA0AAB0B7490
:1056B30004025EE4A3A3A3A3A3E0F8A3E022740679
:1056C300F0850E82850F8322EE240DF582E43FF5EB
:1056D3008322F8E43509F988828983E0221256E4AB
:1056E30022E508240CF582E43509F58322E5082434
:1056F3000CF582E43509F583E022EE240CF582E40F
:105703003FF58322EE240BF582E43FF58322EE245A
:1057130013F582E43FF58322125911A3E022EE240C
:1057230011F582E43FF58322EE2410F582E43FF580
:105733008322F50CE43FF50D85088285098322E574
:10574300082404FCE43509FDEE24041AE43FFB229B
:10575300F5831258302212575D22125B4B740122DB
:10576300A3A3A3A3A3A3E02412FCA3E03400FDEEB0
:10577300FAEFFB2212577CE022A31256B7C8125944
:105783001522A3A3A3A3A3A3A3A3E0FCA3E0FDEE7D
:10579300FAEFFB22F0851882851983E022F0851247
:1057A3008285138322125845F022F0E508240DF573
:1057B30082E43509F58322F08E0A8F0B22125B6592
:1057C3008E828F83A3A3221257E5E0221257D3229E
:1057D3001257D7221257EDA3A3A3221257E5A3A36F
:1057E300E0221257E9221257ED22125FB5A3A3A3B9
:1057F300A3A3A322125B271258B7A3F022125FAD13
:105803001256B7C822E50C1257D3780C22A3A3A3D0
:10581300A3A3A3A3A3A31257D3A3E02212582F1227
:10582300593A8E828F83A3A3A3A3F022A3E08E828F
:105833008F83221258F7F8A3E0C822125845125852
:105843006E2212584922F085128285138374062230
:1058530012591E8E828F83A3A3A3A3A3A3A32212F1
:10586300586B750A06780A22125849125872221286
:1058730056C3E0851682851783F022A3A3A3A3A3AF
:10588300A3F01256E4E022F0A31256C11258A4A3C7
:10589300A3125B658A828B83A3A3A3F022A3A3A392
:1058A300A3E08A828B832212586B850C82850D8339
:1058B3001258B7221258BB22E08E828F83A3A3A370
:1058C30022850882850983A3A3A3A3A3A3A3A3A3D8
:1058D300125FA5A3A31258F78E828F83A3A3A3A35A
:1058E300A3A3A3A3A3A3F0E508240BF582E435093E
:1058F300F583E0221257D7E022F582E43FF583E5F2
:105903000C12591EF8A3E0C8125911780C2212592F
:1059130015222410F582E438F583221257E9A3E017
:1059230022125952850C82850D8312582FA31259C6
:105933003A8A828B83F022A3A3A3125FB1A3A3A30A
:10594300A3E022125845125952750A06780A221208
:105953005872850C82850D831258BBF02274F112A4
:105963001E54EAFEEBFF8C088D09EE2405F50CE4CA
:105973003FF50D8E828F83A385820A85830B8E82EA
:105983008F83A3A312207E850A82850B83E0F9858A
:105993000C82850D83E04480FC7D04AA08AB0912C8
:1059A30018877402121DFAE9F50E850A82850B83A6
:1059B300E07035E50829FAE43509FBEE2406FCE43A
:1059C3003FFD850C82850D83E014600A24F6601088
:1059D30024F860078012120C638008120C7B80038A
:1059E300120C93EA250EF50E740F121E30125B474C
:1059F300E50EF0AA08AB097F07021F2674EA121E00
:105A0300548A0E8B0F8C128D138A828B83A3E0F53D
:105A13000A7418121E30E0F510A3E0F51185108208
:105A2300F583E4F0EA2408F50CE4350FF50D850C55
:105A330082F583E02409FEA3E03400FFC3EE942D36
:105A4300EF94004032EEFAEFFB1219A78A088B0994
:105A5300EA4509600B8510828511837401F0801B70
:105A6300851208851309850C82850D83E0F8C3EE42
:105A730098FE750A1380048C088D09850E82850FA4
:105A830083A3A312207EA90A7CF07D04AA08AB0994
:105A93001218877402121DFAE50E2404F8E4350F78
:105AA300F988828983125B34125B6A8508828509CF
:105AB30083A3A3A3A3A3A3125B61850882850983A0
:105AC300A3A3A3A3A3A3A3125B27125B34A3A3A340
:105AD300F0E50E2406F50E5002050FF582850F83BF
:105AE300E0FCA3E0FDEC4D602AE50A701A850C8208
:105AF300850D8312207EE5082409FAE43509FB129B
:105B030018CF7402121DFA850E82850F83125B5B18
:105B13001219597416121E30125B47EEF0AA08AB25
:105B230009024B77125B2CA322F0850C82850D832F
:105B330022E0850882850983A3A3A3A3A322851852
