:020000040000FA
:10080000020CDB022289FFFFFFFFFFFFFFFFFFFF5C
:10081000FFFFFFFFFFFFFFFFFFFFFFFFFFFFFFFFE8
:10082000FFFFFFFFFFFFFFFFFFFFFF0229E8FFFFC2
:10083000FFFFFFFFFFFFFFFFFFFFFFFFFFFFFFFFC8
:10084000FFFFFF022984FFFFFFFFFFFFFFFFFFFF06
:10085000FFFFFF0222FFFFFFFFFFFFFFFFFFFFFF82
:10086000FFFFFFFFFFFFFFFFFFFFFF0229ADFFFFBD
:10087000FFFFFF022A40FFFFFFFFFF022A05FFFFE5
:10088000FFFFFF0220DF01FFFFFFFFFFFFFFFFFF72
:100890002DA9FFFFFF0000B4000028002800283029
:1008A00075A000A000A000A00000080008E001F072
:1008B0000010001000100010001000100050005038
:1008C00000500010001000D0070000000000000FD2
:1008D0000001000500307507001000010081FF00D5
:1008E000000000FFFFFFD22CF02CD82C142DFF02AB
:1008F000020208025000A0000000E80302938201F7
:100900000000AD81028F820100001617028D820166
:100910000000BE02028F82010000171702998201B7
:100920000000D402028F820100001817029F82018A
:100930000000D602028F82010000191702A582086A
:100940000000D702028F820100001A1702A982015B
:1009500000001B17FF0100FF200293820100007DB1
:1009600082028F820100007F1702C5820000000012
:100970000002898203000005031700803380338062
:1009800033803380338033803380338033803380CF
:1009900033803380333E365036383602020202024C
:1009A00002020202010D0000001001029382010008
:1009B000008382028F82010000C21702B18201000F
:1009C000003F07028F82010000C31702AF820100BF
:1009D000004981028F82010000C41702AD8201002C
:1009E000002081028F82010000C51702AB82010046
:1009F00000BB80028F82010000C61702A3820100A3
:100A000000A980028F82010000C71702A1820100A5
:100A1000009780028F82010000C81702BF82010088
:100A200000CD80028F82010000C917029D82010063
:100A3000002E81028F82010000CA17029B820100F2
:100A400000CB1701E8030577100AFFFFFF00013014
:100A50007503020106000000000000000000000015
:100A60000000000000000000000000000000000086
:100A700000FFFF0600800CE8030909434F324E4E89
:100A8000454354051250002003020A0002010603E8
:100A900002F0FF0302E0FF434F324E4E454354D66F
:100AA0003A0000DC3A49276D207374617274656402
:100AB00021212100000000000000000000000000D3
:100AC0000000000000000000000000000000000026
:100AD000000000000000000A4368617261637465F1
:100AE00072697374696320310002436861726163E3
:100AF00074657269737469632032000843686172B7
:100B000061637465726973746963203300104368AC
:100B10006172616374657269737469632034000281
:100B200043686172616374657269737469632035C7
:100B3000000293820100008082028F82010000FE89
:100B40001802B582030000AD16028B82010000FF7F
:100B500018028F82010000101902B782010000AE56
:100B600016028B820100001119028F8201000022FF
:100B70001902B982020000AF16028B820100002325
:100B800019028F82010000341902BB82000000B0FC
:100B900016028982030000B116028B820100003523
:100BA00019028F82010000461902BD82040000B3C1
:100BB00016028B820100004719104B657920507294
:100BC00065737320537461746500029382010000A1
:100BD0008682028F82010000E01902A782000000D5
:100BE000B816028982030000B916028B8201000048
:100BF000E1193031323334353637383941424344E4
:100C0000454600286E756C6C20706F696E74657255
:100C10002900303132333435363738396162636414
:100C20006566003F3F3F000000807F0000803F007E
:100C3000000000F9021550B743BA510000204100EE
:100C4000E7DB2E0000A040E5C754F84401F5C77962
:100C5000012200000080FB120C47B90003020CC502
:100C6000E479217808B800028004F709D8FCE47917
:100C7000297802B800028004F709D8FCE4900280C9
:100C8000783C79158002F0A3D8FCD9FA781A90083C
:100C9000867A01BA00028007E493A3F608DAF97AAB
:100CA000BB7B1690089478B479048015E493A3ADC7
:100CB00082AE838A828B83F0A3AA82AB838D828EDD
:100CC00083D8E9D9E77582127583D67403120CEDC7
:100CD00075825275830C7400120CED75D00075810D
:100CE0003F751880751902759F00020C57C09FF55B
:100CF0009FE473D09F22D083D082C09FE493C0E052
:100D0000740193C0E0740293F59F22E066701008AE
:100D1000A3E066700A08A3E066700408A3E06622F8
:100D2000C008C3E096F50808A3E096420808A3E0CF
:100D300096420808A3E0964208A2D265D033E5089F
:100D40007001D3D00822C3E7960809E7960809E79F
:100D5000960809E79622C3E09608A3E09608A3E068
:100D60009608A3E09622C008C3E096F50808A3E021
:100D700096420808A3E096420808A3E0964508704A
:100D800001D3D00822080808E630E71112163F12F6
:100D90000D9D080808C64480C6181818221818188F
:100DA000E9799EC608CAC608CBC608CCC6C370205F
:100DB0007996CACBCC7019798ECBCC70137986CC4E
:100DC000700EF9802ACA33CACB33CBCC33CC33195B
:100DD00030E7F2CCCBCA3350147004EA30E00DE4B3
:100DE000CA3ACACB3BCBCC3CCC500209C3E913C6B0
:100DF000CC182313C6CB18C6CA18C6F922120E3D4A
:100E000020F01430E72B74FFFCFBFA747F8022E49F
:100E1000FCFBFA7480801AB48008BC00F2BB00EFBF
:100E2000800F50EBF9E4C39AFAE49BFBE49CFCE4EA
:100E300099C6CC18C6CB18C6CA18C6F922E4C9C6CA
:100E400008CAC608CBC6D3330308CCC63392F0C356
:100E5000947F402E94184019C9B90704CACBCC22FC
:100E60005025C309CA33CACB33CBCC33CC33D9F4E6
:100E700022F4600DC9CCC313CB13CBCA13CAD9F665
:100E8000CC22E4FCFBFA2214FCFBFA22E6261846EC
:100E90001846184622E727194719471947221818F4
:100EA00018E60846087009E626087005E633F422BD
:100EB0000822191919E70947097009E72709700578
:100EC000E733F4220922E6084608C31346083360D4
:100ED00002E633F422E7094709C3134709336002E6
:100EE000E733F422120EC66025120ED56020120ED2
:100EF0008C7003020E95080808E76670101819E751
:100F000066700A1819E76670041819E76622F42259
:100F1000120EC6601C120ED56017120E8C700712CE
:100F20000E957001D322C0D0120E957006D0D0B3AA
:100F300022C32233D0D0501430E0F6C3E79608091C
:100F4000E7960809E7960809E796B32220E0D5E678
:100F5000970809E6970809E6970809E697B3221269
:100F60000EC6601B120ED56016120E8C7007120E84
:100F700095600CB322C0D0120E957005D0D022C35C
:100F80002233D0D0501330E0EBC3E7960809E79640
:100F90000809E7960809E7962220E0E4E6970809A1
:100FA000E6970809E6970809E6972200120EC66040
:100FB0004F120ED56012E7548066F6120E9E701125
:100FC000120E95703B090909F4F618F618F618F692
:100FD00022120EB27015120E8C08080860EAE64460
:100FE0007FF618768018E4F618F622120E8C60163A
:100FF000120E957012E4F608F608F608E65480F62C
:1010000009090918181822EAC0E0EBC0E0ECC0E0BA
:10101000EDC0E0E687F0A4FBACF008E687F0A42C76
:10102000FCE435F0FA1809E687F0A42C4B60027452
:1010300001CA35F0FCE433FB09E687F0D2F7A42CB3
:10104000CB35F0FC1908E687F0A42BCC35F0FBE497
:1010500033FD0819E687F0D2E7A42C4ACB35F0CD52
:101060003400FC09E687F0D2E7A42DCC35F0FDE48E
:1010700033FA0918E687F0D2F7A42CCD35F0CA343C
:1010800000FC08E687F0D2E7D2F7A42ACC35F07A44
:101090007E20E70B0ACB33CBCD33CDCC33CC33CB57
:1010A0003350147004ED30E00ED2F1E4CD3DCDCCE0
:1010B0003CCC3B5005DA05C2F1EB547FC63308E661
:1010C0003392F0FBE73309E733C39A502D2B7019A5
:1010D0000C0D4C4D70151806E608C333700D20F149
:1010E0000AA2F013F6E418800B4024E4F630F00274
:1010F000768018F618F618F68024D33B1450107436
:10110000FFA2F013F6187680E418F618F6800FA206
:10111000F013F618E63303F618ECF618EDF6D0E007
:10112000FDD0E0FCD0E0FBD0E0FA22120ED5604604
:10113000120EC6603DE9687008F618F618F618F643
:1011400022748067F712115F090909748067F7221A
:10115000120EC6601D120ED57005191919801A12CB
:101160000E9E701F120EB2C37003E6673319191971
:1011700040071818182208080874FFF618F618F621
:1011800018F622120EB26017120E95702192F0120C
:101190000E8C7019501720F014080808090909E787
:1011A000F61819E7F61819E7F61819E7F622120EDD
:1011B0008C60E6E869701F0808E62480F608E436CB
:1011C000F618547FB47F0CE654806007F6E418F6F6
:1011D00018F622181822E9C6CC08C6CD08C6CE08D3
:1011E000C6CFC0E0E8C0E0EAC0E0EBC0E009E9F843
:1011F00009E7FA09E7FBE6F918E6F8C3EC98ED9978
:10120000EE9AEBC2E7F5F0EFC2E795F0500E600CF6
:10121000EBCFFBEACEFAE9CDF9E8CCF8EAA2E7D2C7
:10122000E7FAEB33FB13F5F0EEA2E7D2E7FEEF337C
:10123000FFC5F013A2E730E601B313C5F0C3C0E069
:10124000C0F07F00C39BFB605E9418600F401D14CC
:10125000601AD0E023F9D0E0F80213318AF0E948AF
:101260006003D2F0E4AFF0FAF9F8803BEB30E40D24
:1012700089F0EA6003D2F0E4AFF0F9CAF8EB30E3AA
:101280000D88F0EF6002D2F0AFF0E4CAC9F8EB5479
:10129000076014FBC3EA13FAE913F9E813F8EF1334
:1012A0005002D2E0FFDBEDD0E0C0E030E739C3E42C
:1012B0009FFFF5F0EC98FC42F0ED99FD42F0EE9ABC
:1012C000FE42F0D0E0F9D0E0F8E5F0607AE923F9E9
:1012D000EE20E742D8028067C3EF33FFEC33FCED2A
:1012E00033FDEE33FE80EAEC28FCED39FDEE3AFEEC
:1012F000D0E023F9D0E0F84002801BC3EE13FEEDEE
:1013000013FDEC13FCEF135002D2E0FF08B8000607
:101310007F7F74FF802EEF3350178CF020F0026037
:10132000100CBC000C0DBD00080EBE000408E860E7
:10133000DFE933E813FFEE2313FE4F4D4C8008E93D
:101340005480FFE4FEFDFCEE33EF33F47004FCFD4B
:101350007E80D0E0FBD0E0FAD0E0F8D0E0CFC61835
:10136000CEC618CDC618CCC6F922120EC670041807
:10137000181822120ED5700D74FFF61819F61819E8
:10138000F61819F622E7548066F6120E8C700F12CA
:101390000E9570F014F608F608F608F680D1120ED5
:1013A00095700CF608F608768008E6447F80EC120B
:1013B0000EB5700C120EA160BFE65480F6E480BB3F
:1013C000120EA1700519191980A5E869700C763FF5
:1013D00018768018F618F6E8F922E6CDC0E018EC89
:1013E000C0E0E633CD33CDD313F6E719FCE7191986
:1013F00033CC33C3947F400ECD9D502408E65480F7
:10140000F6E418F6800FF4043D14501408E6447F07
:10141000F6187680E418F618F6D0E0FCD0E0FD224D
:10142000CCD313CCFD18E4C6CBC0E018E4C6CAC0C8
:10143000E00808ED08C633E613F618E433C675F085
:1014400003C3CA97CA09CB97CB199C40047D088077
:101450002EBD000302151316B6FF05060608161862
:10146000C3CA33CACB33CB33CA27CA09CB37CB194C
:101470003CC37D08803E187D0820E75CC633C6CAA1
:1014800033CACB33CB33DDF1D5F0EB30E77BCA97F2
:10149000CA09CB974ACB199C406F4B7025E620E0D8
:1014A000218066187D08C3CA97CA09CB97CB199CBF
:1014B000D3C633C6CA33CACB33CB3350C9DDE7D525
:1014C000F0E1D3E4C636C608C636C608C636C60836
:1014D000C636C61818188031C3CA97CA09CB97CB2D
:1014E000199CB34097C633C6CA33CACB33CB33DD5E
:1014F00034D5F02EC6A2E0C640C8CA27CA09CB37E9
:10150000194A70BECB3CB480B90808E63308E6330C
:10151000601F181818D0E0FAD0E0FBD0E0FCD0E053
:10152000FD22187D08CA27CA09CB37CB193CD380C6
:101530008013F618E4B67F11F618B6FF0EF618C63B
:101540000470D20808768080CAF618F618F680C5AE
:10155000080808EAC0E0EBC0E086F0E7A4FA180942
:1015600086F0E7A42AFA180986F0E7A42AFA1809EF
:1015700086F0E7A42AFA1986F0E7A4FBE5F02AFA38
:10158000190886F0E7A42BFBE5F03AFA190886F073
:10159000E7A42BFBE5F03AFA18180986F0E7A4C592
:1015A000F02BFBE43AFA1908E7C5F0C6A426F6E5E5
:1015B000F03BFBE43AFA1886F0E7A4F6E5F00826DB
:1015C000F6E43B08F6E43A08F6D0E0FBD0E0FA2275
:1015D000E4CFC0E0E4CEC0E0E4CDC0E0E4CCC0E0C5
:1015E00075F020E626F608E633F608E633F608E658
:1015F00033F6181818EC33FCED33FDEE33FEEF3301
:10160000FFC3EC9709ED9709EE9709EF97191919A0
:10161000400FFFEC97FC09ED97FD09EE97FE1919B5
:1016200006D5F0BFECF709EDF709EEF709EFF7196A
:101630001919D0E0FCD0E0FDD0E0FED0E0FF221888
:101640001818E4C396F608E496F608E496F608E45B
:1016500096F6226016080808C6C313C618C613C635
:1016600018C613C618C613C6D5E0EA2270090808C2
:1016700008226016181818C6C333C608C633C60831
:10168000C633C608C633C6D5E0EA22E627F60809FF
:10169000E637F60809E637F60809E637F622E026C7
:1016A000F608A3E036F608A3E036F608A3E036F61F
:1016B00022E026F008A3E036F008A3E036F008A305
:1016C000E036F022C3E697F60809E697F60809E641
:1016D00097F60809E697F622C3E096F008A3E0968D
:1016E000F008A3E096F008A3E096F022E056F60892
:1016F000A3E056F608A3E056F608A3E056F622E06B
:1017000056F008A3E056F008A3E056F008A3E05610
:10171000F022E0F608A3E0F608A3E0F608A3E0F65E
:1017200022E6F008A3E6F008A3E6F008A3E6F0221C
:10173000E0FAA3E0FBA3E0FCA3E0FD22E0F8A3E0D5
:10174000F9A3E0FAA3E0FB22E8F0A3E9F0A3EAF0B2
:10175000A3EBF022CAC0E0E6F0A308DAFAD0E0FA80
:1017600022CAC0E0E0A3C582CCC582C583CDC583B3
:10177000F0A3C582CCC582C583CDC583DAE6D0E0AF
:10178000CA22C3E498F8E499F91217C38026C3E487
:101790009AFAE49BFBE920E7E91217C3E498F8E41E
:1017A00099F922C3E498F8E499F91217C3E498F878
:1017B000E499F9C3E49AFAE49BFB22EB20E7CFE932
:1017C00020E7E0B90010BB0008E88AF084F8AAF02E
:1017D00022E4FBC8FA22EB70227B10C833C8C9335D
:1017E000C9335007C39AC3DBF280069A50012ADB43
:1017F000EAC833F4C8C933F4C9FA2275F008E4C85A
:1018000033C8C933C933C99AC99B5004C92AC93BD3
:10181000D5F0ECFBC833F4C8E4C9FA22600D08C661
:10182000A2E713C618C613C6D5E0F322600C08C69B
:10183000C313C618C613C6D5E0F422700422600D87
:1018400018C6C333C608C633C6D5E0F41822251817
:1018500010AF08F518400C15198008F5184002154E
:1018600019D2AF2200C0D0251810AF08F518500CBF
:1018700005198008F51850020519D2AFD0D02225DD
:1018800018F58210AF08F518400C15198008F518E6
:1018900040021519D2AF851983222518F582E43547
:1018A00019F583222518F8E43519F9222518FAE4E8
:1018B0003519FB222518FCE43519FD22E47325189F
:1018C000C582C0E0E51934FFC583C0E0E518C395C3
:1018D0008224F810AF0885831985821880088583D3
:1018E00019858218D2AFCEF0A3E520F0A37808E6E0
:1018F00008F0A3DEFAEFF0A3E58124FAF8E608F099
:10190000A3E608F0A3E608F0A30808E608F0A3E6BB
:1019100008F0A315811581D0E0FED0E0F8158115FF
:10192000811581E8C0E0EEC0E0222518C582C0E044
:10193000E51934FFC583C0E0E518C3958224F9108A
:10194000AF088583198582188008858319858218D8
:10195000D2AFCEF0A3E520F0A37808E608F0A3DE2E
:10196000FAEFF0A3E58124FBF8E608F0A3E608F01F
:10197000A30808E608F0A3E608F0A315811581D0B6
:10198000E0FED0E0F815811581E8C0E0EEC0E0226D
:10199000851983851882E0A3FEE0A3F5207808E08E
:1019A000A3F608DFFAE0A3FFE0A3C0E0E0A3C0E0F5
:1019B000E0A3C0E0E0A3C0E0E0A3C0E010AF088572
:1019C00082188583198008858218858319D2AFD043
:1019D00083D082020CF3851983851882E0A3FEE090
:1019E000A3F5207808E0A3F608DFFAE0A3FFE0A360
:1019F000C0E0E0A3C0E0E0A3C0E0E0A3C0E010AF1F
:101A0000088582188583198008858218858319D2F4
:101A1000AFD083D08222C0D02518C582C0E0E5199E
:101A200034FFC583C0E0E518C3958224F310AF08E6
:101A30008583198582188008858319858218D2AF1D
:101A4000C8F0A3E9F0A3EAF0A3EBF0A37908E70953
:101A5000F0A3D8FAECF0A3EDF0A3EEF0A3EFF0A31F
:101A6000D0E0F0A3D0E0F0A3D0E0F0A3E520F0A315
:101A7000E5F0F0A322851983851882E0C0E0A3E099
:101A8000F9A3E0FAA3E0FBA37808E0F608A3DFFAE5
:101A9000E0FCA3E0FDA3E0FEA3E0FFA3E0C0E0A321
:101AA000E0C0E0A3E0F5D0A3E0F520A3E0A3F5F0CB
:101AB00010AF08858319858218800885831985826F
:101AC00018D2AFD082D083D0E0F8D0E03274048056
:101AD00006740280027401C0E0F40412187FD0E0A2
:101AE000121754227404800474028000CCC0E0ED0C
:101AF000C0E0E518C39CCCAD1950011D10AF068C99
:101B0000188D1980068C188D19D2AF121761D0E08C
:101B1000FDD0E0FC22D083D082E9C0E0E493A3C3EF
:101B200086F0C5F095F0F908E493A386F0C5F0952A
:101B3000F0700BE493A3C3994005E9048002A3E489
:101B400075F002A42582F582E5F03583F583D0E0B7
:101B5000F9E493A3C0E0E493C0E022D083D082EC08
:101B6000C0E0EDC0E0E493A3FCE493A3FDED4C6082
:101B70000D121BA7EC24FFFCED34FFFD80EFE49376
:101B8000A3FCE493A3FDED4C600D121BE6EC24FFD7
:101B9000FCED34FFFD80EFD0E0FDD0E0FCE493A34A
:101BA000C0E0E493C0E022C0E0C3E493960874016F
:101BB000939618400FE493667008087401936618B2
:101BC00070007019A3A3C3E4939608740193961848
:101BD000A3A3400DD0E0D0E0D0E0021B97A3A3A3C5
:101BE000A3A3A3D0E022C0E0C0F088F0E493667025
:101BF000080874019366187000A8F0A3A3700BD0B6
:101C0000F0D0E0D0E0D0E0021B97A3A3D0F0D0E06A
:101C100022FFFFFF74F612192AEAFEEBFF8C088DF3
:101C200009EE2434F8E43FF9E8FCE9FDEE2435122E
:101C30001F27FAEE2437121F27F88508F0A4C8855D
:101C4000F00A8509F0A4250AF9EA28F8E439F97AB6
:101C5000257B001217C3EA8C828D83F0FA131313CD
:101C6000541FF8EE28F8E43FF9E8245DF582E439E2
:101C7000F583E0C0E074075AF8D0E0B800028004B1
:101C8000C313D8FCA2E0EE50082434F582E43F8070
:101C9000182436121F27F5F0EA84A8F0EE28F8E49D
:101CA0003FF9E82438F582E439F583E0F97F03024F
:101CB00019D674F712192AEAFEEBFFEE2434121F2C
:101CC00027C0E0EE2435F582E43FF583D0E0F08EC6
:101CD000828F83A3A3A3A3A3A3A3C082C0838E8266
:101CE0008F83A3A3A3A3A3E0F8A3E0F9D083D082BA
:101CF000E0C398F508A3E099F509EE247F121F27A9
:101D00006401703EEE2480F582E43FF583C082C01A
:101D1000838E828F83A3A3A3A3A3E0240108A3E05F
:101D20003400F9D083D082E0687003A3E0697012B8
:101D30007CB07D041232C0EE247FF582E43FF5834F
:101D4000E4F0AC08AD09EEFAEFFB121C14E9F9124D
:101D500029767F020219D6C082C083851882851930
:101D600083E0F8A3E0F9C3EA9CEB9D5010C3EC9824
:101D7000ED99401BC3EA98EB995014800EC3EA9882
:101D8000EB994007C3EC98ED994004790180027902
:101D900000D083D08222EAC39CFAEB9DFB2274EF31
:101DA00012192A900375E064086005E06407702A40
:101DB0009061C8E060249003A3E0F4601DE0F87532
:101DC000F00BA4C8AAF02AF974A528FE740339FF01
:101DD0008E828F83A3A3A3E07003021EAC90606089
:101DE000E0C0E0EE2468F582E43FF583D0E0F075D2
:101DF0000C20750D05750800750900E5D914F50A64
:101E0000E5D95403F50E60127403650E6043E50ACC
:101E1000600AEE2467121F277002807590051BE090
:101E20006401601F121F2460047A0480027A00E5B6
:101E30000AC39AFA95E0FB12316A8A088B09EA45CF
:101E40000970051235068064121F2470048A0C8BF9
:101E50000DE50A6012850C82850D83F50BE5D9F03E
:101E6000A3150BE50B70F6121F24604474FC250AC1
:101E7000F50A780C121AD1AC0AA90EEEFAEFFB1291
:101E8000337A7402121864E97026AA08AB09123971
:101E900080793D8E828F83A3A3A3A3E0FA7B0012F7
:101EA0002FCCEEFAEFFB1232E412338C7900806F04
:101EB0007403650E6051850A107511007810121AAE
:101EC000D1AC0CAD0DAA08AB0912333E7402121846
:101ED00064EE2468121F2764807004747F8001E020
:101EE000F50C780C121AD5E50EF50C780C121AD5F3
:101EF000A90AAC08AD099003A3E0FA7B00122FA257
:101F000074021218648013900375E06408600BACCF
:101F10000CAD0DEEFAEFFB12340412351279017F8D
:101F20000A0219D6EE2483F582E43FF583E0227499
:101F3000F212192A74FC12184EEAFEEBFF8909A26C
:101F4000AFE433F508C2AF021FF9E0601B780C1252
:101F50001AD1AC0BA90EEEFAEFFB12337474021215
:101F600018647404250BF50B7401250BF5D9850E47
:101F7000D9E50B6018F50A850C82850D83E0F5D94B
:101F8000A385820C85830D150AE50A70EA75E19533
:101F9000EE2463F8E43FF97A007B00A2AFE433F566
:101FA0000BC2AF88828983E0FCA3E0FDEC4D603A70
:101FB00088828983E0FAA3E0FB8A828B83E0FCA31A
:101FC000E0FD88828983ECF0A3EDF08A828B83E4C4
:101FD000F0A3F088828983E0FCA3E0FDEC4D700A59
:101FE00088828983A3A3E4F0A3F0E50BA2E092AF7B
:101FF0001239809004B7E004F0EE2463121F27F832
:10200000A3E0F9E8496064EE2463121F272402F874
:10201000A3E03400F988828983E5822402F50CE488
:102020003583F50DE0F50BA3E0F50EEE2462121FEB
:1020300027640170369061D0E0F8121F2460047CA0
:102040000480027C007480C398FA95E0FBE50B2CB9
:10205000F8E43400F9E82402F8500109C3EA98EBE7
:1020600099A2D265D0334003021F4A9004B7E060C2
:102070004D9004B8E0F89004B7E0C398500C740297
:102080006509703A9004B9E060348E828F83A3A30F
:10209000A3A3E08518828519831220CE740212183A
:1020A0009AE81220CE9004B6E028F074021218B418
:1020B000AA18AB197901122FF69004B7E4F0E508DD
:1020C000A2E092AF74041218647F070219D6F0A33D
:1020D000E4F09004B7E0F8228521878522C622C06B
:1020E000E074EB121A16A2AFE433F508C2AF759B89
:1020F00000906182E0A2E05030E591A2E0502A75A4
:1021000091FE740165217021122272123452122242
:1021100060121AE41227207404121864E964017032
:1021200005790112349A121D9E906182E0A2E55059
:102130005DE591A2E550577591DF900375E0640766
:102140006005E06408702F12227274016521703EF0
:10215000123452122260121AE41227207404121848
:1021600064E964017005790112349A7901EEFAEF9D
:10217000FB121F2F8018E0640D7013900397E0048A
:10218000F064287002E4F07A00E0F91235189061EA
:1021900082E0A2E64003022235E591A2E640030276
:1021A00022357591BF900375E06405700812343ACA
:1021B00012344680031234407521001234A6E9908F
:1021C0000376F0790012349A1232307A017B009053
:1021D0000374E0F9123950907803E064427056902D
:1021E000051FE014F0704EC2AF1221EC00782AD027
:1021F000E0F618D0E0F6E59F5407F87005750DFF7E
:102200008003750D7FC4C0E07829E6F50A08E6551D
:102210000DF50B740B780A12182CD0E0250AF890F3
:102220006270E0A2E740F8E8C333906272F0906217
:1022300070E0D2E0F0906181E0A2E35009E5E9A20C
:10224000E3500375E9F7A3E0A2E75009E591A2E79F
:10225000500375917FE508A2E092AF7F08021A75DE
:102260008E828F83E0F8A3E0C82416F582E438F567
:1022700083229003A3E0F875F00BA4C8AAF02AF912
:1022800074A528FE740339FF22C0E0C0D0C082C00C
:1022900083906183E0A2E05009E5BFA2E05003759E
:1022A000BFFEE0A2E15009E5BFA2E1500375BFFD0A
:1022B000E0A2E25009E5BFA2E2500375BFFBE0A235
:1022C000E35009E5BFA2E3500375BFF7E0A2E45075
:1022D00009E5BFA2E4500375BFEFE0A2E55009E5B0
:1022E000BFA2E5500375BFDFE0A2E65009E5BFA23B
:1022F000E6500375BFBFD083D082D0D0D0E032C0CB
:10230000E074F2121A16E5A7A2E6500FE5A1A2E6C4
:10231000500953A7BF75A1BF122353E5A7A2E550EB
:102320000CE5A1A2E5500653A7DF75A1DFE5A7A242
:10233000E15009E5A1A2E1500375A1FDE5A7A2E2E4
:10234000500CE5A1A2E2500653A7FB75A1FB7F014B
:10235000021A7574F712192A752101900375E06449
:102360000670151233B08A828B83A3A3A3A3A3A301
:10237000E0FAA3E0FB123428A2AFE433FED2AF9020
:10238000037BE0640170187A207B00900374E0F90D
:10239000123A6A7A207B00900374E0F91239569061
:1023A0006182E0D2E6F090051CE0602185C62280C3
:1023B0001690037AE064017008E5C654F84405F508
:1023C000C653BEFC1220D87401652160E4EEA2E081
:1023D00092AF7F020219D6FF8E238F248582288533
:1023E0008327851882851983E0CEA3E0CF852882D4
:1023F000852783EBC9EAC8EDCBECCA75F010C3E8BA
:1024000033C8E933C9EA33CAEB33CBC3EA9EF526B6
:10241000EB9FF525B35004AB25AA26EC33CCED3366
:10242000CDD5F0DAAE23AF242274E912192A74FA5A
:1024300012184EEAFEEBFF8C0A8D0B12345EEAF89E
:10244000EBF9ECFAEDFB8E828F831217489003753F
:10245000E024F7C394055006751401022590123349
:10246000B08A088B09EA4509700302258DEEFCEF5E
:10247000FDAA18AB19123458850882850983A3A3D5
:10248000780C121712908205780C1216EC851882BF
:10249000851983781012171290820578101216ECA5
:1024A000780C7910120D46501F780C79101216C452
:1024B000908221780C120D664047850C14850D150D
:1024C000850E16850F178045908221851014851181
:1024D000158512168513177814790C1216C4781402
:1024E000120D66501C7514007515007516007517D1
:1024F00001781479101216C47814790C12168B8096
:102500000C7514017515007516007517007409789F
:102510001412166C908271780C1217127814790CC0
:102520001215D0850882850983A3A3A3A3A3A312B0
:1025300025AE1217C3880C890DE4F50EF50F78143B
:10254000790C12168B740412189A1225AE1217C346
:10255000E8FA8A0CE4F50D7814790C120D46500750
:102560007814790C1216C4900375E06408600AE0D0
:1025700064066005E06405702090821D7814120DD9
:10258000665016908249781412169E800C751400BD
:10259000751500751600751700850A82850B8378FE
:1025A0001412172174061218647F100219D6E0F86D
:1025B000A3E0F97AD07B032274F712192A1234703F
:1025C00090051AE064017010906245E4F0A3F053A6
:1025D000F4F343FE0C5390F3123416E5C654B8449A
:1025E00041F5C6E59E5447644170F8906185740FCB
:1025F000F0900518E0F47002A3E0604E900519E039
:10260000600814601B14602E804075080175090075
:10261000900518E0780812183BE508F45280802AEB
:10262000750801750900900518E0780812183BE557
:1026300008F452908014750801750900900518E09F
:10264000780812183BE508F452A079007F020219BD
:10265000D674F712192AE9FEEAFF12347074016E7B
:10266000700C7A807B00900374E0F9123950903B33
:102670004CE493F46008E493F9123224800953C6C1
:10268000B8E59E544770FA12341C90051AE06401B4
:102690007003123242900518E0F47002A3E0604B20
:1026A000900519E0600814601A14602C803D7508CC
:1026B00001750900900518E0780812183BE50842FA
:1026C000808028750801750900900518E0780812C7
:1026D000183BE508429080137508017509009005C4
:1026E00018E0780812183BE50842A01233B08A08B7
:1026F0008B09A808A909E8496014E5E170FCE82401
:1027000014F582E439F583E0F46003E0F5E1740147
:102710006F700A7A01900374E0F91239DA02264CDC
:1027200074F112192A8A088B098C0A8D0B90820584
:1027300078081216EC740F12189A780C121712906F
:102740008205780C1216EC7808790C120D469082EE
:102750002150107808790C1216C47808120D6640C2
:1027600014800E780C79081216C4780C120D66507D
:10277000047901800279007F080219D674ED1219DC
:102780002A8A088B098C0A8D0B908205780812160C
:10279000EC741312189A780C121712908205780CA8
:1027A0001216EC780C7908120D4640117808790C55
:1027B0001216C4AA08AB09AC0AAD0B802275100032
:1027C0007511007512007513017810790C1216C47A
:1027D0007810790812168BAA10AB11AC12AD137FCA
:1027E0000C0219D690820578081217128A828B8300
:1027F00078081216FF7F040219D674F512192A8C74
:10280000828D8378081217128A828B8378081216B9
:10281000D8122852C3E09CF0A3E09D122844402225
:1028200090824D78081217128A828B8378081216CC
:10283000B18A828B83A3A3A3A3E02420F0A3E03476
:102840004EF080A0F088828983C3E09420A3E094B6
:102850004E22EA2404F8E43BF98C828D83A3A3A3DF
:10286000A3E0FCA3E0FD888289832274F512192A73
:10287000E9FE9004D2E0FAA3E0FBEE29F8E433F994
:10288000741028F582748139F583E02AF508A3E0F5
:102890003BF5097808121AD190823D1217301223A5
:1028A000D874021218648A088B098C0A8D0B741074
:1028B0007808121653AA08AB097F040219D674F1DE
:1028C00012192A8A0C8B0D8C0E8D0F741112189A06
:1028D000121AE8741112189AE02401F508A3E034E2
:1028E00000F509E4F50AF50B780C790812155090FB
:1028F00082797808121712780C7908121550AA0CF0
:10290000AB0DAC0EAD0F1223D874021218648B09F4
:10291000EA450960047A0180027A00EC2AFCE43D71
:10292000FD741312189AE0F8A3E0F9E8FEE9FFEC51
:10293000F8EDF97A717B021217C388088909E4F56A
:102940000AF50B8E828F837808121721ECF8EDF9C7
:102950007A717B021217C38A088B097405780812F2
:10296000183B8E828F83A3A3A3A3E508F0A3E509F8
:10297000F07F080219D6C082C083E9906000F0D0D1
:1029800083D08222C0E074F2121A16A2AFE433FEA2
:10299000D2AFC2C0E5D1A2E4500675D10F1238CC37
:1029A000751A00EEA2E092AF7F01021A75C0E074C2
:1029B000F2121A16A2AFE433FED2AFE589A2E040CC
:1029C0000CE589A2E14006E589A2E25003123842F3
:1029D000758900758900758900C2C5751A00EEA257
:1029E000E092AF7F01021A75C0E0C0D0E8C0E0A855
:1029F000A8D2AFC2C7751A00E8A2E792AFD0E0F83C
:102A0000D0D0D0E032C0E074F2121A16A2AFE43394
:102A1000FED2AF758A00C2EB90083E7401F0751AC1
:102A200000FA900829E0F91239DA9009C2E0F8A317
:102A3000E0687002D296EEA2E092AF7F01021A75B2
:102A4000C0E0C0D0E8C0E0E9C0E0EAC0E0EBC0E030
:102A5000C082C083A2AFE433F9D2AF9009C2E0F8DC
:102A6000A3E0687008539AF7A374018022C2EA9029
:102A700009C2E0F8740128F0744228F582E43409B0
:102A8000F583E0F5F99009C2E0C394804002E4F0D8
:102A9000E9A2E092AFD083D082D0E0FBD0E0FAD0C0
:102AA000E0F9D0E0F8D0D0D0E032C2AF020000228E
:102AB000120CF652AB03120CF665AB03120CF69631
:102AC000AB03120CF6D0AB03120CF629AC03120CBC
:102AD000F670AC03120CF6B8AC03120CF6E7AC03BC
:102AE000120CF616AD03120CF64DAD03120CF69453
:102AF000AD03120CF6ADAD03120CF602AE03120CD0
:102B0000F61BAE03120CF669AE03120CF6A3AE036D
:102B1000120CF6F3CF02120CF6F6D002120CF62FBE
:102B2000D102120CF652D102120CF664D102120C30
:102B3000F6A2D102120CF61ED202120CF6E6D20256
:102B4000120CF608D302120CF69FD302120CF6F107
:102B5000D302120CF622D402120CF62FD402120C5D
:102B6000F699D402120CF6F0D402120CF6F3D40249
:102B7000120CF62CD502120CF62FD502120CF639D7
:102B8000D502120CF68DD502120CF6CED502120C1F
:102B9000F601D602120CF63ED602120CF640D7020F
:102BA000120CF6E4D702120CF64DD802120CF68B7A
:102BB000D802120CF6A89F03120CF6D09F03120C39
:102BC000F6FD9F03120CF635A003120CF693A0033A
:102BD000120CF6DFA003120CF646A103120CF686C7
:102BE000A103120CF6C3A103120CF6F1A103120CFF
:102BF000F69BA203120CF6A5A203120CF6B2A203D6
:102C0000120CF6E5A203120CF6F1A203120CF6095F
:102C1000A303120CF613A303120CF645D503120CF2
:102C2000F653D503120CF66BD503120CF682D503BE
:102C3000120CF692BB01120CF63CBC01120CF64FC2
:102C4000BD01120CF6CBBD01120CF6E9BE01120C4F
:102C5000F625BF01120CF6C0BF01120CF6A4C0018C
:102C6000120CF670C101120CF6FEC201120CF66FC6
:102C7000C301120CF629C401120CF61BC501120C7B
:102C8000F65BC501120CF60FC601120CF641C60127
:102C9000120CF637C801120CF679C801120CF6971F
:102CA000C801120CF6FDC801120CF6CCC901120CB9
:102CB000F690CA01120CF6AFCC01120CF6C2E80273
:102CC000120CF6ACE902120CF657EA02120CF6A846
:102CD000EA02120CF658EB02120CF6C9EB02120CC7
:102CE000F6AEEC02120CF6E2EC02120CF6DBED0290
:102CF000120CF618EE02120CF6F4EE02120CF63379
:102D0000EF02120CF64FEF02120CF65CC303120C2A
:102D1000F6E0C303120CF60BC403120CF625C50330
:102D2000120CF6A1A303120CF6B7A303120CF6D5EE
:102D3000A303120CF6E6A403120CF6F0A403120C83
:102D4000F61BA603120CF612A703120CF67FA703BC
:102D5000120CF6B0EF02120CF6E6F002120CF61DA1
:102D6000F102120CF674F102120CF689F302120C45
:102D7000F6DC9601120CF6689701120CF6CC98015D
:102D8000120CF6D89801120CF6139901120CF68267
:102D90009901120CF68B9A01120CF6949B01120CFD
:102DA000F65B9C01120CF6B89D01120CF6D69D0143
:102DB000120CF6F39D01120CF6A09E01120CF61DEA
:102DC0009F01120CF6459F01120CF60FA201120C86
:102DD000F614A201120CF62DA401120CF67BA4012C
:102DE000120CF6EBA401120CF629A501120CF60543
:102DF000A601120CF6C5A601120CF611A701120CC1
:102E0000F614A701120CF658A701120CF6A0A701A0
:102E1000120CF6DFA701120CF601A801120CF63510
:102E2000A801120CF698A801120CF6B8FA01120CBF
:102E3000F6C6FA01120CF619FB01120CF638FB016A
:102E4000120CF67DFB01120CF6C1FC01120CF65CB3
:102E5000FD01120CF6A0FD01120CF6CAFD01120CC8
:102E6000F639FE01120CF67FFE01120CF6F6FE0199
:102E7000120CF6A7FF01120CF6503B00120CF66084
:102E80003B00120CF6013C00120CF65D3C00120CEB
:102E9000F61A3D00120CF6363E00120CF6683E00A3
:102EA000120CF6973E00120CF6444000120CF6BBD2
:102EB0004200120CF62B4500120CF61D4600120CB7
:102EC000F6164700120CF61D4900120CF6114C00C4
:102ED000120CF6404D00120CF6444F00120CF65442
:102EE0005000120CF6E35100120CF6D45200120CF2
:102EF000F6225300120CF6915300120CF6B5530053
:102F0000120CF6065400120CF6A75800120CF6A884
:102F10005900120CF6095A00120CF6345A00120C21
:102F2000F6FA5A00120CF66E9B03120CF6789B030D
:102F3000120CF6BD9B03120CF6D19B03120CF6612A
:102F40009C03120CF69A9C03120CF6D59C03120CEF
:102F5000F6FE9C03120CF6529D03120CF6679D03BD
:102F6000120CF6899D03120CF69E9D03120CF6B20C
:102F70009D03120CF6C79D03120CF6019E03120C62
:102F8000F62D9E03120CF6769E03120CF6E89E03B5
:102F9000120CF62B9F03120CF6559F03120CF680B1
:102FA0009F03120CF652D103120CF657B202120C08
:102FB000F63AB302120CF6B5B302120CF6F0B302F5
:102FC000120CF641B502120CF6CFB502120CF661E6
:102FD000B802120CF613B902120CF61FBA02120C48
:102FE000F692BB02120CF6EBBB02120CF6DC92035B
:102FF000120CF61F9303120CF6A39303120CF67A2D
:103000009603120CF6EEBE03120CF6A0BF03120CD0
:10301000F69CC003120CF6DBC003120CF635C1039C
:10302000120CF62EC703120CF691C703120CF62EE3
:10303000C803120CF663C803120CF693C803120CF3
:10304000F6CEC803120CF6EEC803120CF6EBFA0229
:10305000120CF677FB02120CF636FC02120CF64E3E
:10306000FD02120CF668FF02120CF6C39B02120C52
:10307000F6E89B02120CF6B59C02120CF6899D0232
:10308000120CF6F69D02120CF6369E02120CF6D2C7
:103090009E02120CF606A002120CF6E1A002120C1F
:1030A000F640A102120CF6CCA102120CF63AA202D2
:1030B000120CF6C6A202120CF60CA302120CF67E3B
:1030C000A302120CF610A402120CF6B1A402120C08
:1030D000F6D1A402120CF619A502120CF662A50292
:1030E000120CF67EA502120CF6A4A502120CF61E16
:1030F000A602120CF62CA602120CF6BBA602120CAB
:10310000F624A702120CF6558503120CF6DA850395
:10311000120CF61C8603120CF6008703120CF66DD7
:103120008703120CF6B18703120CF6F58703120C15
:10313000F6228803120CF64A8803120CF6828803E2
:10314000120CF6C08803120CF6E78803120CF66125
:103150008903120CF6AB8903120CF6BCCC01120CDD
:10316000F65BCE01120CF693D001120CF6E7D001FB
:10317000120CF612D101120CF6EED101120CF61E51
:10318000D201120CF64DD201120CF660D201120CD3
:10319000F6A1D201120CF6CED201120CF61CD3010C
:1031A000120CF658D301120CF69DD301120CF6EA5C
:1031B000D301120CF664D401120CF6A5D601120C40
:1031C000F68FD801120CF6CBD801120CF65ADA01A0
:1031D000120CF69FDA01120CF612DB01120CF667E4
:1031E000DB01120CF66CDB01120CF6F6DB01120CA3
:1031F000F615DD01120CF626DD01120CF654C6029E
:10320000120CF6CDC602120CF687CC02120CF69206
:10321000CD02120CF63BCF02120CF6C9CF02120CF3
:10322000F6C98201120CF64A8301120CF67783016B
:10323000120CF6C08301120CF6C18401120CF61AAE
:103240008501120CF6968601120CF6188701120CF5
:10325000F6338701120CF6A48701120CF66188017F
:10326000120CF6248901120CF6B28901120CF669CF
:103270008A01120CF67C8A01120CF6158B01120CD5
:10328000F6AC8B01120CF6D38B01120CF63C8C01C0
:10329000120CF6868C01120CF6D48C01120CF67905
:1032A0008D01120CF6178E01120CF6A48E01120C71
:1032B000F6158F01120CF65C8F01120CF6B48F011B
:1032C000120CF6E68F01120CF6A09001120CF6A774
:1032D0009101120CF6F09101120CF60D9201120CF4
:1032E000F62C9201120CF65F9301120CF616940163
:1032F000120CF63B9401120CF6509401120CF6C01D
:103300009401120CF6019501120CF6259601120C8F
:10331000F6A69601120CF694BC02120CF6DFBC0263
:10332000120CF6EBBC02120CF6BFBD02120CF6D664
:10333000BD02120CF613BE02120CF644BE02120CB1
:10334000F67CBE02120CF6D2BE02120CF6E8BE02E9
:10335000120CF624BF02120CF637BF02120CF65EF6
:10336000BF02120CF692BF02120CF6B8C002120C89
:10337000F602C202120CF6FEC202120CF61BC402C6
:10338000120CF6E97F00120CF649DD01120CF684EE
:10339000DD01120CF6D6E001120CF632E201120C3D
:1033A000F6F1E201120CF658E601120CF642E701C2
:1033B000120CF68EE701120CF6A8E701120CF6E5E6
:1033C000E701120CF6F0E701120CF62FE801120CDF
:1033D000F638E801120CF6E2E801120CF6B9E90140
:1033E000120CF60DEA01120CF66AEA01120CF6DC78
:1033F000EA01120CF670A901120CF6CFAC01120C06
:10340000F6D5AC01120CF606B401120CF60DB8019B
:10341000120CF60BAF03120CF6A1AF03120CF6B7A9
:10342000AF03120CF610B003120CF654B003120CDA
:10343000F68EB003120CF626B103120CF695B1030A
:10344000120CF69EB103120CF6AAB103120CF6C4CC
:10345000B103120CF6EEB103120CF603B203120C18
:10346000F665B203120CF68CB203120CF62C97031D
:10347000120CF6399703120CF6539703120CF686CA
:103480009703120CF6C49703120CF6299803120C3A
:10349000F63E9803120CF6499803120CF656980360
:1034A000120CF66D9803120CF67B9803120CF6863C
:1034B0009803120CF6929803120CF6A19803120CC2
:1034C000F6AC9803120CF6CF9803120CF67399031E
:1034D000120CF6839903120CF69D9903120CF6BA9E
:1034E0009903120CF6D59903120CF6FA9903120CF3
:1034F000F6059A03120CF61A9A03120CF62E9A038A
:10350000120CF68F9A03120CF6959A03120CF69B86
:103510009A03120CF6A19A03120CF6B99A03120C34
:10352000F6EC9A03120CF6408E02120CF6D78E02BD
:10353000120CF66F8F02120CF65F9002120CF696C8
:103540009002120CF6A99002120CF6179102120CBE
:10355000F6B29202120CF6D99202120CF67B93028A
:10356000120CF6B09302120CF6C19302120CF63A4A
:103570009402120CF65B9402120CF6739402120C75
:10358000F6CB9502120CF6D49702120CF6249A028E
:10359000120CF6279B02120CF6769B02120CF62BED
:1035A000EC01120CF628ED01120CF613EE01120CD0
:1035B000F61DEE01120CF63FEE01120CF64BEE0179
:1035C000120CF69DEF01120CF6CCEF01120CF6FC7A
:1035D000F001120CF63EF101120CF66AF201120C27
:1035E000F640F301120CF692F301120CF6F1F3011E
:1035F000120CF628F401120CF663F401120CF6FE1C
:10360000F701120CF617F801120CF699F801120CDA
:10361000F6A7F801120CF6FCF801120CF60AF901F3
:10362000120CF677F901120CF6E9F901120CF62FDB
:10363000FA01120CF647A702120CF669A702120C47
:10364000F653A902120CF6F8AC02120CF63BAE02CD
:10365000120CF615AF02120CF6BBCA03120CF6E000
:10366000CA03120CF651CB03120CF6B1D802120C9D
:10367000F6BAD802120CF6C3D802120CF6F4D9022C
:10368000120CF613DC02120CF649DC02120CF68363
:10369000DC02120CF6B9DC02120CF6F3DC02120C9E
:1036A000F627DD02120CF653DD02120CF69CDD0249
:1036B000120CF6D6DD02120CF61EDE02120CF674A7
:1036C000DE02120CF6A9DE02120CF604DF02120C66
:1036D000F63EDF02120CF68FDF02120CF6C5DF0297
:1036E000120CF6FFDF02120CF62DE002120CF6505F
:1036F000E002120CF6CCD603120CF6F8D603120C2C
:10370000F653D703120CF65DD703120CF66DD703F0
:10371000120CF657B903120CF67EB903120CF6A977
:10372000B903120CF6AED803120CF6665B00120C4D
:10373000F6CC5D00120CF6835F00120CF6E05F0021
:10374000120CF6E26000120CF66A6100120CF6F13F
:103750006100120CF6166200120CF60B6500120CDA
:10376000F67C6500120CF66B6600120CF6A566007E
:10377000120CF6E56600120CF6866800120CF6D9FB
:103780006800120CF6226900120CF6906900120C07
:10379000F6C26900120CF6DC6900120CF6F26A003F
:1037A000120CF6026B00120CF6886C00120CF6A8D4
:1037B0006C00120CF6DE6C00120CF65E6E00120C41
:1037C000F69D6E00120CF6DB6F00120CF6EB89030F
:1037D000120CF6438A03120CF68B8B03120CF6FACA
:1037E0008B03120CF6A98C03120CF6C88C03120C76
:1037F000F61C8D03120CF65A8D03120CF642D903F7
:10380000120CF662D403120CF672D403120CF68476
:10381000D403120CF638D503120CF666D203120C40
:10382000F6EAD203120CF652D303120CF6FCC803CC
:10383000120CF643C903120CF6A2C903120CF6BD12
:10384000C903120CF668CA03120CF6AECA03120CB6
:10385000F6B1CA03120CF689A703120CF6A0A7034F
:10386000120CF619A803120CF6EEA803120CF69926
:10387000AA03120CF6EEAA03120CF63FAB03120CCD
:10388000F6F87F00120CF654C503120CF6CAC603F4
:10389000120CF62BC703120CF64EB603120CF6E907
:1038A000B603120CF681B703120CF647B803120CDC
:1038B000F68BB803120CF6B3B803120CF6C1B803BA
:1038C000120CF630B903120CF64AB903120CF65476
:1038D000B903120CF671CC03120CF622CD03120CB4
:1038E000F64BCD03120CF674CD03120CF68CCD03FF
:1038F000120CF6CECD03120CF6008003120CF60A61
:103900008003120CF64A8003120CF6938003120C0B
:10391000F6CD8003120CF6238103120CF6428103CC
:10392000120CF64B8103120CF69C8103120CF6C5A7
:103930008103120CF6DA8103120CF64A8203120C90
:10394000F6D88203120CF61C8303120CF64583038F
:10395000120CF6C48303120CF6018403120CF63821
:103960008403120CF64A8403120CF6698403120CC9
:10397000F6728403120CF6298503120CF6B4CF03F9
:10398000120CF605D003120CF68ED003120CF6F4CE
:10399000D003120CF62DBC03120CF657BC03120C0C
:1039A000F64CBD03120CF67BBD03120CF602BE03EF
:1039B000120CF66BD303120CF660C103120CF696D0
:1039C000C103120CF6C9C103120CF622C303120C78
:1039D000F677D703120CF68DD703120CF697D703A0
:1039E000120CF6EDD703120CF69FFF02120CF6DE56
:1039F000E002120CF69BE102120CF6D6E102120C68
:103A0000F607E202120CF669E202120CF6B5E202C7
:103A1000120CF620E302120CF69AE302120CF6994D
:103A2000E402120CF620E602120CF6A3E602120CD7
:103A3000F609E702120CF61CE702120CF617E80270
:103A4000120CF664E802120CF66C8E03120CF6826D
:103A50008E03120CF6238F03120CF6628F03120CE6
:103A6000F67F8F03120CF6B08F03120CF6FD8F0356
:103A7000120CF6319003120CF66C9003120CF669DE
:103A80009203120CF6CF9203120CF6008002120C75
:103A9000F6B78302120CF6498502120CF6A08502D5
:103AA000120CF6BF8502120CF63D8602120CF6CF00
:103AB0008702120CF6B38802120CF6C48C02120CA8
:103AC000F6988D02120CF658F502120CF6AFF502BC
:103AD000120CF6DAF702120CF6EFF802120CF6707E
:103AE000FA02120CF6BAB203120CF622B303120C4D
:103AF000F63FB303120CF60AB403120CF65DB403DE
:103B0000120CF640B503120CF613CE03120CF66C31
:103B1000CE03120CF6D4CE03120CF652CF03120CC5
:103B2000F6007000120CF60F7500120CF6B9FF01CA
:103B3000120CF6F8D803120CF618D803120CF64241
:103B4000D803120CF624D903FFFFFFFFFFFFFFFF8E
:103B5000C082C083E990177EF0D083D082020CF33C
:103B600074F61218BEE99002E7F0900347E0F508FA
:103B70007509007402780812183BAA08AB091239BB
:103B8000C29002E81245139002E8124900606F905B
:103B90000347E075F003A4FAABF01239C2900305B5
:103BA000124513900305124900700B9002E8124869
:103BB000D11239C880489003051258657AFF7BFFFF
:103BC0001237CA7A0080198A0875090074027808C9
:103BD00012183B12530D74FF123D13E4F0A3F00AC8
:103BE000900347E0F8EAC39840DD7905122E8E90E5
:103BF00002E7E0F9122D7A7A187B2F12310A02536C
:103C0000B074F41218BE8A088B09EB548060479098
:103C100002E7E0F91239388A0A8B0BAE0AAF0BEED5
:103C20004F602A8E828F83E064B0701A122EA0E952
:103C300060148E828F83A3A3A3A3E0F9EE2405FA78
:103C4000E43FFB122E70EEFAEFFB123926AA08E5CC
:103C5000096480FB80047A007B00023E6374F212E8
:103C600018BE74FB12184EEAFEEBFFEE4F6045746F
:103C70000312189AEEF0A3EFF0851882851983ECF1
:103C8000F0A3EDF0740212189AE9F0AA18AB191219
:103C90002D74E9F5087075741312189AE0F50AA3EB
:103CA000E0F50BE50A450B60638E828F8312429C20
:103CB000EE4F700575080280537A067B001239C2F8
:103CC0008A0C8B0DA80CA90DE849700575081380A6
:103CD0003B88828983E4123D13EEF0A3EF123E2F5E
:103CE000E50AF0A3E50BF09002EB123E289002EB00
:103CF0006017E0FCA3E08003EAFCEBFD8C828D837F
:103D0000123E2870F38C828D83124F28A908740507
:103D1000025AE5F0A3125847A32274F21218BE8982
:103D200008890C750D007403780C12183B850C0A79
:103D3000850D0B9002EAF09002E8124D33123E26F8
:103D4000602E1239C87900801D890C750D0074022F
:103D5000780C12183B9002E81251CC8882F583A3AC
:103D6000A3E4F0A3F009900347E0F8E9C39840D931
:103D7000900347E0FA850AF0A4CAA8F0850BF0A4E6
:103D800028FB1239C28A0C8B0DAE0CAF0DEE4F70B2
:103D900003023E1C900347E0FC850AF0A4CCA8F087
:103DA000850BF0A428FD79001239147C0080318D38
:103DB0000C750D007403780C12183B8A828B8312E9
:103DC0003E2188828983E4F0123E2EA3A3F0A3F063
:103DD0000DEDC3950840D8EE250AFEEF350BFF0C1C
:103DE000900347E0F8ECC39850288C0C750D0074D4
:103DF00002780C12183B9002E8123E21E82402508F
:103E00000109FAE9FB8A828B83EEF0A3EFF07D00D3
:103E100080BFE5089002EAF0790080027913025A27
:103E2000E81251D0F922A3A31248D5EA4B22A312DB
:103E30005847A3A3A32274F41218BE7900EAA2E0A3
:103E4000501F7508BC7509817808121AD179107C49
:103E5000047D007A807B17122E887402121864E9A0
:103E6000F980007F04021990C082C0839002EB1297
:103E70004900601C88828983A3A3E06A7003A3E0E1
:103E80006B8882898370E8A3A3A3A31248D180041E
:103E90007A007B00023B5974F21218BE74FD1218AE
:103EA0004EEAFEEBFF851882851983E4F0A3F074D7
:103EB0000212189A7401F01248FD70141230441264
:103EC00039C29002EE1245131248FD7003024029D8
:103ED000124613EE2404F50AE43FF50B850A82F539
:103EE00083E024FE603C24FC607424FE607E24FE9B
:103EF0007003023F7924FE7003023F8624FE7003A4
:103F0000023F9324FE7003023FA024FE7003023F91
:103F1000AD24FC7003023FCE24FE7003023FE60294
:103F200040221230449002F0EAF0A3EB1240351226
:103F30002ABCE960030240229002F0121AE88E8245
:103F40008F83A3A3A3A3A312586585088285098341
:103F50001248D1122E587402121864024022AC1872
:103F6000AD19EEFAEFFB122EA6023FF1AC18AD1917
:103F7000EEFAEFFB122EAC8078AC18AD19EEFAEF2A
:103F8000FB122EB2806BAC18AD19EEFAEFFB122EBD
:103F9000B8805EAC18AD19EEFAEFFB122EBE805160
:103FA000AC18AD19EEFAEFFB122EC4804474021265
:103FB00018A4880C890D780C121AD174021218B446
:103FC000EEFAEFFB122ECA74021218648023AC18AA
:103FD000AD19EEFAEFFB122ED0E9F870167402124A
:103FE000189AE4F0803CAC18AD19EEFAEFFB122EF3
:103FF000D6E9F8E8602C8E828F83A3E064146022F7
:10400000850A82850B83E09002F0F085188285197D
:10401000831248D19002F1124513E8A312403512E1
:104020002AB6EEFAEFFB122E2E740212189AE0F95D
:104030007403025AE5F07CF07D02850882850983CD
:104040001248D52274E81218BE74FA12184E74047D
:1040500012189AECF0A3EDF08A128B13EA2405F5FE
:104060000EE43513F50FEA2402F510E43513F511CB
:10407000851082F5831248D1122BAC8A0A8B0B75FE
:1040800008007C037D0079007AF07B02123914E588
:104090000E2402F516E4350FF51774021218A488E1
:1040A0000C890D780C121AD1850E82850F83A3A37B
:1040B000A3A3E0F50C750D00780C121AD1E50E24BF
:1040C00005F50CE4350FF50D780C121AD185168222
:1040D000851783124BD8122D9274061218648A0C1D
:1040E0008B0DE50C450D700302426580208518821A
:1040F000851983E088828983F005088518828519EF
:1041000083A3E0C0E01242A6D0E0F00508E50A244F
:10411000FBFAE50B34FFFBC3E5089AE49B4003027E
:1041200042657E007F00851282851383A3A3A3A32B
:10413000E0F5097809121AD5E4F514F5157814128A
:104140001AD17514ED7515027814121AD19002EE79
:10415000121AE8740912189A121AE8E50A24F9F9F1
:10416000AC0CAD0D8510828511831248D1122F0041
:104170007409121864E96003024206850E82850FF5
:1041800083A3A3A3A3A3A3A3E0F89002EDE0687028
:1041900075E0F5148E157814121AD1125862850E36
:1041A00082850F83A3A3A3A3A3A3A3A31248D11221
:1041B000390E7402121864E9604C9002F112490041
:1041C000703BE4F5147814121AD17CFF7DFF790757
:1041D0008510828511831248D1122E6A740212183A
:1041E000641249067017850E82850F831259FF7479
:1041F0000412189A1252C0124C09024299850C827C
:10420000850D8312429CA818A91988148915781461
:10421000121AD1740412189A121AE8851682851798
:1042200083124509122D9E74041218648A0C8B0D9A
:10423000EE4F70030240E21242A6EE1242B1124B60
:10424000BFEF1242B1F8A3E03400F9E50C450D6070
:10425000030240ED8882898374FFF005081242A6AC
:1042600074FFF00508E508601A1313543F1245194E
:10427000122AC8E960099002F11248D112398079F6
:10428000008016850E82850F831259FF7404121860
:104290009A1252C0124F28790A024B92A3A3A3A3E9
:1042A000E0FEA3E0FF22A8089002F1E028124BBF35
:1042B00022F00508089002F1E0282274E81218BEE6
:1042C00074FA12184E740212189A124513740412DA
:1042D000189AECF0A3EDF0740212189AE02405127B
:1042E0004BA8E0F50CA3E0F50D740212189AE02437
:1042F00002F510A3E03400F511851082F583124811
:10430000D1122BAC750800750900EA24FCFEEB34D1
:10431000FFFF8008050CE50C7002050DA808C3EE30
:1043200098EF940050030244C5A818A919880E8973
:104330000F780E121AD1851482851583A3A3A3A327
:10434000125869121AD1E5142405F50EE43515F555
:104350000F780E121AD18514828515831245071223
:104360002D9274061218648A0E8B0FEA450F7003A3
:104370000244C5EA2404F516E4350FF517851682C4
:10438000F583E0F50CA3E0F50D85188285198312FD
:1043900058658A828B83A3A3A3E0F98510828511D7
:1043A000831248D1122D80E9F50960030244C574D7
:1043B0000212189A124BCFF5097809121AD5E4F5B2
:1043C00012F5137812121AD17512ED7513027812C4
:1043D000121AD19002EE121AE8740712189A121AE1
:1043E000E8EEF9AC0EAD0F8510828511831248D12D
:1043F000122F007409121864E9F50960030244C51C
:10440000E508703FE4F50EF50F780E121AD17CFF27
:104410007DFF79098510828511831248D1122E6A99
:104420007402121864124BF5700D740412189A126B
:1044300044FC79110244F99002EDE024029002F16B
:10444000F080149002F1E0FA9002EDE0790024028D
:104450005001096A497072A8089002EDE0FAE82A52
:10446000FAE43400FBEE9AEF9B405A8516828517DA
:1044700083E0C0E09002F21242ABD0E0F005088584
:104480001682851783A3E0C0E0089002F21242ABC7
:10449000D0E0F005089002ED125869121AD11258B6
:1044A00062A808124B9C1238FC7402121864900225
:1044B000EDE02508F50874FF650C700474FF650DC8
:1044C0006003024314E508601F9002F1E0F5F0E597
:1044D0000884124519122ACEE960099002F21248A6
:1044E000D112398079008011E509700375090A74C9
:1044F0000412189A1244FCA909024B92124D37E596
:104500000CF0A3E50DF022A3A3125AF4AA0CAB0DF4
:1045100022A3A3EAF0A3EBF0229002F0F07CF07D5E
:10452000028510828511831248D52274EC1218BEC0
:1045300074FC12184E12503874021218B41248CB80
:10454000122D988A0C8B0DEA450D7003024603125A
:104550004613A818A919881089117810121AD17C4D
:10456000FF7DFF790B8508828509831248D1122EC1
:104570006A7402121864124709700C850A82850B4E
:1045800083124C060246108E828F83A3A3A3A3E05E
:10459000F5127812121AD5E4F512F5137812121AE0
:1045A000D17512F07513027812121AD17810121AFE
:1045B000D1740912189A121AE8740912189AE0F9BB
:1045C000AC0CAD0D8508828509831248D1122F00ED
:1045D0007409121864E9FE70157CF07D028508826A
:1045E0008509831248D1122AD4E9700980207416F3
:1045F0006E70027E009002F11248D1123980EE7086
:1046000004800B7E01850A82850B83124F25EEF90B
:10461000024F3AEE2402F508E43FF5092274EC1249
:1046200018BE74FC12184EEAFEEBFF8C0E8D0FEED6
:104630002405F508E43FF50974021218B4850882D0
:104640008509831248D1122D988A0C8B0DEA450DED
:1046500070030246F9EE2402F50AE43FF50BA818B0
:10466000A919881089117810121AD17CFF7DFF7961
:104670000D1248CB122E6A74021218641247097088
:104680000B850882850983124C06807A8E828F837F
:10469000A3A3A3A3E0F5127812121AD58508828588
:1046A0000983A3A3121AE87512F075130278121287
:1046B0001AD17810121AD1740912189A121AE874C1
:1046C0000912189AE0F91248C7122F00740912183B
:1046D00064E9FE700F7CF07D021248CB122ADAE901
:1046E0007009802074166E70027E009002F11248EC
:1046F000D1123980EE7004800B7E01850882850915
:1047000083124F25EEF9024F3A124910F510A3E03B
:10471000F511EA45112274E81218BE74FE12184E03
:104720008A168B178C148D15EA2405F50CE43517C1
:10473000F50DEA2402F50EE43517F50F850E82F526
:10474000831248D1122BAC8A088B09750B007C03AD
:104750007D0079007AF07B02123914750A00E508B1
:1047600014F5100424FFF508E50934FFF509805419
:104770009002F0E0FA9002EDE0F8EA28F8E4340064
:10478000F9E50898E50999500D9002F0E0F8E51078
:10479000C3989002EDF0E0F5127513007812121A2A
:1047A000D11258629002F1E02AFAA3E03400FB1221
:1047B00038FC74021218649002EDE0F89002F0E008
:1047C00028F0050A850C82850D83A3A31251DC40D5
:1047D000030248AC9002F0E0C39508E49509400359
:1047E0000248ACAE0AEE2EFEE433FF1248EBAC18E2
:1047F000AD1912587DE439FB122D988A128B13AC37
:1048000012AD13EC4D701B750B011248DB124F29D2
:104810009002F1123E286003123980A90B74020243
:104820004B94851682851783A3A3A3A3E0F50B7889
:104830000B121AD5E4F512F5137812121AD175126B
:10484000ED7513027812121AD19002EE121AE87462
:104850000712189A121AE8A910850E82850F831282
:1048600048D1122F007409121864E9F50B709B905F
:1048700002F11249006003024770E4F512F5137863
:1048800012121AD17CFF7DFF790F850E82850F836E
:104890001248D1122E6A740212186412490660037B
:1048A0000247701248DB124C0A02481D7CF07D0260
:1048B000850E82850F831248D1122AE0E960030237
:1048C0004810790002481DAC0CAD0D850A82850B9D
:1048D000831248D522E0FAA3E0FB221248EBE0FA6B
:1048E000A3E0F9EA85148285158322850C82850D63
:1048F00083E02EF8A3E03FF988828983229002EEBC
:10490000125A03E84922124910F8A3E0F9E84922B3
:104910009002F1EAF0A3EBF09002F1E02274E812C9
:1049200018BE74FA12184E740412189A1245138C99
:10493000168D17740412189AE02405F50EA3E034BE
:1049400000F50F740412189AE02402124BA81248C2
:10495000D1122BAC8A0A8B0B7F007E00A818A919F4
:10496000880889097808121AD1850E82850F83A3D9
:10497000A3A3A3E0F5088E097808121AD1E50E2446
:1049800005F508E4350FF5097808121AD1850E826D
:10499000850F83A3A3124BD8122D927406121864AC
:1049A0008A0C8B0D8029124BC9F00F124BC9F00FE6
:1049B0009002ED124F14121AD1125862EFF8124BF6
:1049C0009C1238FC74021218649002EDE02FFFE58F
:1049D0000C450D7003024A588518828519831250C0
:1049E0004AA3A3A3E0F98514828515831248D11246
:1049F0002D80E9FEE50C2404F510E4350DF511EEEB
:104A00007050740412189A124BCFF5087808121AD5
:104A1000D5E4F508F5097808121AD17508ED75097D
:104A2000027808121AD19002EE121AE874071218CE
:104A30009A121AE8E50A24FAF9AC0CAD0D85148235
:104A40008515831248D1122F007409121864E9FEEB
:104A50006039124BE5124F28EF7003024B7F900232
:104A6000F1E0F5F0EF849002F0F07CF07D02851427
:104A7000828515831248D1122AE6E960099002F274
:104A80001248D11239807900024B928F08EF703BA7
:104A9000E4F512F5137812121AD17CFF7DFF79111B
:104AA0008514828515831248D1122E6A7402121859
:104AB00064124BF57009124BE5124C09024B9290AF
:104AC00002EDE024049002F1F080359002EDE0F870
:104AD0009002F1E0FAE82404FCE43400FDEC6A4DB5
:104AE0006003024A5EE50A24FAFAE50B34FFFBE5AF
:104AF0000828F8E43400F9EA98EB995003024A5E7A
:104B0000851082851183E0C0E09002F2E02FF8A3C7
:104B1000E034008882F583D0E0F00F8510828511A3
:104B200083A3E0C0E0124BB6D0E0F00F740212187D
:104B3000A4880889097808121AD1740212189A12E6
:104B40001AE8850E82850F83124507122D9E740484
:104B50001218648A0C8B0DEA450D70030249A67485
:104B60000212189AE0C0E0124BB6D0E0F00F7402C7
:104B700012189AA3E0C0E0124BB6D0E00249AEEEA4
:104B800070027E0A850E82850F83124BEB124F282E
:104B9000EEF974061218647F100219909002F2E088
:104BA00028FAA3E03400FB22F514A3E03400F51545
:104BB000851482F58322124BBA229002F2E02FFA7A
:104BC000A3E034008A82F58322124BBA74FF2212CA
:104BD0004D37A3A3A3A3E022125AF4850E82850FBA
:104BE000831248D522851082851183125A038516B7
:104BF00082851783229002F2EAF0A3EBF09002F292
:104C0000125A03E84922124F2EE8F0A3E9F0791175
:104C10002274EA1218BE74FE12184E8A088B098C90
:104C2000128D13EA2405FEE43509FFAC18AD198E88
:104C3000828F831248D1122D988A0C8B0DEE240698
:104C4000F50EE43FF50FEA450D7003024D09E50846
:104C50002402F50AE43509F50B8A828B83A3A3A30A
:104C6000E0A2E550288518828519831248D1122EBA
:104C7000F48A108B11EA4511602079121248C78519
:104C800010828511831218BCE9F50C707F850E82A5
:104C9000850F83E0600979528011750C0E806D8557
:104CA0000882850983A3A3A3A3E0F9E4F508F50925
:104CB0007808121AD18E828F83A3A3E0F5087808B2
:104CC000121AD18E828F83A3A3A3121AE88E828F29
:104CD000831258651248CB122F067406121864E925
:104CE000F50C7011850E82850F83E0702D1248CB74
:104CF000122AEC80257416650C7011750C0074185E
:104D000012189A124D33E48010750C011259FB856C
:104D10001282851383E8F0A3E9F0850E82850F8364
:104D2000E0600479008002A90C74021218647F0EFE
:104D3000021990124D3722E0F8A3E0F58388822211
:104D400074EC1218BE74F712184E8A0A8B0B8C1072
:104D50008D11EA2405FEE4350BFF750C00AC18AD8F
:104D6000198E828F831248D1122D988A088B09EAF6
:104D700045097003024EFFE50A2402F50A500205B8
:104D80000B8A828B83A3A3A3E0A2E5502F85188210
:104D90008519831248D1122EF48A0C8B0DEA450D29
:104DA000604F7912AC08AD091248CB850C82850D95
:104DB000831218BCE9F50C6003024F02850A828554
:104DC0000B83E0F508A3E0F509AA08FB122EE8EA38
:104DD0004B70197AFF7BFF122EE8EA4B7003024EEC
:104DE000F58A828B83E508F0A3E509F07508008059
:104DF00008750C0E024F0205089002EAE0F8E5087B
:104E0000C3984003024EF585080E750F00740378B1
:104E10000E12183B8A828B83A3A3E0250EF8A3E031
:104E2000350F1252C970D08E828F83124F1D1245DA
:104E3000138E828F83A3A3124F1D124511EE2404FB
:104E4000F508E43FF509850882F583E088828983C7
:104E5000A3A3A3A3F0A3E4F0EE2405F50EE43FF52D
:104E60000F850E82F583124F1DA3A3A3A312451134
:104E70007512077513007812121AD1EEFCEFFD744B
:104E8000041218AC1238FC7402121864E4F512789B
:104E900012121AD1850882850983E0FC7D007917FA
:104EA0001248CB122E6A7402121864740712189AF0
:104EB000124513740712189AE0FA4B603D85088278
:104EC000850983124F14121AD1850E82850F831221
:104ED00058651238FC740212186474021218B41265
:104EE00048CB122AF2E96026740712189A1248D1A8
:104EF0001239808019750C098008750C11800375B2
:104F00000C011259FB851082851183124F28A90CC0
:104F100074098028E0F5087509007808221248D540
:104F20008882898322124F2EE8F0A3E9F022E0F86C
:104F3000A3E0F9850E82850F832274041218647F22
:104F40000C02199074EC1218BE125038751000EE55
:104F50002402F50CE43FF50D850C82F5831248D14F
:104F6000122EE88A088B09EA4509700302501C8555
:104F70000A82850B83E064016003025011AC08AD26
:104F800009AA0AAB0B122EDCE9606E85088285093E
:104F90008312429EEE2406F50AE43FF50B8E828FC3
:104FA00083A3A3121AE88E828F83A3A3A3A3121A4A
:104FB000E8850A82850B83121AE879188E828F831E
:104FC00012504A1248D1122F067406121864E9F8DA
:104FD000741668700B850A82850B83E4F0A3801435
:104FE000E860128E828F831248D1850E82850F83EE
:104FF000EAF0A3EBF088108018780E121AD1AC08F2
:10500000AD09EEFAEFFB122EE27402121864E9F514
:1050100010AA08AB09122EEEE510700E850C8285E1
:105020000D831248D1122AF8800974166510700396
:10503000751000A910024F3FEAFEEBFF8C0E8D0F9A
:10504000EE2405F50AE43FF50B22125AF4850C8292
:10505000850D832274EA1218BE7508007509007E5A
:10506000007F00750A00EC2402F510E43DF5118084
:1050700035EC65087003ED6509600302510988820B
:105080008983A3A3E06A7003A3E06B707C888289A4
:1050900083A3A3A3A31259FFEE28FEEF39FFEA284A
:1050A000FAEB39FB050A1251D9503A850A0C750DF5
:1050B000007403780C12183B8510828511831251FD
:1050C000CC1252C9601FE508450970A58C088D09EE
:1050D0008882898312429C88828983A3A3E02EFA66
:1050E000A3E03F80BEE50AC3940250030251C77596
:1050F0000800750900EE4F6010EEFAEFFB12397AE6
:105100008A0E8B0FEA450F700579000251C9750BA5
:105110000002519C850B0C750D007403780C12185D
:105120003B851082851183E0250CF50CA3E0350D3D
:10513000F50DE50C2406F514E4350DF515851482FE
:10514000F5831252CE6042E50C2404F512E4350DCD
:10515000F513851282F583121AE8E50E2508FAE5A3
:105160000F3509FB1238FC7402121864851282850F
:105170001383E02508F508A3E03509F509851482B5
:105180008515831248D1123980E50B600D7C087DAE
:10519000007900AA0CAB0D123914050BE50BC39571
:1051A0000A50030251148510828511831259FF8819
:1051B000828983A3A3A3A3A3A3E50EF0A3E50F1203
:1051C0003E2FEEF0A3EFF07901024D2E1251D022C6
:1051D000E0250CF8A3E0350D229002EAE0F8E50A9C
:1051E000C3982274F01218BE8A0E8B0F8C0A8D0B96
:1051F000750D00750C0080507916EE2406F508E454
:105200003FF5098E828F83A3A3121AE88E828F83C3
:10521000A3A3A3A3121AE8850882850983121AE8BA
:10522000850E82850F83A3A31248D1122F06740620
:10523000121864E9F50D7416650D706C8508828589
:105240000983E4F0A3F0050C9002EAE0F8E50CC352
:10525000985066AA0C8A0875090074037808121819
:105260003B850A82850B83A3A3125318E8FEE9FF4E
:105270008E828F831252CE6040EA2401F508E43416
:1052800000F5099002EAE065087002E509601488FB
:10529000828983A3A3A3A3A3A3A3A31249006003AA
:1052A0000251F879180251FAE9609B1259FB741007
:1052B00012189A1252C0124F28A90D7F0802199095
:1052C000E0FAA3E0F5838A8222F988828983125A60
:1052D000F4EC4D2274F61218BE7C0080010C900391
:1052E00047E0F8ECC398501E8C08750900740278EA
:1052F0000812183B12530DE06A7003A3E06B70DDD7
:10530000E8FAE9FB80047A007B000253B09002E8DF
:105310001253188882898322E02508F8A3E0350912
:10532000F92274F21218BE8A088B09750A008027C8
:105330008E828F83A3A3A3A3123E2660031239801B
:105340007C087D007900EEFAEFFB1239148E828F13
:1053500083E4F0A3F0050A1251D95027850A0C7591
:105360000D007403780C12183B850882850983A30D
:10537000A3E0250CFEA3E0350DFF8E828F8312493A
:105380000070AD85088285098374FFF0A3F0025A8E
:10539000E874F61218BE122E9A8A828B83E5824533
:1053A0008370067A007B008007A3A3A3A31248D1D1
:1053B0007F0202199074F41218BE89088C828D83C2
:1053C000E06402703C12599EFEA3E0F9EEF874020C
:1053D0006870037429697029750A02750B00780AD0
:1053E000121AD1741012189A121AE8741012189A1C
:1053F000121AE8A9081237DC7406121864E9F98059
:10540000027901023E6374E81218BE74FB12184E52
:10541000E9851882851983F08A168B17ECFEEDFF5B
:105420007510008E828F83A3A3A3E0A2E4502D7495
:105430001D12189A1248D1122EF48A828B83E582AB
:105440004583700302583D790AEEFCEFFDAA16ABC6
:10545000171218BCE9F5106003025840741F1218A7
:105460009AE0F508A3E0F509742112189AE0F50A0C
:10547000A3E0F50B742312189AE0F50EA3E0F50FE4
:105480008E828F83E0640260030257DEA31259FF0D
:10549000850882850983A3858212858313EE2406FD
:1054A000F50CE43FF50D8882898312587DF514E4EC
:1054B00039F5157814121B5B010000280128E0540F
:1054C00007000228A555032813550029D4560129A1
:1054D000FF560229A0560329D45604297857DE57CF
:1054E000E50E450F60030257D9850C82850D8312A6
:1054F00059FFE8FAE9FB8A828B83E0850A82850BF3
:1055000083125888121AD18A828B83A3E0FCA3E00D
:10551000025762E50E450F60030257D9850A82855E
:105520000B837401F0125872850882850983F07C20
:10553000007D008E828F83A3A3A3A3E02401FAA39E
:10554000E03400FB122D98EA4B60408A828B83E0A6
:105550002402F8850A82850B83E028F0EA2404F807
:10556000E43BF988828983E085128285138312588F
:1055700096125888121AD18A828B83A3125865E535
:10558000082403FAE43509FB025767850A82850B74
:1055900083E02404F07C047D007900AA12AB13128E
:1055A0003914025840E50E450F60030257D91258CE
:1055B00072FEA3E0FF850A82850B837404F0EE85FA
:1055C0000882850983F0EF851282851383F07403C6
:1055D0001218B4EEFAEFFB122D988A0C8B0DEA45E7
:1055E0000D70030256838A828B83A3A312429C749C
:1055F000011218A4880E890F780E121AD1740512A0
:10560000189A121AE87CFF7DFF122D9E740412185E
:10561000648B0FEA450F7033850C82850D83125819
:1056200069121AD1850C82850D83A3121AE87C02B7
:105630007D007A917B82122B9A7404121864E970AF
:105640000A740112189A74FFF0A3F08E828F83E01F
:1056500064027039750C02750D00780C121AD18E27
:10566000828F83A3125865E5082404FAE43509FB08
:105670001238FC7402121864850A82850B83E024B8
:10568000028009740112189AEEF0A3EFF07401126F
:10569000189A125857740112189A12584E0257D37A
:1056A000E50E450F60030257D9850C82850D8312E4
:1056B0005AEDAA16AB171237E2850A82850B83745E
:1056C00002F0850882850983EAF0851282851383BA
:1056D000EB0257D6E50E450F60030257D9125872F8
:1056E000F8A3E0F9850A82850B837402F0E8850847
:1056F00082850983F0E98512828513830257D68556
:105700000C82850D831248D11238F6EAFAF8C39557
:105710000EE4950F405CE8650E450F70047A00803A
:1057200021851882851983E0FCE50E2CFCE4350FF9
:10573000FDC3EC98ED94005003E08005E50ECAC36C
:105740009AFAEA850A82850B83F08A0A750B00783B
:105750000A121AD1850C82850D83E0250EFCA3E088
:10576000350FFDAA08AB091238FC74021218640246
:105770005840751007025840E50E450F705B850CC8
:1057800082850D831259FF850A82850B837407F089
:105790008882898312584F125847E08512828513F8
:1057A00083F0E82402FAE439FB8A828B831258578B
:1057B0008A828B8312584EA3A3123E2E12585CF09D
:1057C000E82405F85001098882898312585CA312E5
:1057D0005896A3A3A3A3F0806775100B8062741D75
:1057E00012189A1248D1122E9A8A828B83E582452A
:1057F00083604A1259FF880C890DE8450D603E749C
:105800002512189AE0F5107810121AD5780E121A8F
:10581000D1780A121AD17808121AD1740712189A7C
:10582000E0F9EEFCEFFDAA16AB17850C82850D831F
:105830001218BC7407121864E9F510800375100E75
:10584000A9107405024B94F088828983A322A3E0F7
:105850008508828509832212589DF02212589DA343
:10586000A3229002EE125AF422E0F50E750F007892
:105870000E22850C82850D83124D37E022E0FAA3BB
:10588000E0F8E4C8F9EA2822F08A828B83E0F50A7E
:10589000750B00780A2212584712589D22E085089D
:1058A00082850983A3A32274EE1218BE74FE121817
:1058B0004E8A088B09ECFEEDFF890AAC18AD19EE93
:1058C000FAEFFB122D988A0C8B0DEA450D7003023E
:1058D000598F8518828519831248D1122E9A8A828F
:1058E0008B83E5824583700302598AA3A31259FF73
:1058F000880E890FE8450F700302598A7414121834
:105900009AE0F510A3E0F511E50AF50B780B121AF1
:10591000D5741912189A121AE87810121AD1741B39
:1059200012189AE0F9AC0CAD0DAA08AB09850E82ED
:10593000850F831218BC7405121864E9F50B7052B8
:1059400074FE650A604C850C82850D83E0640270EC
:105950004112599EFAA3E0F9EAF8740268700374E0
:105960002969702E85108285118312587DF50CE40B
:1059700039F50D780C121AD1EEFCEFFDAA08AB092F
:10598000122F1E74021218648008750B0E800375A6
:105990000B01A90B74021218647F0A021990A3125A
:1059A0005A0388828983E02274F61218BE74FE12AC
:1059B000184E740C12189A1259FFE885188285192E
:1059C00083F0740112189AE9F0E4F508F5097808F3
:1059D000121AD17508027808121AD174041218A488
:1059E000880889097808121AD179FE122F067406E0
:1059F00012186474021218640253B08E828F8312DC
:105A00005A0322E0F8A3E0F92274F71218BEEAFE66
:105A1000EBFF89089003051258651237E2EA540239
:105A2000600BA908EEFAEFFB122D8C800279017F42
:105A30000102199074F21218BE74FE12184EEAFE9A
:105A4000EBFF890A7401650A60147402650A600339
:105A5000025AE37901123128E96003025AE3EEFAAF
:105A6000EFFB122EE8EA4B6003122EEEA818A919DC
:105A7000880889097808121AD17508027509007812
:105A800008121AD17508897509827808121AD17C12
:105A9000FF7DFF7A017B00122D927406121864803C
:105AA00038850882850983A3A3A3A3A3A3125AED73
:105AB000EEFAEFFB1237CAE4F50CF50D780C121A6A
:105AC000D1740212189A121AE87CFF7DFFAA08AB63
:105AD00009122D9E74041218648A088B09E5084582
:105AE0000970BE74021218647F06021990124D37B5
:105AF000125AF422E0FCA3E0FD2274F41218BE8ACC
:105B0000088B09ECFEEDFF90177EE0F4604B7A09FC
:105B10007B00123920EA4B60408A828B8374B1F09B
:105B2000A3E4125B5CF08A828B83A3A3E508F0A355
:105B3000E509125B5CA3EEF0A3EFF0740C12189A67
:105B40001259FF8A828B83A3A3A3A3A3A3A3124FFB
:105B50002890177EE0F912392C023E63F08A828B7E
:105B600083A3A3A3A32274F01218BE74FA12184ED2
:105B70008909ECFEEDFF7508008A0A8B0B780A1282
:105B80001B150004108C5DA95BC75BE15BF95B171B
:105B90005C2F5C525C6A5C7E5CA85C235D345D4B70
:105BA0005D665D8C5D8C5DBE5C74016509600302A1
:105BB0005D878E828F83E0F8C394034003025D8784
:105BC000E890186A025D63740265096003025D87EC
:105BD0008E828F831264FB90186BE8F0A3E9025D5C
:105BE00063740165096003025D87125DB4400302BE
:105BF0005D87E8900748025D6374016509600302F0
:105C00005D878E828F83E0F8C394054003025D8731
:105C1000E8900749025D63740165096003025D87CE
:105C2000125DB44003025D87E890074A025D637429
:105C30001065096003025D87750A10750B00780A0C
:105C4000121AD17A4B7B071238FC740212186402C4
:105C50005DAD740165096003025D87125DB44003A8
:105C6000025D87E890075B025D637401650960036C
:105C7000025D878E828F83E090186E025D637404EC
:105C800065096003025D878E828F83780C1217127C
:105C900090823D780C120D665003025D8790075D7F
:105CA000780C121721025DADE96003025D87122DA9
:105CB00032E9700512378E80559007F080617407C5
:105CC00065096003025D87750A06750B00780A1284
:105CD0001AD18E828F83A3AC82AD8374021218AC6A
:105CE00012390274021218647C007D00AA18AB19E4
:105CF0008E828F83E0F912373AE9FEC3940A40039B
:105D0000025DAA122D32E9700CEEF9123794795027
:105D1000123A40806D74F12EF582E43407F58374F5
:105D200001804074016509705E125DB45059E890BD
:105D3000075C802F74016509704D8E828F83E0F8B7
:105D4000C3940A5042E890186D8018740165097078
:105D5000368E828F83E0F874F928C3940A5028E8BD
:105D600090186FF0804774016509701B9007EFE091
:105D7000F88E828F83E09007EFF0E87030E06401E6
:105D8000702B12378280267508188021C3EA942769
:105D9000EB9400501574026509700F8E828F831288
:105DA0006FCA122BB2E9F5088003750802A90874BE
:105DB000060260DA8E828F83E0F8C3940222A9087B
:105DC0008005740E1218647F0402199074F0121882
:105DD000BE74B112184E8C0A8D0B9081B6742012CD
:105DE00018B4740612176174201218B412373AE905
:105DF000FF745F12189AE0F509EFC3940A4003029A
:105E00005F4E75F006EFA4F50874411218B47A0ECF
:105E100074202508F9123A3AE97009744D12189A5B
:105E2000E0FE80027E0090186AE064027005750E44
:105E3000018003750E0074086509700474228002E5
:105E400074212508F50D7C1B7D007900742612183D
:105E5000AC12391474261218B47A1BA90D123A3AEE
:105E6000E9702D744012189AE024F9C3940A502066
:105E7000E50EF50D780D121AD574271218B4EEA29E
:105E8000E0E433F9AA0AAB0B122C54740112186423
:105E90007C147D007900740C1218AC123914740C47
:105EA0001218B47A1074242508F9123A3AE97034B9
:105EB0007C1079FF740C1218AC123974E9702574D7
:105EC0001C12189AAC82AD837A0474252508F91245
:105ED0003A3A740C1218B4EEA2E0E433F9AA0AAB11
:105EE0000B122C3CAC18AD197A0C74702FF9123AC5
:105EF0003AE97049AA18AB1912376A7F00EF75F0BA
:105F000003A4F8A9F0851882851983E58228F8E5AD
:105F10008312669E126880601D88828983A3A3E035
:105F2000F50E750F00780E121AD1AA0AAB0B122FBC
:105F30000C74021218640FEFC3940440C0EEA2E187
:105F4000500C900747E0F9AA0AAB0B122F12740409
:105F50006509702890186AE0640270207A00900742
:105F60005BE060027A01900748E0600478048002F8
:105F70007800E84AF9AA0AAB0B122D087900744F91
:105F80000260DA74F71218BE122D32E9704F9007D2
:105F9000F0E06401701512378E9007F0E4F07C0A8F
:105FA000FDF97AF17B07123914802A750800A808D8
:105FB00074F128FEE43407FF8E828F83E064017061
:105FC0000BA9081237948E828F83E4F00508E50848
:105FD000C3940A40D97950123A401237820269BDFF
:105FE00074F01218BE74F012184EEAFEEBFF8C0823
:105FF0008D09750A0AE9600C14600914603B14608D
:106000007D0260D612377CE9F50AC3940A40030288
:1060100060D6E508450970030260D6750C06750D5B
:1060200000780C121AD1EEFCEFFDAA08AB09123869
:10603000FC74021218640260D6750C00750E0675A9
:106040000F00780E121AD1EEFCEFFDE50C75F00E84
:10605000A4F8A9F0746928FA740739FB12390E7490
:1060600002121864E9700B050CE50CC3940A506623
:1060700080CA850C0AE50AC3940A505A8049750CF7
:1060800000AC18AD197A1075F006E50CA42423F9BC
:10609000123A3AE9701C7C1079FFAA18AB19123930
:1060A00074E9700EEEFCEFFDAA18AB19122C18E97A
:1060B000600B050CE50CC3940A501B80C4850C0AC8
:1060C000E50AC3940A500FE50845096009AA08AB20
:1060D00009A90A123776A90A74101218647F0802F7
:1060E000199074F41218BE890975081574FF6A7046
:1060F0000374FF6B70277E00AC097A027B00EEF917
:10610000123758E960037508000EEEC3940A40E8A0
:10611000E50960537AA67B3712314C804A12311C54
:106120008A0A8B0BAE0AAF0BEE4F60387C007D0005
:10613000EE2405FAE43FFB8E828F83A3A3A3A3E0A2
:10614000F912373AE9F9C3940A500CAC097A027B88
:1061500000123758750800E509600CEEFAEFFB12E3
:1061600037A68003750814025DBE74F21218BEECE7
:10617000FEEDFF750815740E12189AE0F50AA3E0FB
:10618000F50B74FF6A700374FF6B7021750900AC26
:106190000AAD0BEEFAEFFBA90912375EE960037551
:1061A00008000509E509C3940A503F80E212311C3A
:1061B0008A828B83E5824583602D7C007D00E582A9
:1061C0002405FAE43583FBA3A3A3A3E0F912373A2D
:1061D000E9F9C3940A5013AC0AAD0BEEFAEFFB12C7
:1061E000375E7508008003750814A9087F06021938
:1061F00090C082C083900761EAF0A3EBF09007475C
:10620000E0FC7D007A267B00122BB2900747E0F974
:10621000122E76026CD774EE1218BE74EC12184E61
:106220008A088B09EA240CF510E43509F5118A82F5
:106230008B83A385820C85830DEA2405F50EE43556
:1062400009F50FEA2409F50AE43509F50BEA2403F8
:10625000FEE43509FF8A828B83A3A3E024FA70034E
:106260000264DA24FD70030263FA1470030262F41C
:1062700014601024FD70030263DD147003026432A5
:106280000264E0126FD06044E0F58388821264FB00
:10629000880C890DE8450D6033851082851183E0F7
:1062A000F50E780E121AD5EA240BF582E43509F5BD
:1062B00083E0F9126FC40A0A0AEFFB850C82850D90
:1062C000831218BC74011218640264E0850A828586
:1062D0000B83121AE890075D121730122C4E7402CD
