:020000040000FA
:100000000201E3020803FFFFFFFFFF02080BFFFFEF
:10001000FFFFFF020813FFFFFFFFFF02081BFFFFA8
:10002000FFFFFF020823FFFFFFFFFF02082BFFFF78
:10003000FFFFFF020833FFFFFFFFFF02083BFFFF48
:10004000FFFFFF020843FFFFFFFFFF02084BFFFF18
:10005000FFFFFF020853FFFFFFFFFF02085BFFFFE8
:10006000FFFFFF020863FFFFFFFFFF02086BFFFFB8
:10007000FFFFFF020873FFFFFFFFFF02087BFFFF88
:10008000FFFFFF020883FFFFFFFFFF02088B250C25
:10009000C582C0E0E50D34FFC583C0E0E50CC39523
:1000A0008224F810AF0885830D85820C8008858333
:1000B0000D85820CD2AFCEF0A3E520F0A37808E640
:1000C00008F0A3DEFAEFF0A3E58124FAF8E608F0E1
:1000D000A3E608F0A3E608F0A30808E608F0A3E604
:1000E00008F0A315811581D0E0FED0E0F815811548
:1000F000811581E8C0E0EEC0E022850D83850C8289
:10010000E0A3FEE0A3F5207808E0A3F608DFFAE01C
:10011000A3FFE0A3C0E0E0A3C0E0E0A3C0E0E0A351
:10012000C0E0E0A3C0E010AF0885820C85830D809D
:100130000885820C85830DD2AFD083D08202016CFA
:10014000E4900180781179028002F0A3D8FCD9FAFA
:100150007582437583067400120166758234758357
:10016000027400120166C09FF59FE473D09F22D0F5
:1001700083D082C09FE493C0E0740193C0E0740216
:1001800093F59F2200C0D0250C10AF08F50C500C41
:10019000050D8008F50C5002050DD2AFD0D02225F8
:1001A0000CF58210AF08F50C400C150D8008F50C0D
:1001B0004002150DD2AF850D8322250C10AF08F536
:1001C0000C400C150D8008F50C4002150DD2AF2225
:1001D000700422600D18C6C333C608C633C6D5E006
:1001E000F4182275D00075813F750C80750D01756E
:1001F0009F0002014074028000C0E0F40412019FDD
:10020000D0E012021522600C08C6C313C618C6132C
:10021000C6D5E0F422CAC0E0E6F0A308DAFAD0E0DE
:10022000FA22250CF582E4350DF58322250CFCE439
:10023000350DFD2200000080FB12016FB007001297
:10024000016FA9060012016F2F070012016F9707B7
:100250000012016F75020012016FD9020012016FC6
:100260000C040012016F80050012016FFC050012E2
:10027000016F1C060074F612008E74FC1201BA7530
:10028000080475090078081201F5740212022C7A2C
:10029000907B00790112023F7402120184850C8266
:1002A000850D83E0F8A3E0F9E8496021850C82859B
:1002B0000D83E0F47003A3E0F460127402120222D2
:1002C000E0687003A3E0697004790180027900742A
:1002D000041201847F020200FA74F612008E74FF89
:1002E0001201BA8002E4F07C017D00AA0CAB0D790A
:1002F000001202698B09EA450970030204059002A5
:1003000083E0600C14601B14604014607F0203FBE8
:10031000850C82850D83E064FE70CC9002837401AD
:1003200080C4850C82850D83E0C394FC90028350C9
:10033000B47402F0900281E4F0900280F0850C82A7
:10034000850D83E02403900282F0850C82850D8365
:10035000E0F8900280E068F0850C82850D83E0C0B3
:10036000E0900281E0F8748128F582E43401F5839D
:10037000D0E0F0900281E004F0F8900282E0686042
:10038000030202E790028374030202E6E4F09002A3
:1003900080E0F8850C82850D83E06860030202E747
:1003A000900182E0541F640D60030202E712025DB7
:1003B0007800900181E02403F97E006008FFE0C826
:1003C00068F8A3DFF9748129F582E43401F583E844
:1003D000F0900183E064837007A3E07003097E015D
:1003E00090018074FEF0E92402FCE43400FD7A8080
:1003F0007B01790012026FEEF9800CC2AF75C9ABB8
:1004000075C95B80FE790074010202D174F4120098
:100410008E74FC1201BA900185E0FB900184E0FA31
:10042000FCEBF8E4C8F9EC28F8F50AE93402F50B1E
:100430007F017E00900183E014600F14603D146022
:100440007E147003020567020565E50B5401F9E8A7
:100450004970118808850B0974097808120206A9E9
:100460000812024B7508108E0978081201F57C8677
:100470007D01AA0AAB0B120245803C7F43EB900141
:1004800086F0EA900185F07508408E09780812011F
:10049000F57C877D018A08850B09740278081201B2
:1004A000D0E50854FCFAE5095407FB7409780A12F0
:1004B0000206A90A12023F7402120184020567753E
:1004C00008048E0978081201F5740212022C7A9041
:1004D0007B00790112023F7402120184740212023D
:1004E00022E0F8A3E0F9850C82850D83E0687003B3
:1004F000A3E0696053850C82850D83E0F8A3E0F9E1
:100500007402120222E8F0A3E9F0850C82850D83C3
:1005100074FFF0A3F08F0878081201F5740212023C
:100520002C7A247B0212024574021201847508049D
:1005300078081201F5740212022C7A907B0079017E
:1005400012023F7402120184850C82850D83E0F84B
:10055000A3E0F97402120222E0687003A3E069606C
:10056000067E0780027E01EF900181F0900183E01A
:10057000D2E7F0EEA3F074041201847F040200FAC3
:1005800074F712008E7E0075868075C48053F1FE6C
:1005900043F30C53FF3F85FFFF75C2D875C50B753C
:1005A000C4027586C0803CE586A2E150295386FDD1
:1005B00090028CE0F890028EE028FAA3E034008AE2
:1005C00082F583E0F5C190028CE004F00890028D82
:1005D000E0687002E4F0E586A2E25007120257E9F3
:1005E000CE4EFE90028DE070BEEE60EAE586A2E09F
:1005F00040E4C2AF75C9AB75C95B80FEC082C083E1
:10060000E586A2E2500BE5C18A828B83F07A0180F5
:10061000027A007B00D083D08202016CC082C0834A
:1006200090028EEAF0A3EBF0EC90028DF090028C39
:100630007401F05386FD8A828B83E0F5C1ECFAEDFC
:10064000FB80D253BEFBE59DA2E650FAE5C654807E
:100650004449F5C6E59E547F644970F843C680E579
:100660009EA2E750FA53C680E59E547F70FA43BEBF
:10067000049062707408F07402F5D57484F5D41295
:100680000251E96401700D020800C2AF75C9AB7573
:10069000C95B80FE794E120239E960F8120263C22A
:1006A000AF75C9AB75C95B80FE74F412008E890802
:1006B000740F5508F50A750B00740B780A1201D0F7
:1006C000EA2400F8EB3480F9E82400E9350BF985D9
:1006D000C70AA2AFE433F509C2AFE508C4540FFA64
:1006E000E5C754F84AF5C7740C120222E0FEA3E0F5
:1006F000FFEE4F602CEEFAEFFB88828983E08C825C
:100700008D83F088828983A3A882A9838C828D83BC
:10071000A3AC82AD83EA24FF1AEB34FFFBEA4B70F3
:10072000D8850AC7E509A2E092AF7F040200FA74F7
:10073000F612008EECFEED900284F0EEA3F0A374AE
:1007400062F0A37473F0A3E0541FF0740A12022243
:10075000E0F508A3E0F509E508333354FC9002897D
:10076000F074067808120206E508900288F09002FC
:100770008A7412F0A37442F075D11E75D601EA9006
:100780006271F0EBA3F0906270E0D2E1F0E0A2E7DA
:1007900040FB7F020200FAC082C083E9C33390624B
:1007A00072F0906270E0D2E0F0D083D08202016CEF
:1007B000E9F875B60FE5B4A2E750FAE8C395BB5067
:1007C0000479018002790002016CFFFFFFFFFFFF47
:1007D000FFFFFFFFFFFFFFFFFFFFFFFFFFFFFFFF29
:1007E000FFFFFFFFFFFFFFFFFFFFFFFFFFFFFFFF19
:1007F000FFFFFFFFFFFFFFFFFFFFFFFFFFFFFFFF09
:020000040003F7
:10F80000FFFFFFFFFFFFFFFFFFFFFFFFFFFFFFFF08
:04000005000001E313
:00000001FF
