:020000040000FA
:0600000002011A0223AD0B
:03002B00022AA8FE
:0300530002242361
:10008300022203E5C754F84401F5C77901220000B1
:100093000080FB120086B90003020104E479217891
:1000A30008B800028004F709D8FCE479297802B87B
:1000B30000028004F709D8FCE490028178AA79133E
:1000C3008002F0A3D8FCD9FA781A90014A7A01BACF
:1000D30000028007E493A3F608DAF97A2A7B1590E5
:1000E300014B78A279038015E493A3AD82AE838A92
:1000F300828B83F0A3AA82AB838D828E83D8E9D9C6
:10010300E7758288758382740412012C7582917558
:100113008300740012012C75D00075813F7518811E
:10012300751902759F00020096C09FF59FE473D076
:100133009F22D083D082C09FE493C0E0740193C018
:10014300E0740293F59F2201FF0000B40000280031
:100153002800283075A000A000A000A0000008001F
:1001630008E001F000100010001000100010001053
:100173000050005000500010001000D00700000095
:100183000000000F0001000500307507001000019A
:100193000081FF00000000FFFFFFB006CE06B60699
:1001A300F206FF02020208025000A0000000E8036A
:1001B300021F820100000B820219820100008515D3
:1001C300022281010000C10202198201000086158A
:1001D300024F82010000D702021982010000871535
:1001E300022582010000D90202198201000088154C
:1001F300022782080000DA02021982010000891531
:10020300022D820100008A15FFFF0100FF20021F5B
:10021300820100001482021982010000EF15024DD1
:100223008200000000000217820300000A03170087
:10023300FA0DFA0DFA0DFA0DFA0DFA0DFA0DFA0D83
:10024300FA0DFA0DFA0DFA0DFA0DB810CA10B21024
:10025300020202020202020202010D00000010016A
:10026300021F82010000118202198201000032166E
:10027300023D820100004407021982010000331687
:10028300023B82010000158102198201000034162D
:10029300023982010000078102198201000035162C
:1002A300023782010000A580021982010000361680
:1002B3000235820100008180021982010000371695
:1002C3000233820100009380021982010000381674
:1002D300023182010000B780021982010000391641
:1002E300022F82010000F9800219820100003A16F0
:1002F300022B820100003B1601E8030577100AFF79
:10030300FFFF00013075030201060000000000003A
:1003130000000000000000000000000000000000DA
:10032300000000000000FFFF0600800CE803120934
:10033300546865726D6F6D6574657253656E736F26
:10034300720512C80040060A0002010503020918DB
:10035300546865726D6F6D657465722053656E7355
:100363006F720000000F0F0F0F0F0E730100006874
:1003730015000098159E152002102A1E0001003C4E
:1003830000021F820100000E82021982010000593F
:10039300170243820000001515021782030000169E
:1003A300150219820100005A170245820100001844
:1003B300150219820100005B170247820000001931
:1003C300150217820300001A150219820100005C4E
:1003D300170249820900005D170217820300001CFF
:1003E30015024B820100005F1712013568E4031206
:1003F30001357BE4031201359CE40312013507E563
:100403000312013548E50312013569E5031201358D
:100413008AE503120135CBE50312013563E60312C6
:100423000135ABE603120135D6E60312013527DAAF
:10043300031201353ADA031201356BDA031201357F
:10044300A5DA03120135FEDA0312013545DB031287
:1004530001358DDB03120135BCDB03120135EBDB08
:100463000312013522DC0312013569DC0312013565
:1004730082DC03120135D7DC03120135F0DC0312F1
:1004830001353EDD0312013578DD031201357BB6FC
:10049300021201357EB702120135ABB702120135E4
:1004A300FCB7021201351FB80212013531B802122E
:1004B300013534B80212013572B802120135A8B8F9
:1004C300021201353FB902120135ABB902120135EF
:1004D30073BA021201358FBA02120135C6BA02127B
:1004E300013500BB0212013597BB02120135E9BB8E
:1004F300021201351ABC021201351DBC021201356C
:100503004EBC021201355BBC0212013573BC0212F0
:100513000135DDBC02120135E0BC02120135EDBC30
:1005230002120135F0BC0212013547BD021201353A
:1005330058BD0212013591BD0212013594BD02125C
:100543000135C8BD02120135CBBD021201351FBEF4
:100553000212013568BE0212013578BE021201355E
:10056300ABBE02120135B8BE02120135BBBE021288
:10057300013523BF0212013525C002120135C9C05E
:100583000212013532C10212013570C10212013566
:1005930046D2031201356ED2031201359BD20312E8
:1005A3000135D3D20312013531D3031201357DD383
:1005B30003120135E4D30312013524D403120135A8
:1005C30061D4031201358FD40312013539D50312D7
:1005D300013543D50312013550D50312013583D5B7
:1005E300031201358FD503120135A7D50312013547
:1005F300B1D5031201350080041201350E800412B7
:1006030001352680041201353D800412013521CFC6
:1006130001120135CBCF01120135DED001120135B4
:100623005AD10112013578D201120135B4D2011227
:1006330001354FD30112013533D401120135FFD4F3
:10064300011201358DD601120135FED60112013595
:10065300B8D701120135AAD801120135EAD801121F
:1006630001359ED901120135D0D901120135C6DBFE
:100673000112013508DC0112013526DC01120135B6
:100683008CDC011201355BDD011201351FDE011225
:1006930001353EE0011201353090031201351A9104
:1006A30003120135C5910312013516920312013568
:1006B300C692031201353793031201351C940312BA
:1006C300013550940312013549950312013586957E
:1006D30003120135629603120135A1960312013507
:1006E300BD960312013540F303120135C4F303121F
:1006F3000135EFF30312013509F5031201353FD636
:100703000312013555D60312013573D60312013591
:1007130084D7031201358ED703120135B9D80312DA
:100723000135B0D9031201351DDA0312013512A3C5
:100733000312013548A4031201357FA403120135C6
:10074300D6A403120135EBA6031201350969001281
:100753000135BA6900120135D66900120135976A6D
:1007630000120135CC6A00120135456B00120135C8
:10077300796B00120135846B001201355A6C00123B
:100783000135376D00120135946D00120135246E69
:1007930000120135DB6E00120135E97100120135DB
:1007A300D873001201358A74001201355375001293
:1007B30001359878001201354279001201356B7AC0
:1007C30000120135277C00120135C77C0012013568
:1007D300157D00120135547D00120135277E00126C
:1007E30001355B7E00120135E87E001201356BAAEC
:1007F30001120135F7AA011201355BAC0112013573
:1008030067AC01120135A2AC0112013511AD011221
:1008130001351AAE0112013523AF01120135EAAFDA
:100823000112013547B10112013565B101120135DC
:1008330082B1011201352FB201120135ACB201129E
:100843000135D4B2011201359EB501120135A3B5AC
:1008530001120135BCB7011201350AB80112013585
:100863007AB801120135B8B80112013594B90112F1
:10087300013554BA01120135A0BA01120135A3BAE8
:1008830001120135E7BA011201352FBB01120135FF
:100893006EBB0112013590BB01120135C4BB0112BD
:1008A300013527BC0112013505AE031201350EAE29
:1008B300031201351CAE031201356FAE031201356D
:1008C3008EAE03120135D3AE0312013517B00312F6
:1008D3000135B2B003120135F6B00312013520B170
:1008E300031201358FB103120135D5B1031201355E
:1008F3004CB203120135FDB203120135D82A00129E
:100903000135E82A00120135892B00120135E52B48
:1009130000120135A22C00120135BE2D0012013543
:10092300F02D001201351F2E00120135CC2F0012BD
:100933000135433200120135B33400120135A535B8
:10094300001201359E3600120135A538001201351B
:10095300993B00120135C83C00120135CC3E001210
:100963000135DC3F001201356B41001201355C4259
:1009730000120135AA420012013519430012013554
:100983003D43001201358E43001201352F480012FA
:100993000135304900120135914900120135BC4936
:1009A30000120135824A0012013540CE031201358F
:1009B3004ACE031201358FCE03120135A3CE0312A3
:1009C300013533CF031201356CCF03120135A7CFA5
:1009D30003120135D0CF0312013524D003120135A0
:1009E30039D0031201355BD00312013570D00312E5
:1009F300013584D00312013599D003120135D3D0C8
:100A030003120135FFD00312013586D103120135DC
:100A1300C9D103120135F3D1031201351ED20312DA
:100A23000135EAFB03120135A6CC0212013589CD4B
:100A33000212013504CE021201353FCE02120135F6
:100A430090CF021201351ED002120135B0D202122C
:100A5300013562D3021201356ED402120135E1D59C
:100A6300021201353AD602120135AEC50312013521
:100A7300F1C50312013575C6031201354CC90312C2
:100A830001355BEC031201350DED0312013509EE5F
:100A93000312013548EE03120135A2EE03120135AC
:100AA3002EF70312013591F7031201352EF80312C5
:100AB300013563F80312013593F803120135CEF8BB
:100AC30003120135EEF803120135DBB703120135CA
:100AD30067B80312013526B9031201353EBA031272
:100AE300013558BC03120135F7AA021201351CABBC
:100AF30002120135E9AB02120135BDAC0212013518
:100B03002AAD021201356AAD0212013506AE021298
:100B130001353AAF0212013515B00212013574B036
:100B23000212013500B1021201356EB10212013514
:100B3300FAB10212013540B202120135B2B2021209
:100B4300013544B302120135E5B30212013505B490
:100B5300021201354DB40212013596B40212013569
:100B6300B2B402120135D8B40212013552B50212E1
:100B7300013560B502120135EFB50212013558B6E1
:100B8300021201358FBC0312013514BD0312013566
:100B930056BD031201353ABE03120135A7BE031237
:100BA3000135EBBE031201352FBF031201355CBFC4
:100BB3000312013584BF03120135BCBF0312013593
:100BC300FABF0312013521C0031201359BC0031282
:100BD3000135E5C0031201354BE001120135EAE1AD
:100BE3000112013522E40112013576E401120135C7
:100BF300A1E4011201357DE501120135ADE50112D4
:100C03000135DCE501120135EFE50112013530E66E
:100C1300011201355DE601120135ABE60112013522
:100C2300E7E6011201352CE70112013579E70112DC
:100C33000135F3E70112013534EA011201351EECE7
:100C4300011201355AEC01120135E9ED01120135AA
:100C53002EEE01120135A1EE01120135F6EE01125D
:100C630001355AEF0112013579F0011201358AF08D
:100C7300011201358DEA0212013506EB021201352C
:100C8300C0F002120135CBF10212013574F30212E6
:100C9300013502F402120135548201120135D58265
:100CA300011201350283011201354B830112013513
:100CB3004C8401120135A5840112013521860112EC
:100CC3000135A38601120135BE86011201352F8736
:100CD30001120135EC8701120135AF88011201358C
:100CE3003D8901120135F48901120135078A011288
:100CF3000135A08A01120135378B011201355E8B54
:100D030001120135C78B01120135118C0112013516
:100D13005F8C01120135048D01120135A28D011280
:100D230001352F8E01120135A08E01120135E78E98
:100D3300011201353F8F01120135718F0112013507
:100D43002B90011201353291011201357B91011271
:100D53000135989101120135B79101120135EA92DB
:100D630001120135A19301120135C6930112013518
:100D7300DB93011201354B94011201358C9401125E
:100D83000135B09501120135319601120135CDE0DF
:100D93000212013518E10212013524E10212013574
:100DA300F8E1021201350FE2021201354CE20212A0
:100DB30001357DE202120135B5E2021201350BE382
:100DC3000212013521E3021201355DE302120135FE
:100DD30070E30212013597E302120135CBE30212ED
:100DE3000135F1E4021201353BE60212013537E722
:100DF3000212013554E802120135FCFF01120135DC
:100E03000080021201353B80021201358D830212EC
:100E13000135E98402120135A885021201350F89D3
:100E230002120135F98902120135458A0212013590
:100E33005F8A021201359C8A02120135A78A0212C7
:100E43000135E68A02120135EF8A02120135998BC8
:100E530002120135708C02120135C48C0212013565
:100E6300218D02120135938D02120135FFBC01124F
:100E730001355EC00112013564C00112013595C709
:100E8300011201359CCB01120135E0DD031201355E
:100E930076DE031201358CDE03120135E5DE031223
:100EA300013529DF0312013563DF03120135FBDF4F
:100EB300031201356AE00312013573E003120135B1
:100EC3007FE00312013599E003120135C3E00312F9
:100ED3000135D8E0031201353AE10312013561E12E
:100EE30003120135FEC9031201350BCA0312013582
:100EF30025CA0312013558CA0312013596CA0312D3
:100F03000135FBCA0312013510CB031201351BCB8C
:100F13000312013528CB031201353FCB03120135F0
:100F23004DCB0312013558CB0312013564CB0312A9
:100F3300013573CB031201357ECB03120135A1CBEF
:100F43000312013545CC0312013555CC031201358B
:100F53006FCC031201358CCC03120135A7CC0312DD
:100F63000135CCCC03120135D7CC03120135ECCCBF
:100F73000312013500CD0312013561CD0312013592
:100F830067CD031201356DCD0312013573CD031205
:100F930001358BCD03120135BECD03120135749D8E
:100FA300021201350B9E02120135A39E0212013576
:100FB300939F02120135CA9F02120135DD9F02126F
:100FC30001354BA002120135E6A1021201350DA233
:100FD30002120135AFA202120135E4A20212013559
:100FE300F5A2021201356EA3021201358FA302127C
:100FF3000135A7A302120135FFA40212013508A788
:101003000212013558A9021201355BAA02120135F9
:10101300AAAA02120135E28E02120135DF8F0212F3
:101023000135CA9002120135D49002120135F690AF
:101033000212013502910212013554920212013556
:10104300839202120135B39302120135F593021212
:101053000135219502120135F795021201354996A2
:1010630002120135A89602120135DF9602120135EC
:101073001A9702120135B59A02120135CE9A02125D
:101083000135509B021201355E9B02120135B39B61
:1010930002120135C19B021201352E9C0212013549
:1010A300A09C02120135E69C0212013596C1021280
:1010B3000135B8C102120135A2C30212013547C777
:1010C300021201358AC80212013564C902120135C0
:1010D300FCF80312013521F90312013592F90312C9
:1010E30001352CF40212013535F4021201353EF4B8
:1010F300021201356FF5021201358EF70212013526
:10110300C4F702120135FEF70212013534F8021258
:1011130001356EF802120135A2F802120135CEF83C
:101123000212013517F90212013551F90212013584
:1011330099F902120135EFF90212013524FA02126C
:1011430001357FFA02120135B9FA021201350AFBA1
:101153000212013540FB021201357AFB02120135FE
:10116300A8FB02120135CBFB02120135CD8004121C
:101173000135F980041201355481041201355E8171
:10118300041201356E81041201350FB303120135C8
:1011930036B303120135038204120135EE4A0012FD
:1011A3000135FF4D00120135954F001201351250E4
:1011B30000120135BE500012013561510012013594
:1011C300F9510012013528520012013595520012CF
:1011D30001352D5700120135C15700120135FD5855
:1011E300001201356759001201351B5A00120135EF
:1011F300D15C001201350B5D00120135755D0012E3
:101203000135D35D00120135315E001201358E5E6A
:10121300001201357D5F00120135C35F00120135F5
:101223000860001201352B60001201357261001253
:101233000135866100120135F56200120135346310
:1012430000120135746300120135C76300120135C2
:10125300E863001201352664001201354C66001262
:1012630001358D6600120135286700120135946738
:1012730000120135D568001201351FE7031201354D
:10128300C5E703120135B2E803120135F1E8031291
:1012930001355BE9031201354583041201358FE102
:1012A300031201355AE40312013528830412013570
:1012B300FEFC031201350EFD0312013522FD03125C
:1012C300013505FE0312013559FC02120135FFFCFD
:1012D3000212013541FF02120135F9FF01120135F6
:1012E300DE7F00120135F07F00120135F37F00121B
:1012F3000135F87F00120135CDEE03120135A6F05A
:101303000312013512F103120135B2FA031201354A
:10131300E3FA031201350DFB031201352DFB031212
:1013230001358BFB03120135008003120135158053
:1013330003120135718003120135DC80031201357C
:10134300248103120135968103120135C0810312F2
:101353000135CE81031201353082031201356E82CD
:1013630003120135898203120135248303120135E7
:10137300CB83031201354C8403120135838403129A
:1013830001350C8503120135618503120135BE85D4
:1013930003120135D08503120135F6850312013599
:1013A300FF85031201354F8703120135E7870312C7
:1013B300013538F5031201359DF50312013558F651
:1013C30003120135D6F60312013525C10312013587
:1013D30058C1031201358AC203120135CEC203126A
:1013E30001358FC30312013567C4031201352A9DEA
:1013F300031201350B9E03120135679E031201355B
:10140300819E03120135929E0312013562A10312DC
:10141300013582A103120135C9E9031201350EEA30
:101423000312013552EA0312013519EC0312013597
:10143300F5FE0312013510FF0312013520FF0312DD
:10144300013583FF03120135E3D602120135BFD7FD
:101453000212013502D8021201353CD802120135BD
:10146300AAD80212013504D90212013574D9021225
:10147300013545DA0212013535DB02120135ACDBE9
:101483000212013549DD02120135D6DD02120135A2
:101493004ADE02120135C8DE02120135DFDE021216
:1014A300013506E00212013561E0021201355CFFED
:1014B300021201351E97031201353B9703120135C2
:1014C3003D9803120135899803120135A998031237
:1014D3000135FA9803120135659903120135A9996B
:1014E300031201350B9A03120135A99C031201352E
:1014F300679601120135969B01120135999E0112DF
:101503000135C29E01120135EB9E01120135999FEF
:101513000112013582A101120135CDA2011201355B
:10152300E6A2011201351DA80112013556A80112C8
:1015330001359AA801120135ABA901120135ADF0AD
:1015430001120135A5F20112013531F40112013501
:1015530069F40112013504F6011201354DF6011249
:101563000135FEF6011201351BF70112013540F872
:1015730001120135A5F801120135CFFA0112013527
:1015830050FB011201358BFD0112013532FE0112B0
:101593000135A7FE01120135D5FE01120135FEFE0C
:1015A30001120135A8FF011201351B880312013511
:1015B300538903120135668903120135D089031259
:1015C3000135618A03120135E98A03120135718BF2
:1015D30003120135C38B03120135368D0312013516
:1015E3000BFE031201350EFE0312013515F1031232
:1015F3000135E2F203120135B2A803120135D3A873
:10160300031201351FA90312013578810412013534
:10161300E28204120135CDFF03120135DBFF01E045
:1016230066701008A3E066700A08A3E066700408F9
:10163300A3E06622C3E7960809E7960809E7960838
:1016430009E79622C3E09608A3E09608A3E096086C
:10165300A3E09622C008C3E096F50808A3E09642EB
:101663000808A3E096420808A3E09645087001D352
:10167300D00822080808EAC0E0EBC0E086F0E7A43F
:10168300FA180986F0E7A42AFA180986F0E7A42ACB
:10169300FA180986F0E7A42AFA1986F0E7A4FBE50D
:1016A300F02AFA190886F0E7A42BFBE5F03AFA19B9
:1016B3000886F0E7A42BFBE5F03AFA18180986F040
:1016C300E7A4C5F02BFBE43AFA1908E7C5F0C6A472
:1016D30026F6E5F03BFBE43AFA1886F0E7A4F6E5D4
:1016E300F00826F6E43B08F6E43A08F6D0E0FBD02F
:1016F300E0FA22E4CFC0E0E4CEC0E0E4CDC0E0E411
:10170300CCC0E075F020E626F608E633F608E633AB
:10171300F608E633F6181818EC33FCED33FDEE3318
:10172300FEEF33FFC3EC9709ED9709EE9709EF97A7
:10173300191919400FFFEC97FC09ED97FD09EE9776
:10174300FE191906D5F0BFECF709EDF709EEF70915
:10175300EFF7191919D0E0FCD0E0FDD0E0FED0E09E
:10176300FF226016080808C6C313C618C613C61896
:10177300C613C618C613C6D5E0EA227009080808BE
:10178300226016181818C6C333C608C633C608C65F
:1017930033C608C633C6D5E0EA22E627F60809E6CB
:1017A30037F60809E637F60809E637F622E026F6A3
:1017B30008A3E036F608A3E036F608A3E036F622DF
:1017C300E026F008A3E036F008A3E036F008A3E033
:1017D30036F022C3E697F60809E697F60809E69776
:1017E300F60809E697F622C3E096F008A3E096F020
:1017F30008A3E096F008A3E096F022E056F608A3CB
:10180300E056F608A3E056F608A3E056F622E056A3
:10181300F008A3E056F008A3E056F008A3E056F062
:1018230022E046F608A3E046F608A3E046F608A33E
:10183300E046F622E0F608A3E0F608A3E0F608A3E4
:10184300E0F622E6F008A3E6F008A3E6F008A3E634
:10185300F022E0FAA3E0FBA3E0FCA3E0FD22E0F822
:10186300A3E0F9A3E0FAA3E0FB22E8F0A3E9F0A3E5
:10187300EAF0A3EBF022CAC0E0E6F0A308DAFAD05C
:10188300E0FA22CAC0E0E0A3C582CCC582C583CDFD
:10189300C583F0A3C582CCC582C583CDC583DAE6F3
:1018A300D0E0CA22C3E498F8E499F91218E8802634
:1018B300C3E49AFAE49BFBE920E7E91218E8E49809
:1018C300F8E499F922C3E498F8E499F91218E8E4E2
:1018D30098F8E499F9C3E49AFAE49BFB22EB20E736
:1018E300CFE920E7E0B90010BB0008E88AF084F8EC
:1018F300AAF022E4FBC8FA22EB70227B10C833C89B
:10190300C933C9335007C39AC3DBF280069A500127
:101913002ADBEAC833F4C8C933F4C9FA2275F008DC
:10192300E4C833C8C933C933C99AC99B5004C92A07
:10193300C93BD5F0ECFBC833F4C8E4C9FA22600D07
:1019430008C6A2E713C618C613C6D5E0F322600C77
:1019530008C6C313C618C613C6D5E0F42270042202
:10196300600D18C6C333C608C633C6D5E0F41822C3
:10197300251810AF08F518400C15198008F5184004
:10198300021519D2AF2200C0D0251810AF08F518E0
:10199300500C05198008F51850020519D2AFD0D0A4
:1019A300222518F58210AF08F518400C1519800888
:1019B300F51840021519D2AF851983222518F5822F
:1019C300E43519F583222518F8E43519F922251889
:1019D300FAE43519FB222518FCE43519FD22E473DA
:1019E3002518C582C0E0E51934FFC583C0E0E518BA
:1019F300C3958224F810AF0885831985821880085F
:101A0300858319858218D2AFCEF0A3E520F0A378A1
:101A130008E608F0A3DEFAEFF0A3E58124FAF8E67E
:101A230008F0A3E608F0A3E608F0A30808E608F028
:101A3300A3E608F0A315811581D0E0FED0E0F815E8
:101A43008115811581E8C0E0EEC0E0222518C5822A
:101A5300C0E0E51934FFC583C0E0E518C3958224CF
:101A6300F910AF0885831985821880088583198545
:101A73008218D2AFCEF0A3E520F0A37808E608F0F1
:101A8300A3DEFAEFF0A3E58124FBF8E608F0A3E672
:101A930008F0A30808E608F0A3E608F0A3158115EB
:101AA30081D0E0FED0E0F815811581E8C0E0EEC0FA
:101AB300E022851983851882E0A3FEE0A3F5207850
:101AC30008E0A3F608DFFAE0A3FFE0A3C0E0E0A389
:101AD300C0E0E0A3C0E0E0A3C0E0E0A3C0E010AF3B
:101AE300088582188583198008858218858319D211
:101AF300AFD083D082020132851983851882E0A397
:101B0300FEE0A3F5207808E0A3F608DFFAE0A3FFE0
:101B1300E0A3C0E0E0A3C0E0E0A3C0E0E0A3C0E036
:101B230010AF0885821885831980088582188583FC
:101B330019D2AFD083D08222C0D02518C582C0E08D
:101B4300E51934FFC583C0E0E518C3958224F3107B
:101B5300AF088583198582188008858319858218C3
:101B6300D2AFC8F0A3E9F0A3EAF0A3EBF0A379089E
:101B7300E709F0A3D8FAECF0A3EDF0A3EEF0A3EF9E
:101B8300F0A3D0E0F0A3D0E0F0A3D0E0F0A3E520F1
:101B9300F0A3E5F0F0A322851983851882E0C0E065
:101BA300A3E0F9A3E0FAA3E0FBA37808E0F608A317
:101BB300DFFAE0FCA3E0FDA3E0FEA3E0FFA3E0C0A7
:101BC300E0A3E0C0E0A3E0F5D0A3E0F520A3E0A309
:101BD300F5F010AF0885831985821880088583196D
:101BE300858218D2AFD082D083D0E0F8D0E03274AF
:101BF300048006740280027401C0E0F4041219A484
:101C0300D0E0121879227404800474028000CCC0DE
:101C1300E0EDC0E0E518C39CCCAD1950011D10AF39
:101C2300068C188D1980068C188D19D2AF12188660
:101C3300D0E0FDD0E0FC22D083D082E9C0E0E49381
:101C4300A3C386F0C5F095F0F908E493A386F0C525
:101C5300F095F0700BE493A3C3994005E904800267
:101C6300A3E475F002A42582F582E5F03583F583BC
:101C7300D0E0F9E493A3C0E0E493C0E022D083D0A2
:101C830082ECC0E0EDC0E0E493A3FCE493A3FDED9C
:101C93004C600D121CCCEC24FFFCED34FFFD80EFF7
:101CA300E493A3FCE493A3FDED4C600D121D0BEC38
:101CB30024FFFCED34FFFD80EFD0E0FDD0E0FCE439
:101CC30093A3C0E0E493C0E022C0E0C3E49396088A
:101CD3007401939618400FE4936670080874019397
:101CE300661870007019A3A3C3E493960874019354
:101CF3009618A3A3400DD0E0D0E0D0E0021CBCA313
:101D0300A3A3A3A3A3D0E022C0E0C0F088F0E49390
:101D13006670080874019366187000A8F0A3A37096
:101D23000BD0F0D0E0D0E0D0E0021CBCA3A3D0F0F5
:031D3300D0E022DB
:101D380074F6121A4FEAFEEBFF8C088D09EE243474
:101D4800F8E43FF9E8FCE9FDEE243512204BFAEE01
:101D5800243712204BF88508F0A4C885F00A8509B5
:101D6800F0A4250AF9EA28F8E439F97A257B001263
:101D780018E8EA8C828D83F0FA131313541FF8EED7
:101D880028F8E43FF9E8245DF582E439F583E0C0FA
:101D9800E074075AF8D0E0B800028004C313D8FCF6
:101DA800A2E0EE50082434F582E43F80182436126D
:101DB800204BF5F0EA84A8F0EE28F8E43FF9E8248F
:101DC80038F582E439F583E0F97F03021AFB74F7EA
:101DD800121A4FEAFEEBFFEE243412204BC0E0EE5D
:101DE8002435F582E43FF583D0E0F08E828F83A31B
:101DF800A3A3A3A3A3A3C082C0838E828F83A3A31C
:101E0800A3A3A3E0F8A3E0F9D083D082E0C398F5B8
:101E180008A3E099F509EE247F12204B6401703E77
:101E2800EE2480F582E43FF583C082C0838E828FE2
:101E380083A3A3A3A3A3E0240108A3E03400F9D05B
:101E480083D082E0687003A3E06970127CB57D04DA
:101E5800120D3AEE247FF582E43FF583E4F0AC08F6
:101E6800AD09EEFAEFFB121D38E9F9122A9A7F0242
:101E7800021AFBC082C083851882851983E0F8A303
:101E8800E0F9C3EA9CEB9D5010C3EC98ED99401B18
:101E9800C3EA98EB995014800EC3EA98EB9940076F
:101EA800C3EC98ED994004790180027900D083D081
:101EB8008222EAC39CFAEB9DFB2274EF121A4F9020
:101EC800037AE064086005E06407702A9061C8E05E
:101ED80060249003A8E0F4601DE0F875F00BA4C836
:101EE800AAF02AF974AA28FE740339FF8E828F8318
:101EF800A3A3A3E07003021FD0906060E0C0E0EEEF
:101F08002468F582E43FF583D0E0F0750C25750D63
:101F180005750800750900E5D914F50AE5D95403D3
:101F2800F50E60127403650E6043E50A600AEE243C
:101F38006712204B70028075900520E06401601FD5
:101F480012204860047A0480027A00E50AC39AFAEB
:101F580095E0FB120BEA8A088B09EA45097005121D
:101F68000F80806412204870048A0C8B0DE50A608B
:101F780012850C82850D83F50BE5D9F0A3150BE5C9
:101F88000B70F6122048604474FC250AF50A780C98
:101F9800121BF6AC0AA90EEEFAEFFB120DF474024E
:101FA800121989E97026AA08AB091213B8793D8E6F
:101FB800828F83A3A3A3A3E0FA7B00120A4CEEFA54
:101FC800EFFB120D5E120E067900806F7403650E2A
:101FD8006051850A107511007810121BF6AC0CAD13
:101FE8000DAA08AB09120DB87402121989EE2468FB
:101FF80012204B64807004747F8001E0F50C780C2B
:10200800121BFAE50EF50C780C121BFAA90AAC089B
:10201800AD099003A8E0FA7B00120A227402121993
:1020280089801390037AE06408600BAC0CAD0DEE68
:10203800FAEFFB120E7E120F8C79017F0A021AFB4F
:10204800EE2483F582E43FF583E02274F2121A4FFE
:1020580074FC121973EAFEEBFF8909A2AFE433F5A9
:1020680008C2AF02211DE0601B780C121BF6AC0BF6
:10207800A90EEEFAEFFB120DEE7402121989740420
:10208800250BF50B7401250BF5D9850ED9E50B60E9
:1020980018F50A850C82850D83E0F5D9A385820C95
:1020A80085830D150AE50A70EA75E195EE2463F853
:1020B800E43FF97A007B00A2AFE433F50BC2AF88A6
:1020C800828983E0FCA3E0FDEC4D603A8882898335
:1020D800E0FAA3E0FB8A828B83E0FCA3E0FD888220
:1020E8008983ECF0A3EDF08A828B83E4F0A3F08877
:1020F800828983E0FCA3E0FDEC4D700A8882898325
:10210800A3A3E4F0A3F0E50BA2E092AF1213B890FA
:1021180004BCE004F0EE246312204BF8A3E0F9E8D5
:10212800496064EE246312204B2402F8A3E03400D3
:10213800F988828983E5822402F50CE43583F50D5C
:10214800E0F50BA3E0F50EEE246212204B6401705B
:10215800369061D0E0F812204860047C0480027C4C
:10216800007480C398FA95E0FBE50B2CF8E4340082
:10217800F9E82402F8500109C3EA98EB99A2D2655C
:10218800D033400302206E9004BCE0604D9004BD43
:10219800E0F89004BCE0C398500C74026509703AEA
:1021A8009004BEE060348E828F83A3A3A3A3E0854E
:1021B80018828519831221F274021219BFE81221BC
:1021C800F29004BBE028F074021219D9AA18AB19CE
:1021D8007901120A769004BCE4F0E508A2E092AF17
:1021E80074041219897F07021AFBF0A3E4F0900423
:1021F800BCE0F8228521878522C622C0E074EB1254
:102208001B3BA2AFE433F508C2AF759B0090618217
:10221800E0A2E05030E591A2E0502A7591FE7401E9
:1022280065217021122396120ECC122384121C09E8
:102238001228447404121989E9640170057901129D
:102248000F14121EC2906182E0A2E5505DE591A2D2
:10225800E550577591DF90037AE064076005E06404
:1022680008702F12239674016521703E120ECC124D
:102278002384121C091228447404121989E9640180
:1022880070057901120F147901EEFAEFFB12205351
:102298008018E0640D701390039CE004F0642870CB
:1022A80002E4F07A00E0F9120F92906182E0A2E66F
:1022B8004003022359E591A2E64003022359759190
:1022C800BF90037AE064057008120EB4120EC08045
:1022D80003120EBA752100120F20E990037BF079E2
:1022E80000120F14120CAA7A017B00900379E0F90E
:1022F800121382907803E064427056900524E0142B
:10230800F0704EC2AF12231000782AD0E0F618D031
:10231800E0F6E59F5407F87005750DFF8003750D0D
:102328007FC4C0E07829E6F50A08E6550DF50B7478
:102338000B780A121951D0E0250AF8906270E0A2D1
:10234800E740F8E8C333906272F0906270E0D2E040
:10235800F0906181E0A2E35009E5E9A2E35003753A
:10236800E9F7A3E0A2E75009E591A2E750037591C8
:102378007FE508A2E092AF7F08021B9A8E828F83C6
:10238800E0F8A3E0C82416F582E438F58322900328
:10239800A8E0F875F00BA4C8AAF02AF974AA28FED8
:1023A800740339FF22C0E0C0D0C082C0839061832B
:1023B800E0A2E05009E5BFA2E0500375BFFEE0A22D
:1023C800E15009E5BFA2E1500375BFFDE0A2E2506C
:1023D80009E5BFA2E2500375BFFBE0A2E35009E59F
:1023E800BFA2E3500375BFF7E0A2E45009E5BFA21E
:1023F800E4500375BFEFE0A2E55009E5BFA2E55040
:102408000375BFDFE0A2E65009E5BFA2E6500375F9
:10241800BFBFD083D082D0D0D0E032C0E074F212F7
:102428001B3BE5A7A2E6500FE5A1A2E6500953A77A
:10243800BF75A1BF122477E5A7A2E5500CE5A1A2BC
:10244800E5500653A7DF75A1DFE5A7A2E15009E52E
:10245800A1A2E1500375A1FDE5A7A2E2500CE5A1F8
:10246800A2E2500653A7FB75A1FB7F01021B9A74D9
:10247800F7121A4F75210190037AE064067015125D
:102488000E2A8A828B83A3A3A3A3A3A3E0FAA3E0C3
:10249800FB120EA2A2AFE433FED2AF900380E06439
:1024A8000170187A207B00900379E0F91214D87A29
:1024B800207B00900379E0F9121388906182E0D2C2
:1024C800E6F0900521E0602185C622801690037F02
:1024D800E064017008E5C654F84405F5C653BEFC2F
:1024E8001221FC7401652160E4EEA2E092AF7F0244
:1024F800021AFB008E238F2485822885832785185E
:1025080082851983E0CEA3E0CF852882852783EBD7
:10251800C9EAC8EDCBECCA75F010C3E833C8E93393
:10252800C9EA33CAEB33CBC3EA9EF526EB9FF52500
:10253800B35004AB25AA26EC33CCED33CDD5F0DA75
:10254800AE23AF242274E9121A4F74FA121973EAEF
:10255800FEEBFF8C0A8D0B120ED8EAF8EBF9ECFAB9
:10256800EDFB8E828F8312186D90037AE024F7C3F7
:10257800940550067514010226B4120E2A8A088B97
:1025880009EA450970030226B1EEFCEFFDAA18AB73
:1025980019120ED2850882850983A3A3780C121814
:1025A800379081C3780C1217FE85188285198378B5
:1025B800101218379081C378101217FE780C791012
:1025C800121637501F780C79101217D690815B7845
:1025D8000C1216574047850C14850D15850E168567
:1025E8000F17804590815B8510148511158512168B
:1025F8008513177814790C1217D6781412165750B9
:102608001C75140075150075160075170178147976
:10261800101217D67814790C12179D800C751401B6
:102628007515007516007517007409781412177E51
:1026380090815F780C1218377814790C1216F68589
:102648000882850983A3A3A3A3A3A31226D21218E1
:10265800E8880C890DE4F50EF50F7814790C12173B
:102668009D74041219BF1226D21218E8E8FA8A0CCF
:10267800E4F50D7814790C12163750077814790C94
:102688001217D690037AE06408600AE064066005D1
:10269800E0640570209081637814121657501690E4
:1026A800816778141217B0800C75140075150075C1
:1026B8001600751700850A82850B83781412184650
:1026C80074061219897F10021AFBE0F8A3E0F97A60
:1026D800D07B032274F7121A4F120EEA90051FE0FE
:1026E80064017010906245E4F0A3F053F4F343FEE4
:1026F8000C5390F3120E90E5C654B84441F5C6E564
:102708009E5447644170F8906185740FF090051DE0
:10271800E0F47002A3E0604E90051EE060081460CB
:102728001B14602E804075080175090090051DE096
:102738007808121960E508F45280802A7508017536
:10274800090090051DE07808121960E508F4529018
:10275800801475080175090090051DE078081219A4
:1027680060E508F452A079007F02021AFB74F712A0
:102778001A4FE9FEEAFF120EEA74016E700C7A80B5
:102788007B00900379E0F9121382902AD0E493F445
:102798006008E493F9120C9E800953C6B8E59E546C
:1027A8004770FA120E9690051FE064017003120C30
:1027B800BC90051DE0F47002A3E0604B90051EE09C
:1027C800600814601A14602C803D750801750900B2
:1027D80090051DE07808121960E508428080287588
:1027E800080175090090051DE07808121960E508D0
:1027F8004290801375080175090090051DE078085E
:10280800121960E50842A0120E2A8A088B09A80846
:10281800A909E8496014E5E170FCE82414F582E4AC
:1028280039F583E0F46003E0F5E174016F700A7A2A
:1028380001900379E0F912143C02277074F1121A1E
:102848004F8A088B098C0A8D0B9081C37808121760
:10285800FE740F1219BF780C1218379081C3780CC8
:102868001217FE7808790C12163790815B50107891
:1028780008790C1217D678081216574014800E786B
:102888000C79081217D6780C121657500479018063
:102898000279007F08021AFB74ED121A4F8A088B1E
:1028A800098C0A8D0B9081C378081217FE741312D5
:1028B80019BF780C1218379081C3780C1217FE785C
:1028C8000C790812163740117808790C1217D6AA15
:1028D80008AB09AC0AAD0B802275100075110075A4
:1028E80012007513017810790C1217D67810790830
:1028F80012179DAA10AB11AC12AD137F0C021AFB74
:102908009081C378081218378A828B837808121846
:10291800117F04021AFB74F5121A4F8C828D83788A
:10292800081218378A828B8378081217EA122976D8
:10293800C3E09CF0A3E09D12296840229081D778DB
:10294800081218378A828B8378081217C38A828BF9
:1029580083A3A3A3A3E02420F0A3E0344EF080A037
:10296800F088828983C3E09420A3E0944E22EA246D
:1029780004F8E43BF98C828D83A3A3A3A3E0FCA312
:10298800E0FD888289832274F5121A4FE9FE9004CB
:10299800D7E0FAA3E0FBEE29F8E433F974E928F567
:1029A80082748039F583E02AF508A3E03BF50978BD
:1029B80008121BF69081CF1218551224FC740212CB
:1029C80019898A088B098C0A8D0B741078081217DC
:1029D80065AA08AB097F04021AFB74F1121A4F8A20
:1029E8000C8B0D8C0E8D0F74111219BF121C0D74E7
:1029F800111219BFE02401F508A3E03400F509E439
:102A0800F50AF50B780C7908121676908173780818
:102A1800121837780C7908121676AA0CAB0DAC0E82
:102A2800AD0F1224FC74021219898B09EA4509605A
:102A3800047A0180027A00EC2AFCE43DFD7413124A
:102A480019BFE0F8A3E0F9E8FEE9FFECF8EDF97A40
:102A5800717B021218E888088909E4F50AF50B8EDB
:102A6800828F837808121846ECF8EDF97A717B02A8
:102A78001218E88A088B09740578081219608E8282
:102A88008F83A3A3A3A3E508F0A3E509F07F0802B9
:102A98001AFBC082C083E9906000F0D083D0822204
:102AA800C0E0C0D0E8C0E0A2AFE433F8D2AFC2C7FC
:102AB800751A00E8A2E092AFD0E0F8D0D0D0E032AA
:062AC800C2AF0200002273
:102AD000FFFFFFFFFFFFFFFFC082C083E99015EEFD
:102AE000F0D083D08202013274F61219E3E9900229
:102AF000ECF090034CE0F5087509007402780812B8
:102B00001960AA08AB091214249002ED12349B90AC
:102B100002ED123888606F90034CE075F003A4FA60
:102B2000ABF012142490030A12349B90030A12385B
:102B300088700B9002ED12385912142A80489003C5
:102B40000A1247ED7AFF7BFF12127A7A0080198A07
:102B5000087509007402780812196012429574FF12
:102B6000122C9BE4F0A3F00A90034CE0F8EAC3981F
:102B700040DD79051209149002ECE0F91207FA7AA7
:102B80009E7B09120B8A02433874F41219E38A08F7
:102B90008B09EB548060479002ECE0F912136A8ACB
:102BA0000A8B0BAE0AAF0BEE4F602A8E828F83E04A
:102BB00064B0701A120926E960148E828F83A3A371
:102BC000A3A3E0F9EE2405FAE43FFB1208F6EEFABF
:102BD000EFFB121358AA08E5096480FB80047A0011
:102BE0007B00022DEB74F21219E374FB121973EAE5
:102BF000FEEBFFEE4F604574031219BFEEF0A3EF3A
:102C0000F0851882851983ECF0A3EDF07402121997
:102C1000BFE9F0AA18AB191207F4E9F5087075744A
:102C2000131219BFE0F50AA3E0F50BE50A450B60A6
:102C3000638E828F83123224EE4F700575080280F6
:102C4000537A067B001214248A0C8B0DA80CA90D54
:102C5000E8497005750813803B88828983E4122C4B
:102C60009BEEF0A3EF122DB7E50AF0A3E50BF09071
:102C700002F0122DB09002F06017E0FCA3E0800398
:102C8000EAFCEBFD8C828D83122DB070F38C828D6B
:102C900083123EB0A9087405024A6DF0A31247CF13
:102CA000A32274F21219E38908890C750D007403CC
:102CB000780C121960850C0A850D0B9002EFF090CC
:102CC00002ED123CBB122DAE602E12142A79008048
:102CD0001D890C750D007402780C1219609002EDBC
:102CE0001241548882F583A3A3E4F0A3F009900372
:102CF0004CE0F8E9C39840D990034CE0FA850AF01B
:102D0000A4CAA8F0850BF0A428FB1214248A0C8B0B
:102D10000DAE0CAF0DEE4F7003022DA490034CE0EE
:102D2000FC850AF0A4CCA8F0850BF0A428FD79005E
:102D30001213467C0080318D0C750D007403780CE5
:102D40001219608A828B83122DA988828983E4F00C
:102D5000122DB6A3A3F0A3F00DEDC3950840D8EE55
:102D6000250AFEEF350BFF0C90034CE0F8ECC398FE
:102D700050288C0C750D007402780C1219609002AA
:102D8000ED122DA9E82402500109FAE9FB8A828B91
:102D900083EEF0A3EFF07D0080BFE5089002EFF036
:102DA000790080027913024A70124158F922A3A3D4
:102DB00012385DEA4B22A31247CFA3A3A32274F4D7
:102DC0001219E37900EAA2E0501F750839750981EC
:102DD0007808121BF679107C047D007AF07B1512BE
:102DE000090E7402121989E9F980007F04021AB5EC
:102DF000C082C0839002F0123888601C8882898368
:102E0000A3A3E06A7003A3E06B8882898370E8A3C0
:102E1000A3A3A312385980047A007B00022AE1742C
:102E2000F21219E374FD121973EAFEEBFF851882A2
:102E3000851983E4F0A3F074021219BF7401F01233
:102E400038857014120AC41214249002F312349BB1
:102E50001238857003022FB112359BEE2404F50A57
:102E6000E43FF50B850A82F583E024FE603C24FCF8
:102E7000607424FE607E24FE7003022F0124FE7025
:102E800003022F0E24FE7003022F1B24FE70030288
:102E90002F2824FE7003022F3524FC7003022F56C6
:102EA00024FE7003022F6E022FAA120AC49002F5AC
:102EB000EAF0A3EB122FBD12043AE96003022FAA35
:102EC0009002F5121C0D8E828F83A3A3A3A3A312DD
:102ED00047ED8508828509831238591208DE74028D
:102EE000121989022FAAAC18AD19EEFAEFFB1209DC
:102EF0002C022F79AC18AD19EEFAEFFB12093280D3
:102F000078AC18AD19EEFAEFFB120938806BAC18EB
:102F1000AD19EEFAEFFB12093E805EAC18AD19EE6A
:102F2000FAEFFB1209448051AC18AD19EEFAEFFB31
:102F300012094A804474021219C9880C890D780C50
:102F4000121BF674021219D9EEFAEFFB1209507433
:102F5000021219898023AC18AD19EEFAEFFB1209A1
:102F600056E9F8701674021219BFE4F0803CAC18F0
:102F7000AD19EEFAEFFB12095CE9F8E8602C8E82DD
:102F80008F83A3E064146022850A82850B83E0901E
:102F900002F5F08518828519831238599002F612CD
:102FA000349BE8A3122FBD120434EEFAEFFB120893
:102FB000B474021219BFE0F97403024A6DF07CF593
:102FC0007D0285088285098312385D2274E8121912
:102FD000E374FA12197374041219BFECF0A3EDF044
:102FE0008A128B13EA2405F50EE43513F50FEA2453
:102FF00002F510E43513F511851082F58312385966
:1030000012058A8A0A8B0B7508007C037D00790003
:103010007AF57B02121346E50E2402F516E4350F0D
:10302000F51774021219C9880C890D780C121BF659
:10303000850E82850F83A3A3A3A3E0F50C750D0075
:10304000780C121BF6E50E2405F50CE4350FF50D92
:10305000780C121BF6851682851783123B601208C6
:103060001274061219898A0C8B0DE50C450D70033C
:103070000231ED8020851882851983E0888289835A
:10308000F00508851882851983A3E0C0E012322E6E
:10309000D0E0F00508E50A24FBFAE50B34FFFBC39A
:1030A000E5089AE49B40030231ED7E007F00851223
:1030B00082851383A3A3A3A3E0F5097809121BFA61
:1030C000E4F514F5157814121BF67514F275150253
:1030D0007814121BF69002F3121C0D74091219BF1A
:1030E000121C0DE50A24F9F9AC0CAD0D8510828592
:1030F00011831238591209867409121989E960037B
:1031000002318E850E82850F83A3A3A3A3A3A3A35D
:10311000E0F89002F2E0687075E0F5148E1578140E
:10312000121BF61247EA850E82850F83A3A3A3A381
:10313000A3A3A3A31238591213407402121989E9E8
:10314000604C9002F6123888703BE4F51478141243
:103150001BF67CFF7DFF790785108285118312386D
:10316000591208F0740212198912388E7017850EE0
:1031700082850F8312498774041219BF12424812C4
:103180003B91023221850C82850D83123224A818CE
:10319000A919881489157814121BF674041219BF22
:1031A000121C0D85168285178312349112081E7425
:1031B000041219898A0C8B0DEE4F700302306A12CB
:1031C000322EEE123239123B47EF123239F8A3E0B9
:1031D0003400F9E50C450D6003023075888289835F
:1031E00074FFF0050812322E74FFF00508E5086040
:1031F0001A1313543F1234A1120446E960099002D5
:10320000F61238591213B879008016850E82850F90
:103210008312498774041219BF124248123EB079D2
:103220000A023B1AA3A3A3A3E0FEA3E0FF22A8087F
:103230009002F6E028123B4722F00508089002F6BB
:10324000E0282274E81219E374FA12197374021256
:1032500019BF12349B74041219BFECF0A3EDF07483
:10326000021219BFE02405123B30E0F50CA3E0F593
:103270000D74021219BFE02402F510A3E03400F52A
:1032800011851082F58312385912058A7508007568
:103290000900EA24FCFEEB34FFFF8008050CE50C76
:1032A0007002050DA808C3EE98EF94005003023495
:1032B0004DA818A919880E890F780E121BF68514CF
:1032C00082851583A3A3A3A31247F1121BF6E5146D
:1032D0002405F50EE43515F50F780E121BF685144E
:1032E0008285158312348F12081274061219898A86
:1032F0000E8B0FEA450F700302344DEA2404F516D5
:10330000E4350FF517851682F583E0F50CA3E0F59B
:103310000D8518828519831247ED8A828B83A3A3BA
:10332000A3E0F9851082851183123859120800E94B
:10333000F509600302344D74021219BF123B57F5B0
:10334000097809121BFAE4F512F5137812121BF62C
:103350007512F27513027812121BF69002F3121C0A
:103360000D74071219BF121C0DEEF9AC0EAD0F85CE
:10337000108285118312385912098674091219892D
:10338000E9F509600302344DE508703FE4F50EF5F8
:103390000F780E121BF67CFF7DFF79098510828560
:1033A00011831238591208F07402121989123B7DE8
:1033B000700D74041219BF12348479110234819093
:1033C00002F2E024029002F6F080149002F6E0FA95
:1033D0009002F2E0790024025001096A497072A853
:1033E000089002F2E0FAE82AFAE43400FBEE9AEFE1
:1033F0009B405A851682851783E0C0E09002F71241
:103400003233D0E0F00508851682851783A3E0C02B
:10341000E0089002F7123233D0E0F005089002F293
:103420001247F1121BF61247EAA808123B241213A6
:103430002E74021219899002F2E02508F50874FF33
:10344000650C700474FF650D600302329CE5086032
:103450001F9002F6E0F5F0E508841234A112044C46
:10346000E960099002F71238591213B879008011F7
:10347000E509700375090A74041219BF123484A98E
:1034800009023B1A123CBFE50CF0A3E50DF022A3A4
:10349000A3124A7CAA0CAB0D22A3A3EAF0A3EBF083
:1034A000229002F5F07CF57D028510828511831251
:1034B000385D2274EC1219E374FC121973123FC0C8
:1034C00074021219D91238531208188A0C8B0DEA9B
:1034D000450D700302358B12359BA818A919881069
:1034E00089117810121BF67CFF7DFF790B8508820D
:1034F0008509831238591208F0740212198912369C
:1035000091700C850A82850B83123B8E0235988E52
:10351000828F83A3A3A3A3E0F5127812121BFAE40F
:10352000F512F5137812121BF67512F57513027861
:1035300012121BF67810121BF674091219BF121C16
:103540000D74091219BFE0F9AC0CAD0D8508828528
:1035500009831238591209867409121989E9FE7013
:10356000157CF57D0285088285098312385912047D
:1035700052E97009802074166E70027E009002F687
:103580001238591213B8EE7004800B7E01850A823E
:10359000850B83123EADEEF9023EC2EE2402F50821
:1035A000E43FF5092274EC1219E374FC121973EA72
:1035B000FEEBFF8C0E8D0FEE2405F508E43FF509B8
:1035C00074021219D98508828509831238591208A4
:1035D000188A0C8B0DEA450D7003023681EE240229
:1035E000F50AE43FF50BA818A9198810891178107D
:1035F000121BF67CFF7DFF790D1238531208F07410
:1036000002121989123691700B850882850983127E
:103610003B8E807A8E828F83A3A3A3A3E0F51278DA
:1036200012121BFA850882850983A3A3121C0D754B
:1036300012F57513027812121BF67810121BF6742D
:10364000091219BF121C0D74091219BFE0F91238C2
:103650004F1209867409121989E9FE700F7CF57DF5
:1036600002123853120458E97009802074166E70E3
:10367000027E009002F61238591213B8EE700480E0
:103680000B7E01850882850983123EADEEF9023E6C
:10369000C2123898F510A3E0F511EA45112274E83A
:1036A0001219E374FE1219738A168B178C148D1578
:1036B000EA2405F50CE43517F50DEA2402F50EE4CD
:1036C0003517F50F850E82F58312385912058A8A4F
:1036D000088B09750B007C037D0079007AF57B026D
:1036E000121346750A00E50814F5100424FFF508C6
:1036F000E50934FFF50980549002F5E0FA9002F2F2
:10370000E0F8EA28F8E43400F9E50898E50999506A
:103710000D9002F5E0F8E510C3989002F2F0E0F5A4
:10372000127513007812121BF61247EA9002F6E0A7
:103730002AFAA3E03400FB12132E740212198990A6
:1037400002F2E0F89002F5E028F0050A850C828587
:103750000D83A3A312416440030238349002F5E0C4
:10376000C39508E495094003023834AE0AEE2EFEF4
:10377000E433FF123873AC18AD19124805E439FB75
:103780001208188A128B13AC12AD13EC4D701B7516
:103790000B01123863123EB19002F6122DB0600395
:1037A0001213B8A90B7402023B1C8516828517837D
:1037B000A3A3A3A3E0F50B780B121BFAE4F512F513
:1037C000137812121BF67512F27513027812121B7F
:1037D000F69002F3121C0D74071219BF121C0DA9EA
:1037E00010850E82850F83123859120986740912CA
:1037F0001989E9F50B709B9002F612388860030274
:1038000036F8E4F512F5137812121BF67CFF7DFFF3
:10381000790F850E82850F831238591208F07402D1
:1038200012198912388E60030236F8123863123B7F
:10383000920237A57CF57D02850E82850F831238B2
:103840005912045EE9600302379879000237A5AC8B
:103850000CAD0D850A82850B8312385D22E0FAA338
:10386000E0FB22123873E0FAA3E0F9EA85148285BE
:10387000158322850C82850D83E02EF8A3E03FF9A5
:1038800088828983229002F312498BE849221238F8
:1038900098F8A3E0F9E849229002F6EAF0A3EBF0E9
:1038A0009002F6E02274E81219E374FA12197374A4
:1038B000041219BF12349B8C168D1774041219BF91
:1038C000E02405F50EA3E03400F50F74041219BFCF
:1038D000E02402123B3012385912058A8A0A8B0BF7
:1038E0007F007E00A818A919880889097808121B8A
:1038F000F6850E82850F83A3A3A3A3E0F5088E09A6
:103900007808121BF6E50E2405F508E4350FF509D5
:103910007808121BF6850E82850F83A3A3123B60E5
:1039200012081274061219898A0C8B0D8029123B19
:1039300051F00F123B51F00F9002F2123E9C121BFD
:10394000F61247EAEFF8123B2412132E74021219F2
:10395000899002F2E02FFFE50C450D70030239E07B
:10396000851882851983123FD2A3A3A3E0F9851499
:1039700082851583123859120800E9FEE50C2404EB
:10398000F510E4350DF511EE705074041219BF12E4
:103990003B57F5087808121BFAE4F508F509780892
:1039A000121BF67508F27509027808121BF69002D0
:1039B000F3121C0D74071219BF121C0DE50A24FA2C
:1039C000F9AC0CAD0D851482851583123859120996
:1039D000867409121989E9FE6039123B6D123EB0F6
:1039E000EF7003023B079002F6E0F5F0EF849002DF
:1039F000F5F07CF57D028514828515831238591205
:103A00000464E960099002F71238591213B879007A
:103A1000023B1A8F08EF703BE4F512F5137812128F
:103A20001BF67CFF7DFF7911851482851583123882
:103A3000591208F07402121989123B7D7009123B69
:103A40006D123B91023B1A9002F2E024049002F6C0
:103A5000F080359002F2E0F89002F6E0FAE82404F3
:103A6000FCE43400FDEC6A4D60030239E6E50A240B
:103A7000FAFAE50B34FFFBE50828F8E43400F9EA2C
:103A800098EB9950030239E6851082851183E0C0D6
:103A9000E09002F7E02FF8A3E034008882F583D0AD
:103AA000E0F00F851082851183A3E0C0E0123B3E59
:103AB000D0E0F00F74021219C98808890978081239
:103AC0001BF674021219BF121C0D850E82850F831E
:103AD00012348F12081E74041219898A0C8B0DEA95
:103AE000450D700302392E74021219BFE0C0E012B6
:103AF0003B3ED0E0F00F74021219BFA3E0C0E01209
:103B00003B3ED0E0023936EE70027E0A850E828599
:103B10000F83123B73123EB0EEF974061219897FBF
:103B200010021AB59002F7E028FAA3E03400FB2255
:103B3000F514A3E03400F515851482F58322123BB9
:103B400042229002F7E02FFAA3E034008A82F58344
:103B500022123B4274FF22123CBFA3A3A3A3E02284
:103B6000124A7C850E82850F8312385D2285108271
:103B700085118312498B851682851783229002F75F
:103B8000EAF0A3EBF09002F712498BE84922123ECB
:103B9000B6E8F0A3E9F079112274EA1219E374FE91
:103BA0001219738A088B098C128D13EA2405FEE41E
:103BB0003509FFAC18AD198E828F8312385912085F
:103BC000188A0C8B0DEE2406F50EE43FF50FEA453E
:103BD0000D7003023C91E5082402F50AE43509F56D
:103BE0000B8A828B83A3A3A3E0A2E55028851882C9
:103BF00085198312385912097A8A108B11EA4511F6
:103C00006020791212384F8510828511831219E1D4
:103C1000E9F50C707F850E82850F83E0600979528B
:103C20008011750C0E806D850882850983A3A3A37E
:103C3000A3E0F9E4F508F5097808121BF68E828FE7
:103C400083A3A3E0F5087808121BF68E828F83A366
:103C5000A3A3121C0D8E828F831247ED12385312CC
:103C6000098C7406121989E9F50C7011850E82858C
:103C70000F83E0702D12385312046A802574166584
:103C80000C7011750C0074181219BF123CBBE48043
:103C900010750C01124983851282851383E8F0A305
:103CA000E9F0850E82850F83E0600479008002A927
:103CB0000C74021219897F0E021AB5123CBF22E061
:103CC000F8A3E0F58388822274EC1219E374F712EA
:103CD00019738A0A8B0B8C108D11EA2405FEE435CA
:103CE0000BFF750C00AC18AD198E828F83123859FA
:103CF0001208188A088B09EA45097003023E87E515
:103D00000A2402F50A5002050B8A828B83A3A3A31F
:103D1000E0A2E5502F8518828519831238591209BF
:103D20007A8A0C8B0DEA450D604F7912AC08AD090B
:103D3000123853850C82850D831219E1E9F50C6068
:103D400003023E8A850A82850B83E0F508A3E0F52D
:103D500009AA08FB12096EEA4B70197AFF7BFF1261
:103D6000096EEA4B7003023E7D8A828B83E508F080
:103D7000A3E509F07508008008750C0E023E8A055F
:103D8000089002EFE0F8E508C3984003023E7D8505
:103D9000080E750F007403780E1219608A828B83E7
:103DA000A3A3E0250EF8A3E0350F12425170D08E88
:103DB000828F83123EA512349B8E828F83A3A3121F
:103DC0003EA5123499EE2404F508E43FF509850870
:103DD00082F583E088828983A3A3A3A3F0A3E4F000
:103DE000EE2405F50EE43FF50F850E82F583123EB5
:103DF000A5A3A3A3A3123499751207751300781213
:103E0000121BF6EEFCEFFD74041219D112132E747E
:103E100002121989E4F5127812121BF685088285C0
:103E20000983E0FC7D0079171238531208F0740200
:103E300012198974071219BF12349B74071219BF23
:103E4000E0FA4B603D850882850983123E9C121B77
:103E5000F6850E82850F831247ED12132E7402121F
:103E6000198974021219D9123853120470E96026A4
:103E700074071219BF1238591213B88019750C093A
:103E80008008750C118003750C011249838510821E
:103E9000851183123EB0A90C74098028E0F50875DD
:103EA000090078082212385D8882898322123EB682
:103EB000E8F0A3E9F022E0F8A3E0F9850E82850F8F
:103EC000832274041219897F0C021AB574EC12193A
:103ED000E3123FC0751000EE2402F50CE43FF50D2F
:103EE000850C82F58312385912096E8A088B09EA0B
:103EF00045097003023FA4850A82850B83E06401B3
:103F00006003023F99AC08AD09AA0AAB0B12096223
:103F1000E9606E850882850983123226EE2406F553
:103F20000AE43FF50B8E828F83A3A3121C0D8E82B1
:103F30008F83A3A3A3A3121C0D850A82850B831272
:103F40001C0D79188E828F83123FD21238591209B4
:103F50008C7406121989E9F8741668700B850A8248
:103F6000850B83E4F0A38014E860128E828F8312A5
:103F70003859850E82850F83EAF0A3EBF088108014
:103F800018780E121BF6AC08AD09EEFAEFFB120919
:103F9000687402121989E9F510AA08AB09120974AC
:103FA000E510700E850C82850D8312385912047647
:103FB0008009741665107003751000A910023EC7C1
:103FC000EAFEEBFF8C0E8D0FEE2405F50AE43FF5BB
:103FD0000B22124A7C850C82850D832274EA121909
:103FE000E37508007509007E007F00750A00EC2467
:103FF00002F510E43DF5118035EC65087003ED65C0
:1040000009600302409188828983A3A3E06A700358
:10401000A3E06B707C88828983A3A3A3A312498742
:10402000EE28FEEF39FFEA28FAEB39FB050A1241C8
:1040300061503A850A0C750D007403780C121960F2
:10404000851082851183124154124251601FE50888
:10405000450970A58C088D098882898312322488CD
:10406000828983A3A3E02EFAA3E03F80BEE50AC3C2
:104070009402500302414F750800750900EE4F602D
:1040800010EEFAEFFB1213B28A0E8B0FEA450F7097
:10409000057900024151750B00024124850B0C7516
:1040A0000D007403780C121960851082851183E06D
:1040B000250CF50CA3E0350DF50DE50C2406F514E3
:1040C000E4350DF515851482F5831242566042E5FC
:1040D0000C2404F512E4350DF513851282F58312D4
:1040E0001C0DE50E2508FAE50F3509FB12132E7499
:1040F00002121989851282851383E02508F508A329
:10410000E03509F509851482851583123859121393
:10411000B8E50B600D7C087D007900AA0CAB0D1290
:104120001346050BE50BC3950A500302409C85100E
:104130008285118312498788828983A3A3A3A3A3BD
:10414000A3E50EF0A3E50F122DB7EEF0A3EFF07983
:1041500001023CB612415822E0250CF8A3E0350DCF
:10416000229002EFE0F8E50AC3982274F01219E3F6
:104170008A0E8B0F8C0A8D0B750D00750C0080500C
:104180007916EE2406F508E43FF5098E828F83A3A5
:10419000A3121C0D8E828F83A3A3A3A3121C0D85D3
:1041A0000882850983121C0D850E82850F83A3A3C7
:1041B00012385912098C7406121989E9F50D741612
:1041C000650D706C850882850983E4F0A3F0050C09
:1041D0009002EFE0F8E50CC3985066AA0C8A0875C7
:1041E000090074037808121960850A82850B83A37D
:1041F000A31242A0E8FEE9FF8E828F83124256602E
:1042000040EA2401F508E43400F5099002EFE06586
:10421000087002E509601488828983A3A3A3A3A37D
:10422000A3A3A31238886003024180791802418257
:10423000E9609B12498374101219BF124248123E62
:10424000B0A90D7F08021AB5E0FAA3E0F5838A82CF
:1042500022F988828983124A7CEC4D2274F6121965
:10426000E37C0080010C90034CE0F8ECC398501EF6
:104270008C0875090074027808121960124295E0E2
:104280006A7003A3E06B70DDE8FAE9FB80047A0052
:104290007B000243389002ED1242A088828983227B
:1042A000E02508F8A3E03509F92274F21219E38A2F
:1042B000088B09750A0080278E828F83A3A3A3A38E
:1042C000122DAE60031213B87C087D007900EEFA5F
:1042D000EFFB1213468E828F83E4F0A3F0050A12DF
:1042E00041615027850A0C750D007403780C121972
:1042F00060850882850983A3A3E0250CFEA3E03531
:104300000DFF8E828F8312388870AD8508828509F3
:104310008374FFF0A3F0024A7074F61219E31209D5
:10432000208A828B83E582458370067A007B008039
:1043300007A3A3A3A31238597F02021AB574F4127B
:1043400019E389088C828D83E06402703C1249264F
:10435000FEA3E0F9EEF8740268700374296970290D
:10436000750A02750B00780A121BF674101219BF39
:10437000121C0D74101219BF121C0DA90812128004
:104380007406121989E9F980027901022DEB74E8AB
:104390001219E374FB121973E9851882851983F0E9
:1043A0008A168B17ECFEEDFF7510008E828F83A3AB
:1043B000A3A3E0A2E4502D741D1219BF12385912A4
:1043C000097A8A828B83E582458370030247C57927
:1043D0000AEEFCEFFDAA16AB171219E1E9F5106021
:1043E000030247C8741F1219BFE0F508A3E0F509DE
:1043F00074211219BFE0F50AA3E0F50B742312191A
:10440000BFE0F50EA3E0F50F8E828F83E0640260BB
:1044100003024766A3124987850882850983A3851D
:104420008212858313EE2406F50CE43FF50D888295
:104430008983124805F514E439F5157814121C80A7
:104440000100002801286844070002282D450328A0
:104450009B4400295C4601298746022928460329F6
:104460005C46042900476647E50E450F6003024796
:1044700061850C82850D83124987E8FAE9FB8A82FF
:104480008B83E0850A82850B83124810121BF68A03
:10449000828B83A3E0FCA3E00246EAE50E450F60B1
:1044A00003024761850A82850B837401F01247FA83
:1044B000850882850983F07C007D008E828F83A32E
:1044C000A3A3A3E02401FAA3E03400FB120818EA36
:1044D0004B60408A828B83E02402F8850A82850B38
:1044E00083E028F0EA2404F8E43BF988828983E039
:1044F00085128285138312481E124810121BF68AF9
:10450000828B83A31247EDE5082403FAE43509FB07
:104510000246EF850A82850B83E02404F07C047D4B
:10452000007900AA12AB131213460247C8E50E45E4
:104530000F60030247611247FAFEA3E0FF850A827B
:10454000850B837404F0EE850882850983F0EF857E
:104550001282851383F074031219D9EEFAEFFB125D
:1045600008188A0C8B0DEA450D700302460B8A82EF
:104570008B83A3A312322474011219C9880E890FE8
:10458000780E121BF674051219BF121C0D7CFF7DEC
:10459000FF12081E74041219898B0FEA450F70333D
:1045A000850C82850D831247F1121BF6850C8285DE
:1045B0000D83A3121C0D7C027D007A1D7B821205E7
:1045C000787404121989E9700A74011219BF74FF12
:1045D000F0A3F08E828F83E064027039750C02754F
:1045E0000D00780C121BF68E828F83A31247EDE527
:1045F000082404FAE43509FB12132E7402121989F7
:10460000850A82850B83E02402800974011219BF98
:10461000EEF0A3EFF074011219BF1247DF7401121C
:1046200019BF1247D602475BE50E450F60030247EC
:1046300061850C82850D83124A75AA16AB1712127A
:1046400086850A82850B837402F08508828509833A
:10465000EAF0851282851383EB02475EE50E450F73
:1046600060030247611247FAF8A3E0F9850A8285E0
:104670000B837402F0E8850882850983F0E98512CE
:104680008285138302475E850C82850D831238591B
:10469000121328EAFAF8C3950EE4950F405CE8651A
:1046A0000E450F70047A008021851882851983E0F9
:1046B000FCE50E2CFCE4350FFDC3EC98ED940050A6
:1046C00003E08005E50ECAC39AFAEA850A82850BE3
:1046D00083F08A0A750B00780A121BF6850C828516
:1046E0000D83E0250EFCA3E0350FFDAA08AB0912EF
:1046F000132E74021219890247C87510070247C8A1
:10470000E50E450F705B850C82850D831249878508
:104710000A82850B837407F0888289831247D71237
:1047200047CFE0851282851383F0E82402FAE4394A
:10473000FB8A828B831247DF8A828B831247D6A340
:10474000A3122DB61247E4F0E82405F850010988B9
:104750008289831247E4A312481EA3A3A3A3F08077
:104760006775100B8062741D1219BF123859120937
:10477000208A828B83E5824583604A124987880CB0
:10478000890DE8450D603E74251219BFE0F51078DB
:1047900010121BFA780E121BF6780A121BF6780814
:1047A000121BF674071219BFE0F9EEFCEFFDAA1612
:1047B000AB17850C82850D831219E17407121989D4
:1047C000E9F510800375100EA9107405023B1CF06A
:1047D00088828983A322A3E0850882850983221227
:1047E0004825F022124825A3A3229002F3124A7C06
:1047F00022E0F50E750F00780E22850C82850D8360
:10480000123CBFE022E0FAA3E0F8E4C8F9EA28226B
:10481000F08A828B83E0F50A750B00780A22124732
:10482000CF12482522E0850882850983A3A322743C
:10483000EE1219E374FE1219738A088B09ECFEED6F
:10484000FF890AAC18AD19EEFAEFFB1208188A0CB2
:104850008B0DEA450D70030249178518828519836F
:104860001238591209208A828B83E58245837003AE
:10487000024912A3A3124987880E890FE8450F70D9
:104880000302491274141219BFE0F510A3E0F511E8
:10489000E50AF50B780B121BFA74191219BF121CDA
:1048A0000D7810121BF6741B1219BFE0F9AC0CAD99
:1048B0000DAA08AB09850E82850F831219E17405D4
:1048C000121989E9F50B705274FE650A604C850C6B
:1048D00082850D83E064027041124926FAA3E0F953
:1048E000EAF87402687003742969702E8510828555
:1048F0001183124805F50CE439F50D780C121BF6FE
:10490000EEFCEFFDAA08AB091209A4740212198982
:104910008008750B0E8003750B01A90B7402121928
:10492000897F0A021AB5A312498B88828983E02203
:1049300074F61219E374FE121973740C1219BF1273
:104940004987E8851882851983F074011219BFE937
:10495000F0E4F508F5097808121BF67508027808E6
:10496000121BF674041219C9880889097808121BE9
:10497000F679FE12098C74061219897402121989CB
:104980000243388E828F8312498B22E0F8A3E0F92C
:104990002274F71219E3EAFEEBFF890890030A126A
:1049A00047ED121286EA5402600BA908EEFAEFFBFB
:1049B00012080C800279017F01021AB574F21219F3
:1049C000E374FE121973EAFEEBFF890A7401650AAB
:1049D00060147402650A6003024A6B7901120BA825
:1049E000E96003024A6BEEFAEFFB12096EEA4B60D4
:1049F00003120974A818A919880889097808121BD4
:104A0000F67508027509007808121BF67508177507
:104A100009827808121BF67CFF7DFF7A017B001269
:104A2000081274061219898038850882850983A3C3
:104A3000A3A3A3A3A3124A75EEFAEFFB12127AE422
:104A4000F50CF50D780C121BF674021219BF121C2E
:104A50000D7CFF7DFFAA08AB0912081E7404121911
:104A6000898A088B09E508450970BE740212198904
:104A70007F06021AB5123CBF124A7C22E0FCA3E07A
:104A8000FD2274F41219E38A088B09ECFEEDFF9005
:104A900015EEE0F4604B7A097B00121352EA4B608A
:104AA000408A828B8374B1F0A3E4124AE4F08A82D4
:104AB0008B83A3A3E508F0A3E509124AE4A3EEF073
:104AC000A3EFF0740C1219BF1249878A828B83A35B
:104AD000A3A3A3A3A3A3123EB09015EEE0F9121373
:104AE0005E022DEBF08A828B83A3A3A3A32274EE34
:104AF0001219E374FA1219738A0A8B0BE9FF8C08F6
:104B00008D097E00850A0C850B0D780C121C3A006D
:104B10000410CB4D364B594B784B9B4BBE4BE14B66
:104B2000124C354C4C4C7C4C2C4D4F4D724DA04D85
:104B3000CB4DCB4DA54C74016F701985088285094A
:104B400083E0C39403500D850882850983E09016A5
:104B5000DAF080027E18024DF374026F701585083A
:104B600082850983E0F8A3E0F99016DBE8F0A3E979
:104B7000F080027E18024DF374016F70198508826F
:104B8000850983E0C39402500D850882850983E07E
:104B900090074DF080027E18024DF374016F70197A
:104BA000850882850983E0C39405500D85088285B8
:104BB0000983E090074EF080027E18024DF37401E5
:104BC0006F7019850882850983E0C39402500D85B2
:104BD0000882850983E090074FF080027E18024D1D
:104BE000F374106F7027750C10750D00780C121B84
:104BF000F6AC08AD097A507B0712132E7402121915
:104C0000898A0C8B0D850C82850D8380027E1802AB
:104C10004DF374016F7019850882850983E0C39490
:104C200002500D850882850983E0900760F08002BC
:104C30007E18024DF374016F700D8508828509831B
:104C4000E09016DEF080027E18024DF374046F705F
:104C5000269081CF780C12183785088285098378D1
:104C60000C1216475011850882850983121861902D
:104C7000076212186D80027E18024DF3EF70211248
:104C80000710E97013121220E9F50D79501214A8DB
:104C9000E9F50C12120E800A9007F57401F08002FB
:104CA0007E18024DF374076F707D750E06750F0048
:104CB000780E121BF6850882850983A3AC82AD832A
:104CC00074021219D112133474021219898A108BCA
:104CD0001185100E85110F7C007D00AA18AB198577
:104CE0000882850983E0F91211AEE9F50CE50CC3E1
:104CF000940A502F120710E97015A90C121226E918
:104D0000F50E79501214A8E9F50D12120E801AE56D
:104D10000CF8790074F628F582740739F58374016C
:104D2000F080067E0280027E18024DF374016F70DF
:104D300019850882850983E0C39402500D85088295
:104D4000850983E0900761F080027E18024DF374BC
:104D5000016F7019850882850983E0C3940A500D9C
:104D6000850882850983E09016DDF080027E1802B6
:104D70004DF374016F7025850882850983E0C39423
:104D8000074019850882850983E0C39411500D8579
:104D90000882850983E09016DFF080577E188053E3
:104DA00074016F70229007F4E0F50C850882850984
:104DB00083E09007F4F0E50C70399007F4E06401AB
:104DC000703112120E802C7E188028C3E50A9427B9
:104DD000E50B9400501B74026F70168508828509DC
:104DE00083E0FCA3E0FDAA0AAB0B120590E9FE806C
:104DF000027E02EEF974061219897F0A021AB5744E
:104E0000EC1219E374DA121973890D8A128B138C60
:104E10000A8D0B743A1219BFE0F50C908145AC185D
:104E2000AD197406121886AC18AD19AA12AB13A9E5
:104E30000D1211AEE9FEEEC3940A4003024F74EE68
:104E4000F91211F0E9FF9016DAE0640270047401BF
:104E500080027400F5087808121BFAAD0CEFFCEE26
:104E6000F9AA0AAB0B12126274011219897C147D23
:104E700000790074121219D11213468A0E8B0F8515
:104E80000E08850F0974121219D97A1075F006EE02
:104E9000A42424F91214A2E9703C7C1079FF741246
:104EA0001219D11213ACE9702D74221219BFAC8201
:104EB000AD837A0475F006EEA42425F91214A2E954
:104EC000F50874121219D9EFA2E0E433F9AA0AAB7B
:104ED0000B12061AE9F874061219D97A0C74702E9E
:104EE000F91214A2E9707A74061219D11211E4753C
:104EF0000E00E50EC394045068E50EF87900E875DD
:104F0000F003A4C8AAF075F000A42AFA75F003E92A
:104F1000A42AF974061219BFE58228F508E5833939
:104F2000F509850882850983E0F8A3E0F9E849607E
:104F30002C850882850983A3A3E0F51075110078FC
:104F400010121BF6850882850983E0FCA3E0FDAA08
:104F50000AAB0B1209927402121989E9F8050E8046
:104F600091EFA2E1500E90074CE0F9AA0AAB0B12A8
:104F70000998E9F87404650C700F9016DAE0640281
:104F80007007AA0AAB0B12125C79007426121989F9
:104F90007F0C021AB574F71219E3EAFEEBFF120751
:104FA00010E970699007F5E06401701B121220E9A6
:104FB000F5089007F57400F07C0A7D0079007AF618
:104FC0007B07121346803B750800E508C3940A501E
:104FD00031E508F8790074F628F582740739F5830D
:104FE000E064017019A908121226E9F8E508FA7BB5
:104FF0000074F62AF58274073BF5837400F0050807
:1050000080C879501214A8E9F50812120E7F010227
:105010001AB574F21219E3890BEAFEEBFF8C088DC6
:1050200009750A0AE50B600C1460091460441460E9
:10503000640250B7EEFAEFFB121202E9F50AE50A34
:10504000C3940A5072E5084509606C750C06750D2D
:1050500000780C121BF6EEFCEFFDAA08AB09121348
:105060002E74021219898A0C8B0D850C82850D8392
:105070008045EEFAEFFB1211FCE9F50AE50AC3944C
:105080000A5034E5084509602EAA08AB09A90A129E
:1050900011F6E98022EEFAEFFB121208E9F50AE5B3
:1050A0000AC3940A5011E5084509600BAA08AB0928
:1050B000A90A1211F6E9F8A90A7F06021AB574F2D4
:1050C0001219E38A0C8B0DE9FF7E1574FF650C70D5
:1050D0000474FF650D702A750800E508C3940A5032
:1050E00014EFFC7A027B00A9081211D2E960027E5B
:1050F00000050880E5EF60627A4A7B12120BCC80D3
:1051000059AA0CAB0D120B9C8A0A8B0B850A0885D9
:105110000B09E508450960407C007D00E508240591
:10512000FAE43509FB850882850983A3A3A3A3E0DC
:10513000F91211AEE9F50AE50AC3940A500EEFFC24
:105140007A027B00A90A1211D2E97E00EF600BAA55
:1051500008AB0912124A80027E14EEF97F06021A89
:10516000B574EE1219E38A0E8B0F8C0A8D0B741234
:105170001219BFE0F50CA3E0F50D75081574FF6575
:105180000E700474FF650F701E7E00EEC3940A500B
:1051900061AC0CAD0DAA0AAB0BEEF91211D8E960A7
:1051A000037508000E80E4AA0EAB0F120B9C8A1048
:1051B0008B11AE10AF11EE4F60357C007D00EE24F8
:1051C00005FAE43FFB8E828F83A3A3A3A3E0F91229
:1051D00011AEE9F509E509C3940A5016AC0CAD0D02
:1051E000AA0AAB0BA9091211D8E97508008003754A
:1051F0000814A9087F0A021AB574F71219E3EAFE27
:10520000EBFF900766EEF0A3EFF090074CE0FC7D1B
:10521000007A267B00120590E9F50890074CE0F92A
:105220001208FC7F01021AB574EE1219E38A108B82
:1052300011E9FF74121219BF780C1218377E00EFB3
:105240007041850C08850D09850E0A850F0B90812C
:10525000CF780C1218377808790C1216F6781012DD
:105260001BF6AA0CAB0DAC0EAD0F12062C7402127D
:105270001989E9FEEE60177901AA10AB1112062612
:10528000E9800BEFF9AA10AB11120626E9F8EEF946
:105290007F0A021AB574F01219E374EC1219738ABA
:1052A0000C8B0D850C82850D83A3A3E024FA70037B
:1052B00002570E24FD7003025583147003025385B8
:1052C00014601024FD700302552B1470030255C2A4
:1052D000025721AE0CAF0D900766E0F8A3E0F9E8A5
:1052E000496066900766E0F8A3E0F5838882E0F8FD
:1052F000A3E0F9E8496052EE240CF582E43FF5831F
:10530000E0F5087808121BFAEE240BF582E43FF56D
:1053100083E0F98E828F83A3A3A3A3A3A3A3A3A354
:10532000E0FCA3E0FDEE2403FAE43FFB900766E017
:10533000F8A3E0F5838882E0F8A3E0F58388821281
:1053400019E1740112198980398E828F83A3A3A376
:10535000A3A3A3A3A3A3121C0D90076212185512B6
:10536000062C7402121989E9601879018E828F83E4
:10537000A3A3A3A3A3A3A3A3A3E0FAA3E0FB120602
:1053800026E9025721AE0CAF0D7508008E828F837F
:10539000A3E060030254AD8E828F83A3A3A3A3A3D3
:1053A000E0A2E040030254AD900800E0F8A3E0F969
:1053B000E84960030254AD7C0E7D007900AA18AB69
:1053C000191213468A0A8B0BAA0AAB0BEE240CF5B2
:1053D00082E43FF583E0F8A3E0F9E8496036750A16
:1053E00006750B00780A121BF6EE240CF582E43FDA
:1053F000F583E02410FCA3E03400FD74021219D1FF
:1054000012132E74021219898A0A8B0B850A82855F
:105410000B83804F8E828F83A3A3A3E0FAA3E0FBCC
:10542000120B9C8A0E8B0F850E0A850F0BE50A4521
:105430000B602D750E06750F00780E121BF6E50A2F
:105440002405FCE4350BFD74021219D112132E74DD
:10545000021219898A0E8B0F850E82850F838003B5
:105460000257218E828F83A3A3A3A3A3E0A2E250BD
:1054700004D2F08002C2F0A2F0E433F87900740C98
:105480001219BFE048F0A3E049F0EEFCEFFDAA18C6
:10549000AB191211EAE970127A027B0090074CE016
:1054A000F9121382E97900025723750815900766EF
:1054B000E0F8A3E0F9E849606F900766E0F8A3E040
:1054C000F5838882A3A3E0F8A3E0F9E84960598E48
:1054D000828F83A3E0FC79018E828F83A3A3A3E054
:1054E000FAA3E0FB900766E0F8A3E0F5838882A3C7
:1054F000A3E0F8A3E0F58388821219E1E5086028AB
:10550000AC0879038E828F83A3A3A3E0FAA3E0FB08
:10551000900766E0F8A3E0F5838882A3A3E0F8A3F0
:10552000E0F58388821219E1025721AE0CAF0D908D
:105530000766E0F8A3E0F9E8496045900766E0F8FF
:10554000A3E0F5838882A3A3E0F8A3E0F9E849602B
:105550002F850C82850D83A3E0FC79028E828F83D8
:10556000A3A3A3E0FAA3E0FB900766E0F8A3E0F5AD
:10557000838882A3A3E0F8A3E0F58388821219E16F
:10558000025721AE0CAF0D7C007D00EE2404FAE43E
:105590003FFB8E828F83A3A3A3E0F91211AEE9F53E
:1055A00008E508C3940A5017EE240AFCE43FFD7A8C
:1055B0000475F006E508A42425F912149CE9F80204
:1055C0005721AE0CAF0D900761E060199016DDE039
:1055D000F98E828F83A3A3A3E0FAA3E0FB12062631
:1055E000E9F80257219016DAE0701679058E828F5D
:1055F00083A3A3A3E0FAA3E0FB120626E9F802576F
:10560000218E828F83A3A3A3E0FAA3E0FB120B9C5D
:105610008A0A8B0B850A08850B09E5084509700382
:105620000257218E828F83A3A3A3A3A3A3A3E0A2E7
:10563000E0506D850882850983A3A3A3A3E0606081
:105640008E828F83A3A3A3A3A3A3A3A3A3E0F50A9E
:10565000A3E0F50B7409780A121951E50A5401F810
:10566000E50B5400F9E8A2E04036740E1219D9E5B2
:10567000082405FAE43509FB850882850983A3A37C
:10568000A3A3E0F91211AEE9701679038E828F831D
:10569000A3A3A3E0FAA3E0FB120626E9F802572130
:1056A000EE2405FCE43FFD850882850983A3A3A3BE
:1056B000A3E0F98E828F83A3A3A3E0FAA3E0FB12F9
:1056C0001256900766E0F8A3E0F9E84960539007A6
:1056D00066E0F8A3E0F5838882A3A3E0F8A3E0F9ED
:1056E000E849603D7C0079008E828F83A3A3A3E00C
:1056F000FAA3E0FB900766E0F8A3E0F5838882A3B5
:10570000A3E0F8A3E0F58388821219E18013AE0CC0
:10571000AF0D8E828F83A3A3A3E0FAA3E0FB121147
:10572000A8790174141219897F08021AB574F51248
:1057300019E374F21219738909EAFEEBFF8C0AACC3
:1057400018AD197A0E75F006E509A42420F9121493
:10575000A2E970617C0679FFAA18AB191213ACE9B3
:105760007053740C1219BFE0F8A3E0F9E8F508E5EE
:105770000A6005EE42088004EEF45208E508F87964
:1057800000740C1219BFE0687003A3E0696022E5A1
:1057900008F87900740C1219BFE8F0A3E9F0AC180E
:1057A000AD197A0E75F006E509A42420F912149CAF
:1057B000E9790180027900740E1219897F03021AB7
:1057C000B574F01219E374E6121973890B8A0C8B05
:1057D0000DECFEEDFF740C1219D97A0E75F006E58A
:1057E0000BA42420F91214A2E960030258F17C06EC
:1057F00079FF740C1219D11213ACE960030258F14D
:10580000AC18AD197A0C7470250BF91214A2E9606A
:10581000030258ED750A00AA18AB191211E4E50C41
:10582000450D702E7C0C7900AA18AB191213ACE947
:1058300060030258D37C0C7D007900AA18AB1912C2
:1058400013468A088B09850882850983750A010237
:1058500058D3AC18AD19AA0CAB0D1211DE8A0E8B01
:105860000F850E08850F09E50845097030EE4F6079
:105870001BAC18AD197A007B001211DE8A0E8B0F5B
:10588000A80EA90F88088909E84970047900806387
:10589000850882850983E50CF0A3E50DF085088273
:1058A000850983A3A3E0F87900EE687002EF6960D0
:1058B00022EEC0E0850882850983A3A3D0E0F0EE44
:1058C0004F700D8508828509837400F0A37400F081
:1058D000750A01E50A6016AA18AB191211E4AC1892
:1058E000AD197A0C7470250BF912149CE9790180BA
:1058F000027900741A1219897F08021AB574F61217
:1059000019E38A088B097E00EEC394045050EEF828
:105910007900E875F003A4C8AAF075F000A42AFA8B
:1059200075F003E9A42AF9EC28F582ED39F583E056
:1059300065087004A3E065097021EEF87900E87548
:10594000F003A4C8AAF075F000A42AFA75F003E9E0
:10595000A42AF9EC28FAED39FB80070E80AA7A0018
:105960007B007F02021AB574F71219E37C00ECC3C6
:1059700094044003025A16ECF87900E875F003A489
:10598000C8ADF075F000A42DFD75F003E9A42DF964
:10599000EA28F582EB39F583E0F4FEA3E0F4FFECAE
:1059A000F87900E875F003A4C8ADF075F000A42DF7
:1059B000FD75F003E9A42DF9EA28F582EB39F583AA
:1059C000EEF0A3EFF0ECF87900E875F003A4C8ADB1
:1059D000F075F000A42DFD75F003E9A42DF9EA2877
:1059E000F582EB39F583A3A3E0F4C0E0ECF879008D
:1059F000E875F003A4C8ADF075F000A42DFD75F0B6
:105A000003E9A42DF9EA28F582EB39F583A3A3D0A5
:105A1000E0F00C02596E7F01021AB574F01219E31E
:105A200074F4121973EAFEEBFF8C088D09900800DC
:105A3000E0F8A3E0F9E849702CEE4F6006E5084570
:105A40000970057901025CC7EEFAEFFB121202E958
:105A50009016E0F09016E0E0C3940A400812121489
:105A6000E99016E0F09016E0E0C3940A4003025C6F
:105A7000C5900800E0F8A3E0F9E8496003025B1173
:105A8000EEFCEFFD7A0E75F0069016E0E0A42420FF
:105A9000F912149CE9F50C7C0C7D0079FFAA18AB77
:105AA000191213468A0E8B0F850E0A850F0BAC1840
:105AB000AD197A0C9016E0E02470F912149CE9F507
:105AC0000D750E0E750F00780E121BF6EEFCEFFD35
:105AD0009016E0E0F87900E875F00EA4C8AAF07519
:105AE000F000A42AFA75F00EE9A42AF9746828FADD
:105AF000740739FB12132E74021219898A0E8B0F48
:105B0000A80EA90F900800E508F0A3E509F0025CD3
:105B1000C1900800E0F8A3E0C82406F582C834006C
:105B2000F583E0F8A3E0F9E8496043900800E0F865
:105B3000A3E0C82406F582C83400F583E0FCA3E0A6
